:100000006DC100008AC1000088C1000086C10000E7
:1000100084C1000082C1000080C100007EC10000D8
:100020007CC100007AC1000078C100000C9401106E
:1000300074C10000BDC2000070C100000C941C0A15
:100040006CC100006AC1000068C1000066C1000008
:100050000C94B10D0C94A90F60C100005EC10000AA
:100060005CC100005AC1000058C1000056C1000028
:100070000C94DB0D0C94D10F50C100004EC1000058
:1000800034C200004AC1000048C100000000000066
:100090000000000000000000000000000000000060
:1000A0000000000000000000000000000000000050
:1000B0000000000000000000000000000000000040
:1000C000000000000000000000000000000001012E
:1000D0000101010101010101010101010101010110
:1000E0000101010101010101010101010101010100
:1000F00001010202020202020202020202020202E2
:1001000002020202020202020203030303030303C8
:1001100003030303030303030303030404040404AA
:100120000404040404040404040405050505050589
:100130000505050505050506060606060606060666
:100140000606060707070707070707070707080840
:100150000808080808080808090909090909090917
:10016000090A0A0A0A0A0A0A0A0A0B0B0B0B0B0BEA
:100170000B0B0C0C0C0C0C0C0C0C0D0D0D0D0D0DBB
:100180000D0E0E0E0E0E0E0E0F0F0F0F6E616E0087
:10019000696E66006364696E6F70737578585B652D
:1001A000666745464700616E006E66696E697479E0
:1001B00000CDCCCC3D0AD7233C17B7D13877CC2B18
:1001C000329595E6241FB14F0A000020410000C877
:1001D0004200401C4620BCBE4CCA1B0E5AAEC59DF8
:1001E0007400407A10F35A00A0724E18090010A54E
:1001F000D4E80000E87648170000E40B5402000041
:10020000CA9A3B000000E1F50500008096980000C6
:100210000040420F000000A08601000000102700EF
:10022000000000E803000000006400000000000A75
:1002300000000000000100000000002C76D888DCDF
:10024000674F0823DFC1DFAE59E1B1B796E5E3E4BC
:1002500053C63AE651997696E8E6C28426EB898C35
:100260009B62ED407C6FFCEFBC9C9F40F2BAA56F97
:10027000A5F490055A2AF75C936B6CF9676DC11B66
:10028000FCE0E40D47FEF520E6B500D0ED902E032E
:1002900000943577050080841E080000204E0A0077
:1002A0000000C80C333333330F986E12831141EFC3
:1002B0008D2114893BE65516CFFEE6DB18D1844B21
:1002C000381BF77C1D901DA4BBE424203284725E91
:1002D000228100C9F124ECA1E53D270011241FBEB5
:1002E000CFEFD0E4DEBFCDBF12E0A0E0B1E0EAEC9A
:1002F000FCE300E00BBF02C007900D92A43EB107E3
:10030000D9F714E0A4EEB2E001C01D92A936B107FE
:10031000E1F70E94450A0C94631E72CE809107019A
:100320008F5F80930701089511B81AB811B80A9A1F
:10033000559A089A129A5D9A109A28EC30E0109219
:10034000F4031092F5031092F6031092F7038091D4
:10035000F4039091F503A091F603B091F7038C3B61
:100360009541A105B105A0F48091F4039091F503A6
:10037000A091F603B091F7030196A11DB11D8093E2
:10038000F4039093F503A093F603B093F703DFCF44
:10039000215031092115310591F612985D98109878
:1003A0001092EA021092EB021092EC021092ED020F
:1003B0001092EE021092EF021092F0021092F102EF
:1003C0001092E6021092E7021092E8021092E902FF
:1003D00008950F931F93CF93C82F9B0177FF05C0FC
:1003E0008AE391E00E946C1D7CC0CB0164E670E062
:1003F0000E94091A8901081B190B1F930F9325E509
:1004000031E03F932F930E945A1D0F900F900F9051
:100410000F90C23519F0C13409F05DC00115110506
:1004200011F40A9801C00A9A10930601009305017D
:10043000C93529F40115110531F4089805C0C134F6
:1004400009F04CC0F7CF089A109302010093010104
:10045000C73429F40115110531F455980BC0C13486
:1004600009F03FC0F7CF559A013A8FE0180714F012
:1004700000EA1FE010930401009303011016110617
:1004800084F5B80180E090E00E94831421E73DE309
:100490004CE951E40E94E9140E94571470938900BA
:1004A0006093880080918800909189009F938F933A
:1004B000809104018F93809103018F9386E791E0EF
:1004C0009F938F930E945A1D0F900F900F900F9043
:1004D0000F900F9006C0C93509F4ACCFC73409F4AA
:1004E000B9CFCF911F910F9108951F920F920FB620
:1004F0000F9211240F931F932F933F935F936F934A
:100500007F938F939F93AF93BF930091F8021091C5
:10051000F9022091FA023091FB020F5F1F4F2F4F1B
:100520003F4F0093F8021093F9022093FA023093A0
:10053000FB02809101019091020164E670E00E944B
:10054000F519CB01A0E0B0E0081719072A073B070F
:10055000F8F082B191E0892782B98091E60290910A
:10056000E702A091E802B091E9020196A11DB11D38
:100570008093E6029093E702A093E802B093E90229
:100580001092F8021092F9021092FA021092FB02F5
:10059000BF91AF919F918F917F916F915F913F91AB
:1005A0002F911F910F910F900FBE0F901F901895D4
:1005B0001F920F920FB60F9211248F939F93AF93B8
:1005C000BF938091EA029091EB02A091EC02B0916E
:1005D000ED020196A11DB11D8093EA029093EB02FA
:1005E000A093EC02B093ED02BF91AF919F918F91D8
:1005F0000F900FBE0F901F901895809109018F5F8B
:1006000080930901089582E00E94BB0B811103C011
:100610000E94730FF8CF0895462FBC0182E00E941C
:10062000A70FF1CF62E270E084E891E0F5DF65E2C8
:1006300070E087EA91E0F0DF68E170E08DEC91E036
:10064000EBDF69E170E086EE91E0E6DF60E170E00B
:1006500080E092E0E1DF60E170E081E192E0DCDFE8
:1006600060E170E082E292E0D7DF60E170E083E376
:1006700092E0D2DF67E170E084E492E0CDCF40E821
:1006800055E260E070E082E00E94C50E40E26EE359
:1006900074E082E00E94AF0D62E270E08CE592E0CF
:1006A000BBDFC0DF68E170E08FE792E0B5CFA3E287
:1006B000B0E0EDE5F3E00C94681A9E012F5D3F4F2A
:1006C0003F932F939E012D5D3F4F3F932F9328E93A
:1006D00032E03F932F939F938F930E94C81D60E059
:1006E00080E00E94A90B8AA18F9389A18F932BA1EF
:1006F000822F992787FD90959F932F938EE992E003
:100700009F938F930E945A1D8AA18F9389A18F93E3
:100710002BA1822F992787FD90959F932F9389EA8C
:1007200092E09F938F938E010F5F1F4F1F930F9344
:100730000E94991DBC01C8016FDF0FB6F894DEBF9F
:100740000FBECDBF8BA18836B9F054F485352CF49B
:100750008235F4F48C34B9F41BC08635A1F418C08A
:1007600084372CF48237A4F48C3669F411C08437B2
:1007700029F0863741F40CC055DF0AC068E070E00C
:1007800088EB92E004C06BE170E081EC92E044DF22
:1007900068E170E08FE792E03FDFA396E4E00C941D
:1007A000841AA0E2B0E0E7EDF3E00C94661A82E070
:1007B000D2D790915E042091FC023091FD028917FE
:1007C000D9F0A1E0B0E0AC0FBD1FA20FB31FE92F1D
:1007D000F0E0E25CFB4F80818C932F5F3F4F3093C2
:1007E000FD022093FC029F3119F410925E04DFCFCA
:1007F0009F5F90935E04DBCF21153105A1F121307D
:10080000310519F489818A3051F18E010F5F1F4F34
:10081000F801E20FF31F108261E080E09AD78DEDBE
:1008200092E01DD76091FC027091FD02882777FD50
:100830008095982F6DD789E2BFD678018091FC0210
:100840009091FD029701201B310B281739072CF4DA
:10085000F70181917F01B0D6F1CFC80128DF109256
:10086000FD021092FC02A096E6E00C94821A8091A0
:100870000A018F5F80930A0108952F923F924F9251
:100880005F926F927F928F92AF92BF92CF92DF92E0
:10089000EF92FF920F931F93CF93DF93CDB7DEB705
:1008A000182FD62EF42EB22E8093EF038C89819FC1
:1008B000C00111242C01440C551C480E591E120174
:1008C000882011F0220C331CC1010E94AA1A3C019D
:1008D0009093240480932304009709F474C0A10129
:1008E00060E070E00E94D81C882019F0460C571C6C
:1008F00001C023015092260440922504D092200387
:10090000F092F903B09232040093FD03E0922704C1
:10091000C092FA03A0922F0421E0822F01C0880F19
:10092000EA94EAF78093210388E290E090931C0315
:1009300080931B03322F01C0330FCA94EAF7309320
:10094000EE039093390480933804822F01C0880FFE
:10095000AA94EAF780932A04E2E2F0E0F093F1032C
:10096000E093F003822F01C0880FDA94EAF78093B6
:10097000ED03F0931F03E0931E03822F01C0880F45
:10098000FA94EAF78093FF03F0932C04E0932B048E
:10099000822F01C0880FBA94EAF78093EA03F0939C
:1009A0002E04E0932D0401C0220F0A95EAF720934C
:1009B000370483E08093F8031150109300031092E2
:1009C0001D031092FE03DF91CF911F910F91FF90B5
:1009D000EF90DF90CF90BF90AF908F907F906F900F
:1009E0005F904F903F902F9008951092FE0380915A
:1009F000FE03E1E0F0E0E81BF109EE0FFF1FED5D03
:100A0000FB4F808191819093F3038093F2039BB11C
:100A100080912103809589238BB9E0911B03F0918C
:100A20001C0390818091EE03809589238083E0915F
:100A30003804F0913904808190912A04892B8083B5
:100A4000E091F003F091F10390818091ED038095A6
:100A500089238083E0911E03F0911F039081809190
:100A6000FF03809589238083E0912B04F0912C046F
:100A700090818091EA03809589238083E0912D0401
:100A8000F0912E0490818091370480958923808392
:100A900011B812B882E08093800089E180938100D0
:100AA00084E690E09093870080938600EFE6F0E084
:100AB00080818160808378940895242F267030E0AF
:100AC00035952795477094E0499FA0011124242B68
:100AD000352B482F50E0542F44275295550F507E08
:100AE000242B352B962F9770392B90E2699FB001FC
:100AF00011247727262B372B867090E0982F882794
:100B0000990F990F822B932B089543FB222720F9ED
:100B100030E04F7050E0440F551F242B352B482FE9
:100B200050E0542F44275295507F242B352B462FCD
:100B30004F7090E8499FA0011124242B352B6C7035
:100B400098E0699FB0011124262B372B887090E024
:100B5000982F8827822B932B08956C7F90E2699FB2
:100B6000B0011124469546954695642B887F90E008
:100B7000982F8827990F990F990F862B972B0895F7
:100B8000222399F1E82FF0E0E457FF4F8491E62FFC
:100B9000F0E0E457FF4F5491E42FF0E0E457FF4FAB
:100BA000E49190E8599FB0011124282F30E0322FB2
:100BB00022273295307F622B732B2E2F30E0220FAD
:100BC000331F622B732BE695E695E6956E2B8870A6
:100BD00090E0982F8827682B792B5C7088E0589FCD
:100BE000F00111246E2B7F2B12C06C7F90E2699F65
:100BF000B0011124469546954695642B887F90E078
:100C0000982F8827990F990F990F682B792BCB0173
:100C10000895CF92DF92EF92FF920F93CF93DF93DD
:100C2000D42FC22F20E036E040E050E00E943E1A70
:100C300097FF03C07A5F8F4F9F4FA62FC72ED82EE6
:100C4000E92EFF24E7FCFA9422E0C216D104E10465
:100C5000F10449F174F4C114D104E104F104C1F0C8
:100C6000CA94CD28CE28CF28D1F46095A0E07FEF9C
:100C70001CC023E0C216D104E104F10461F044E099
:100C8000C416D104E104F10451F4AFEF70E00DC0DB
:100C9000762FA0E006C0762F7095AFEF05C0A09527
:100CA00070E06FEF02C07FEF60E04D2F50E04F5FCC
:100CB0005F4F8FEF90E0FC01E61BF109E49F90018C
:100CC000E59F300DF49F300D1124632F6095FC01DA
:100CD000E71BF109E49F9001E59F300DF49F300D73
:100CE0001124E32FE0958A1B9109849F9001859F31
:100CF000300D949F300D1124432F40952C2F30E060
:100D00002F5F3F4F70E08E2F90E050E0629FF00128
:100D1000639FF00D729FF00D11240023F1F0EF2F6F
:100D2000FF27E457FF4FA491829FB001839F700D6E
:100D3000929F700D1124E72FFF27E457FF4F8491F6
:100D4000429FB001439F700D529F700D1124E72FF9
:100D5000FF27E457FF4FE49117C0AF2FA295AF7064
:100D6000829FB001839F700D929F700D1124872F79
:100D700082958F70429FB001439F700D529F700DFE
:100D80001124E72FE295EF7090E8899F90011124DC
:100D90004A2F50E0542F44275295507F242B352B57
:100DA0004E2F50E0440F551F242B352BE695E6952A
:100DB000E6952E2BA8704A2F50E0542F4427242B61
:100DC000352B8C7048E0849FC0011124822B932B1B
:100DD000DF91CF910F91FF90EF90DF90CF9008952A
:100DE000CF93DF9397FDA1C0A0912804B09129046F
:100DF0008A179B070CF099C077FD97C020913504A6
:100E000030913604621773070CF08FC0E091200414
:100E10002091FB033091FC03E23059F0E330C9F03C
:100E2000E13001F5F9013197E61BF70BBC01CF0169
:100E300019C0F9013197EF01C81BD90BCE01E09120
:100E40002104F09122043197EF01C61BD70BBE019C
:100E500009C0E0912104F09122043197E81BF90BBD
:100E6000CB01BF01C091EF03D0E0E091FE03F0E0C1
:100E7000EE0FFF1FED5DFB4F6C177D0764F5629F62
:100E8000E001639FD00D729FD00D1124BE01660F4B
:100E9000771F6C0F7D1F680F791F0190F081E02D87
:100EA000E60FF71FAA0FBB1FAE0FBF1F1C92569570
:100EB000479540FD07C0A0912804B0912904AE0FCA
:100EC000BF1F1C9283E090E01082E20FF31F019796
:100ED0000097D1F72AC06C1B7D0B629FD001639FE6
:100EE000B00D729FB00D1124BD01660F771F6A0F00
:100EF0007B1F680F791F0190F081E02DE60FF71F2F
:100F00001082852F82958F7080FD07C0A0912804E4
:100F1000B0912904AE0FBF1F1C9283E090E01082B5
:100F2000E20FF31F01970097D1F7DF91CF9108955A
:100F30009C01215031092E3F4FEF3407E0F3E0913F
:100F4000FE036091EF034091280450912904649FAF
:100F50009001659F300D1124A901440F551F420FC8
:100F6000531FF0E0EE0FFF1FED5DFB4FBC018081D2
:100F700091810C94D81CE091FE03F0E0EE0FFF1F6E
:100F8000ED5DFB4F808191810895CF93C82F4091F3
:100F90002304509124042091250430912604421703
:100FA0005307A9F181E080931D0380911D038823DD
:100FB00029F081E090E00E944810F7CFCC2339F16E
:100FC0006091FE03A091FE03B0E0AA0FBB1FAD5DD0
:100FD000BB4F4091EF032091280430912904429F98
:100FE000C001439F900D1124AC01440F551F480FC1
:100FF000591FE1E0F0E0E61BF109EE0FFF1FED5D88
:10100000FB4F608171818D919C910E94CF1CCF918B
:1010100008951F93CF93DF93E0913804F091390442
:10102000808190912A04892B8083E0911B03F091A9
:101030001C0380819091EE03892B80833091EF0314
:10104000393018F088EC90E002C080E991E02091FE
:10105000F80388589F4F02C0880F991F2A95E2F71E
:10106000CC972091F8032F5F2093F803243048F1A8
:101070001092F803209100032F5F209300032317A1
:1010800008F470C01092000320911D03222341F048
:101090003091FE0321E0231B2093FE0310921D03D9
:1010A0002091FE03E1E0F0E0E21BF109EE0FFF1FEB
:1010B000ED5DFB4F208131813093F3032093F203E8
:1010C00051C02091F803213009F04CC03091000349
:1010D000E091F003F091F1032091ED0330FF04C0A3
:1010E0003081322B308304C030812095232320832C
:1010F00030910003E0911E03F0911F032091FF0344
:1011000031FF04C03081322B308304C03081209500
:101110002323208330910003E0912B04F0912C04D1
:101120002091EA0332FF04C03081322B308304C0A7
:1011300030812095232320832091EF03293090F0E4
:1011400030910003E0912D04F0912E04209137049A
:1011500033FF04C03081322B308304C030812095AE
:1011600023232083E091F203F091F303909387000F
:10117000809386001092850010928400A09138041C
:10118000B09139049C9180912A04809589238C9395
:10119000A0911B03B0911C039C918091EE0380955C
:1011A00089238C93DBB1C0912103CD2B8091F8036F
:1011B000811102C010E00DC1019002B8CBB9DBB9BA
:1011C000019002B8CBB9DBB9019002B8CBB9DBB959
:1011D000019002B8CBB9DBB9019002B8CBB9DBB949
:1011E000019002B8CBB9DBB9019002B8CBB9DBB939
:1011F000019002B8CBB9DBB9019002B8CBB9DBB929
:10120000019002B8CBB9DBB9019002B8CBB9DBB918
:10121000019002B8CBB9DBB9019002B8CBB9DBB908
:10122000019002B8CBB9DBB9019002B8CBB9DBB9F8
:10123000019002B8CBB9DBB9019002B8CBB9DBB9E8
:10124000019002B8CBB9DBB9019002B8CBB9DBB9D8
:10125000019002B8CBB9DBB9019002B8CBB9DBB9C8
:10126000019002B8CBB9DBB9019002B8CBB9DBB9B8
:10127000019002B8CBB9DBB9019002B8CBB9DBB9A8
:10128000019002B8CBB9DBB9019002B8CBB9DBB998
:10129000019002B8CBB9DBB9019002B8CBB9DBB988
:1012A000019002B8CBB9DBB9019002B8CBB9DBB978
:1012B000019002B8CBB9DBB9809128049091290440
:1012C0008034910509F080C0019002B8CBB9DBB938
:1012D000019002B8CBB9DBB9019002B8CBB9DBB948
:1012E000019002B8CBB9DBB9019002B8CBB9DBB938
:1012F000019002B8CBB9DBB9019002B8CBB9DBB928
:10130000019002B8CBB9DBB9019002B8CBB9DBB917
:10131000019002B8CBB9DBB9019002B8CBB9DBB907
:10132000019002B8CBB9DBB9019002B8CBB9DBB9F7
:10133000019002B8CBB9DBB9019002B8CBB9DBB9E7
:10134000019002B8CBB9DBB9019002B8CBB9DBB9D7
:10135000019002B8CBB9DBB9019002B8CBB9DBB9C7
:10136000019002B8CBB9DBB9019002B8CBB9DBB9B7
:10137000019002B8CBB9DBB9019002B8CBB9DBB9A7
:10138000019002B8CBB9DBB9019002B8CBB9DBB997
:10139000019002B8CBB9DBB9019002B8CBB9DBB987
:1013A000019002B8CBB9DBB9019002B8CBB9DBB977
:1013B000019002B8CBB9DBB9019002B8CBB9DBB967
:1013C000019002B8CBB9DBB9F093F303E093F203D9
:1013D0002FC0212F30E080912804909129042817F4
:1013E000390734F5A901480F591FDF01A40FB51FB4
:1013F0006C91A0E16A9FB00111246073DF01A80F16
:10140000B91FA40FB51F8C9144E0849FC001112423
:101410008C70682BDF01A20FB31F8C91A0E48A9F10
:10142000C0011124682B62B9CBB9DBB91F5FD1CFE2
:10143000DF91CF911F9108951F920F920FB60F92D7
:1014400011240BB60F922F933F934F935F936F939B
:101450007F938F939F93AF93BF93EF93FF93D9DDC8
:1014600086B386BBFF91EF91BF91AF919F918F9112
:101470007F916F915F914F913F912F910F900BBE94
:101480000F900FBE0F901F901895F9D82CD589D9C1
:10149000FDCF81E090E06F9364E06A95F1F76F9182
:1014A0000197C9F708950F931F93CF93DF9317B157
:1014B0003D982898299AC0E0D0E0EBDF2A9AE9DF2E
:1014C00006B12A98E6DF2A9AE4DF2A98249605FFD7
:1014D00010C09E0140E050E0809102039091030310
:1014E000A0910403B0910503281739074A075B0749
:1014F00020F39E0140E050E08091020390910303AD
:10150000A0910403B0910503281739074A075B0728
:1015100028F082E390E0A0E0B0E004C080E395E72B
:10152000A0E0B0E08093020390930303A093040330
:10153000B093050317B9DF91CF911F910F910895D3
:1015400028B190E08F709070880F991F880F991FB5
:10155000237C282B28B92A9A9CDF2A989ACFA2E0CC
:10156000B0E0E5EBFAE00C94671A182F4A83698320
:101570005AD099DFF7B008B1299869814A8166236A
:1015800011F0289A01C0289887B18C6387B941303F
:1015900021F0812F82958F70D3DF812F8F70D0DF64
:1015A000F7B808B92296E5E00C94831A60E042E0AF
:1015B000D6CF61E042E0D3CFFCCF089560E041E0B8
:1015C000CECF3D98459A80E395E7A0E0B0E08093C8
:1015D000020390930303A0930403B0930503209A9E
:1015E000219A229A8EE190E053D583E0E7DF86E0EE
:1015F00090E04ED583E0E2DF82E090E049D583E0E1
:10160000DDDF82E090E044D582E0D8DF82E090E048
:101610003FD588E2CBDF88E0C9DF81E0C7DF86E025
:10162000C5DF8CE0C3CF80910603882321F481E0DD
:1016300080930603C6CF0895EF92FF92CF93DF9376
:10164000E82EE7017E01F92EE70101C0B2DF8991A2
:101650008823E1F7DF91CF91FF90EF900895ECCFD1
:101660000895AAE0B0E0E7E3FBE00C94621A9B0166
:10167000AC011AE06AE0C62ED12CE12CF12C5E01FF
:101680000894A11CB11C022FCA01B901A70196013F
:101690000E941C1A1150F501E10FF11D005D922FFF
:1016A000990F892F880F880F890F081B0083211538
:1016B00031054105510539F707C0F601E10FF11D6C
:1016C000808177DF1F5F04C06E010894C11CD11CAC
:1016D0001A3098F32A96EAE00C947E1AEF92FF9261
:1016E0000F931F937B018C0197FF0AC01095009503
:1016F000F094E094E11CF11C011D111D8DE259DFF5
:10170000C801B701AEDF1F910F91FF90EF900895D0
:10171000E5CF0895A5E0B0E0E0E9FBE00C94691A9C
:10172000182F80E8898380EC8A8384E98B8384ED99
:101730008C83FE01E60FF11D8181810F6D8336DF01
:10174000109301036D81609300032596E3E00C94F0
:10175000851AE0CF0895282F30E0F901EE0FFF1F22
:1017600043E0220F331F4A95E1F7E20FF31FE25FD8
:10177000FE4F82810895282F30E0F901EE0FFF1F00
:1017800073E0220F331F7A95E1F7E20FF31FE25F58
:10179000FE4F4181282F30E0F901EE0FFF1F53E08B
:1017A000220F331F5A95E1F7E20FF31FE25FFE4F5E
:1017B00081E09381491380E00895282F30E0F901FA
:1017C000EE0FFF1FB3E0220F331FBA95E1F7E20FD0
:1017D000F31FE25FFE4F408551854115510509F425
:1017E00052C0282F30E0F901EE0FFF1F73E0220FE7
:1017F000331F7A95E1F7E20FF31FE25FFE4F72812C
:10180000282F30E0F901EE0FFF1FB3E0220F331F46
:10181000BA95E1F7E20FF31FE25FFE4F948179176B
:1018200090F5282F30E0F901EE0FFF1F73E0220F33
:10183000331F7A95E1F7E20FF31FE25FFE4F9281CB
:10184000490F511DFA016083282F30E0F901EE0F96
:10185000FF1F53E0220F331F5A95E1F7E20FF31FEA
:10186000E25FFE4F92819F5F282F30E0F901EE0F7B
:10187000FF1FB3E0220F331FBA95E1F7E20FF31F0A
:10188000E25FFE4F9283282F30E0F901EE0FFF1F39
:1018900073E0220F331F7A95E1F7E20FF31FE25F47
:1018A000FE4F4281282F30E0F901EE0FFF1F53E079
:1018B000220F331F5A95E1F7E20FF31FE25FFE4F4D
:1018C0009481491701F5282F30E0F901EE0FFF1F31
:1018D00093E0220F331F9A95E1F7E20FF31FE25FC7
:1018E000FE4F9581992379F0282F30E0F901EE0F12
:1018F000FF1FB3E0220F331FBA95E1F7E20FF31F8A
:10190000E25FFE4F128208950F931F93182F8230CB
:1019100009F474C0882319F4E1ECF0E002C0E9ECAA
:10192000F0E080818F778083812F90E0FC01EE0FC3
:10193000FF1F03E0880F991F0A95E1F7E80FF91FD1
:10194000E25FFE4F808591850097A1F1212F30E065
:10195000F901EE0FFF1FA3E0220F331FAA95E1F755
:10196000E20FF31FE25FFE4F9281212F30E0F90179
:10197000EE0FFF1F63E0220F331F6A95E1F7E20FBE
:10198000F31FE25FFE4F84819817A0F4112319F42E
:10199000E0ECF0E002C0E8ECF0E0808187FF0AC0F4
:1019A000112319F4E6ECF0E002C0EEECF0E0608107
:1019B000812F03DF212F30E0F901EE0FFF1F43E0FD
:1019C000220F331F4A95E1F7E20FF31FE25FFE4F4C
:1019D0008081882309F057C0112319F4E1ECF0E06D
:1019E00002C0E9ECF0E08081806880834CC0809187
:1019F0002701882319F01092240145C080912A0103
:101A000090912B01009709F43EC0909124018091A0
:101A100026019817C0F580910703882399F43DD3D8
:101A20008093070310E00AC035D3E02FF0E0319730
:101A3000E11BF109E85FFC4F80831F5F0091070302
:101A4000101790F3A0910703AA23E9F080912401D5
:101A5000E0912A01F0912B01E80FF11DA150A09314
:101A60000703B0E0A85FBC4F8C9180838091240174
:101A70008F5F809324019091240180912601981713
:101A800009F0BCCFB4CF1F910F910895823051F06F
:101A9000882319F4E1ECF0E002C0E9ECF0E0908179
:101AA0009F779083A82FB0E0FD01EE0FFF1F53E05A
:101AB000AA0FBB1F5A95E1F7EA0FFB1FE25FFE4F2B
:101AC00071876087682F70E0FB01EE0FFF1F93E0C6
:101AD000660F771F9A95E1F7E60FF71FE25FFE4F5B
:101AE0001282682F70E0FB01EE0FFF1FA3E0660F6C
:101AF000771FAA95E1F7E60FF71FE25FFE4F4483D9
:101B0000482F50E0FA01EE0FFF1F63E0440F551F0E
:101B10006A95E1F7E40FF51FE25FFE4F25838230FF
:101B2000D9F0282F30E0F901EE0FFF1F43E0220F1C
:101B3000331F4A95E1F7E20FF31FE25FFE4F9081FA
:101B4000992351F4882319F4E1ECF0E002C0E9ECA8
:101B5000F0E0808180688083089521E097CFFDCFF9
:101B600008951F920F920FB60F920BB60F92112489
:101B70002F933F934F935F936F937F938F939F9395
:101B8000AF93BF93EF93FF936091C60080E015DEA3
:101B9000FF91EF91BF91AF919F918F917F916F9145
:101BA0005F914F913F912F910F900BBE0F900FBE01
:101BB0000F901F9018951F920F920FB60F920BB6B1
:101BC0000F9211242F933F934F935F936F937F93C3
:101BD0008F939F93AF93BF93EF93FF936091CE004A
:101BE00081E0EBDDFF91EF91BF91AF919F918F91DC
:101BF0007F916F915F914F913F912F910F900BBE0D
:101C00000F900FBE0F901F901895882319F4E1ECE8
:101C1000F0E002C0E9ECF0E080818062808308950A
:101C2000882319F4E1ECF0E002C0E9ECF0E08081F7
:101C30008F7D80830895282F30E0F901EE0FFF1F7C
:101C400093E0220F331F9A95E1F7E20FF31FE25F53
:101C5000FE4F268137812115310591F1282F30E083
:101C6000F901EE0FFF1FA3E0220F331FAA95E1F742
:101C7000E20FF31FE25FFE4F4181282F30E0F901B0
:101C8000EE0FFF1F63E0220F331F6A95E1F7E20FAB
:101C9000F31FE25FFE4F9381491790F4282F30E045
:101CA000F901EE0FFF1F43E0220F331F4A95E1F7C2
:101CB000E20FF31FE25FFE4F9081992309F4A5CF55
:101CC000AFCF823029F1282F30E0F901EE0FFF1F4E
:101CD00053E0220F331F5A95E1F7E20FF31FE25F43
:101CE000FE4F9081992349F4882319F4E1ECF0E048
:101CF00002C0E9ECF0E098E908C0882319F4E1ECAF
:101D0000F0E002C0E9ECF0E098E1908394DF789491
:101D10000895882319F0813029F402C080E0D1CFE2
:101D200081E0CFCF0895A0E0B0E0E9E9FEE00C94B7
:101D3000651AD82E7A018B01ECDF8D2D823001F1EE
:101D4000DD2019F4C4ECD0E002C0CCECD0E0C80136
:101D5000B70128EF3FEF4FEF5FEF0E94E6196050A9
:101D6000734D8E4C9E4FA8019701E4E0220F331F64
:101D7000441F551FEA95D1F70E941C1A3983288306
:101D8000CDB7DEB7E7E00C94811ACDCF0895282FA8
:101D900030E0F901EE0FFF1F73E0220F331F7A9539
:101DA000E1F7E20FF31FE25FFE4F468157814115D5
:101DB000510509F465C0282F30E0F901EE0FFF1F2F
:101DC00093E0220F331F9A95E1F7E20FF31FE25FD2
:101DD000FE4F6181282F30E0F901EE0FFF1FA3E0D5
:101DE000220F331FAA95E1F7E20FF31FE25FFE4FC8
:101DF0009381691708F044C0882319F4E0ECF0E0FF
:101E000002C0E8ECF0E0908195FF3AC0882319F415
:101E1000A6ECB0E002C0AEECB0E0282F30E0F90153
:101E2000EE0FFF1F63E0220F331F6A95E1F7E20F09
:101E3000F31FE25FFE4F9181490F511DFA0190811E
:101E40009C93282F30E0F901EE0FFF1F93E0220F43
:101E5000331F9A95E1F7E20FF31FE25FFE4F918186
:101E60009F5F282F30E0F901EE0FFF1FA3E0220F44
:101E7000331FAA95E1F7E20FF31FE25FFE4F918354
:101E8000DACE1F93182F823021F0CADE812F7FDF38
:101E90001CC080912801909129010097B1F03091E8
:101EA000230120912501321780F406C0809123017F
:101EB0008F5F80932301EDCF20912301820F911D2D
:101EC000FC018081EED0882389F71F91089580E07E
:101ED000D8DF81E0D6DF82E0D4DF80E015DD81E06D
:101EE00013DD82E011CDF3CF0895282F30E0F90102
:101EF000EE0FFF1F93E0220F331F9A95E1F7E20FD9
:101F0000F31FE25FFE4F77836683282F30E0F901ED
:101F1000EE0FFF1FA3E0220F331FAA95E1F7E20F98
:101F2000F31FE25FFE4F1182282F30E0F901EE0F20
:101F3000FF1F63E0220F331F6A95E1F7E20FF31FE3
:101F4000E25FFE4F4383823009F075CE0895CDCF16
:101F500008951F920F920FB60F920BB60F92112495
:101F60002F933F934F935F936F937F938F939F93A1
:101F7000AF93BF93EF93FF9380E009DFFF91EF9161
:101F8000BF91AF919F918F917F916F915F914F9191
:101F90003F912F910F900BBE0F900FBE0F901F908F
:101FA00018951F920F920FB60F920BB60F92112435
:101FB0002F933F934F935F936F937F938F939F9351
:101FC000AF93BF93EF93FF9381E0E1DEFF91EF9139
:101FD000BF91AF919F918F917F916F915F914F9141
:101FE0003F912F910F900BBE0F900FBE0F901F903F
:101FF00018956F9364E06A95F1F76F910197C9F7AF
:1020000008952F928F939F932FB6809111039091F3
:1020100012030196809311039093120390E0809134
:102020001303891F80931303909119039C5F90936E
:1020300019038091180380519742C0F090931903BF
:102040008093180380911403909115030196809357
:1020500014039093150390E080911603891F8093D9
:10206000160380911703891F809317032FBE9F913A
:102070008F912F901895CF93DF93EC0104C088EED9
:1020800093E0B7DF21972097D1F7DF91CF910895A3
:10209000F2CF08958FEF64E043C083E867E040D05B
:1020A000F9CF1F93182F982F9095991F9927991F53
:1020B00085E8891B65E034D0812F8F7765E030D0CB
:1020C0001F9108956F9364E06A95F1F76F910197FE
:1020D000C9F70895A1E0B0E0E0E7F0E10C94691AD7
:1020E000182F249908C02C9906C02C9A8EE190E0F4
:1020F0006983E8DF698184B1806A84B92698812F79
:10210000837080656C7A862B8CBD81E012FF80E045
:102110008DBD81E090E0AFDF2196E3E00C94851A5D
:102120000F931F93082F162F0CB406FC03C080E0FA
:1021300064E0D0DF0CB404FC03C08CB580618CBDBE
:102140000EBD03C00CB404FE0AC00DB407FEFACFE6
:10215000112319F0812F90E0B5DF8EB501C080E02A
:102160001F910F9108952F923F924F925F926F921D
:102170007F928F929F92AF92BF92CF92DF92EF9217
:10218000FF920F931F93CF93DF93CDB7DEB7639783
:102190000FB6F894DEBF0FBECDBF7C011B016A01F4
:1021A000FC0117821682838181FF66C3BE016F5FC7
:1021B0007F4F4B01F7019381F10193FD859193FFCF
:1021C00081911F01882309F453C3853239F493FDAB
:1021D000859193FF81911F01853239F4B70190E019
:1021E0000E94281D56016501E5CF10E0512C20E02A
:1021F0002032A0F48B3269F030F4803259F083320F
:1022000069F420612CC08D3239F0803339F42160BB
:1022100026C02260246023C0286021C027FD27C07B
:1022200030ED380F3A3078F426FF06C0FAE01F9FF1
:10223000300D1124132F13C06AE0569E300D112467
:10224000532E20620CC08E3221F426FD11C320646F
:1022500006C08C3611F4206802C0883641F4F101C2
:1022600093FD859193FF81911F018111C1CF9BEB5C
:10227000980F933018F42061805E06C09BE9980F98
:10228000933008F0AAC12F7E26FF16E02F73722E1E
:10229000853621F4F22FF0647F2E08C0863621F4B3
:1022A000622F6068762E02C01111115077FE07C0B0
:1022B0001C3348F444244394410E27E00BC01830EB
:1022C00030F4212F06C027E04CE3442E03C027E062
:1022D00017E0412C560174E0A70EB11CF601608195
:1022E000718182819381042DA4010E94D11B6C0114
:1022F000098100FF02C003FF06C071FC07C072FC29
:1023000008C0612C08C03DE2632E05C02BE2622E9E
:1023100002C090E2692E802F8C7099F1662011F036
:1023200084E001C083E0851510F0512C0BC0581AD1
:1023300073FC08C0B70180E290E00E94281D5A9407
:10234000C9F7F3CF662029F0B701862D90E00E94EF
:10235000281D03FD03C000E911E002C00CE811E0F4
:10236000F72DF0717F2EF8018491882309F476C24D
:1023700071108052B70190E00E94281D0F5F1F4F1F
:10238000F2CF77FE0FC04C0C04FF04C08A8181336A
:1023900009F44A94141474F5F8E0F41578F588E01B
:1023A000482E2CC076FC2AC0812F90E08C159D050C
:1023B0009CF06CEFC6166FEFD60674F0772D706840
:1023C000772E0AC0E2E0F0E0EC0FFD1FE10FF11DF7
:1023D0008081803319F411501111F4CF77FE0EC0B3
:1023E00044244394410E812F90E0C816D9062CF462
:1023F0001C1904C04424439401C010E077FE07C0B8
:102400001C141D043CF496012F5F3F4F05C025E0CE
:1024100030E002C021E030E0662011F02F5F3F4F36
:10242000112331F0412F50E04F5F5F4F240F351FD4
:10243000452D50E02417350714F4521A01C0512CD1
:10244000872D897049F4552039F0B70180E290E07A
:102450000E94281D5A94F7CF662029F0B701862DD7
:1024600090E00E94281D73FC09C0552039F0B70187
:1024700080E390E00E94281D5A94F7CF77FE5FC05A
:102480009C2D8D2DD7FE02C090E080E0692E782E25
:1024900040E050E0C601841991099D878C87960120
:1024A00026193709280D391D812F90E0EE27FF27C7
:1024B000E81BF90BFF87EE87FFEF6F167F0669F4C5
:1024C000B7018EE290E02B8B3A8B488B598B0E94A0
:1024D000281D598948893A892B89C614D70454F094
:1024E0006C857D85661577052CF4F901E40FF51FE1
:1024F000818101C080E371E0671A71084F5F5F4F0F
:10250000EE85FF856E167F066CF0B70190E02B8B91
:102510003A8B488B598B0E94281D2B893A89488910
:102520005989CACF6C147D0439F49A81963318F412
:10253000953311F404FF81E3B70190E04BC08A8129
:10254000813309F00F7EB70190E00E94281D111120
:1025500005C074FE18C085E490E017C0B7018EE294
:1025600090E00E94281D82E066246394680EF401C6
:10257000E80FF11D8081B70190E00E94281D1150E5
:1025800041F3862DF1CF85E690E0B7010E94281D2A
:10259000D7FC05C0C114D10439F404FF05C0D1949F
:1025A000C194D1088DE201C08BE2B70190E00E9496
:1025B000281D80E36AE0C616D1042CF08F5FFAE094
:1025C000CF1AD108F7CFB70190E00E94281DB701BC
:1025D000C601C0960E94281D41C1833631F0833761
:1025E00079F0833509F058C021C0560172E0A70E7A
:1025F000B11CF6018081898301E010E0640114C000
:102600005601F2E0AF0EB11CF601C080D18026FF6A
:1026100003C0612F70E002C06FEF7FEFC6012B8B0C
:102620000E94DF1C8C012B892F7715C05601F2E028
:10263000AF0EB11CF601C080D18026FF03C0612F10
:1026400070E002C06FEF7FEFC6012B8B0E94C41CAD
:102650008C012B892068722E23FD1AC0852D90E0F5
:1026600008171907A8F4B70180E290E00E94281D1E
:102670005A94F4CFF60177FC859177FE81916F0132
:10268000B70190E00E94281D51105A940150110981
:102690000115110579F7E2C0843611F0893651F53C
:1026A000560127FF09C0F4E0AF0EB11CF6016081AE
:1026B0007181828193810AC0F2E0AF0EB11CF601F4
:1026C00060817181882777FD8095982F022F0F7682
:1026D00097FF08C090958095709561957F4F8F4FBB
:1026E0009F4F00682AE030E0A4010E94021EC82E1D
:1026F000C8183EC0022F853721F40F7E2AE030E053
:102700001DC0097F8F3691F018F4883559F0B0C09C
:10271000803719F0883711F0ABC0006104FF09C0A1
:10272000046007C024FF08C0066006C028E030E04F
:1027300005C020E130E002C020E132E0560107FF91
:1027400009C0F4E0AF0EB11CF60160817181828195
:10275000938108C0F2E0AF0EB11CF6016081718177
:1027600080E090E0A4010E94021EC82EC8180F77D6
:1027700006FF0BC0202F2E7FC11650F404FF0AC0A5
:1027800002FD08C0202F2E7E05C0DC2C202F03C0A8
:10279000DC2C01C0D12E24FF0DC0FE01EC0DF11D7B
:1027A0008081803311F4297E09C022FF06C0D394B2
:1027B000D39404C0822F867809F0D39423FD13C0EC
:1027C00020FF06C01C2DD51418F4150D1D19D52C8D
:1027D000D51468F4B70180E290E02B8B0E94281D8D
:1027E000D3942B89F5CFD51410F45D1801C0512C6A
:1027F00024FF12C0B70180E390E02B8B0E94281DBC
:102800002B8922FF17C021FF03C088E590E002C09A
:1028100088E790E0B7010CC0822F867859F021FD3F
:1028200002C080E201C08BE227FD8DE2B70190E09B
:102830000E94281DC11638F4B70180E390E00E9481
:10284000281D1150F7CFCA94F401EC0DF11D8081C1
:10285000B70190E00E94281DC110F5CF552009F462
:10286000C2CCB70180E290E00E94281D5A94F6CFB6
:10287000F7018681978102C08FEF9FEF63960FB6B5
:10288000F894DEBF0FBECDBFDF91CF911F910F91A6
:10289000FF90EF90DF90CF90BF90AF909F908F9080
:1028A0007F906F905F904F903F902F90089570D0E1
:1028B00088F09F5790F0B92F9927B751A0F0D1F029
:1028C000660F771F881F991F1AF0BA95C9F712C0B3
:1028D000B13081F077D0B1E0089574C0672F782FC0
:1028E0008827B85F39F0B93FCCF38695779567951F
:1028F000B395D9F73EF490958095709561957F4F8B
:102900008F4F9F4F0895E89409C097FB3EF4909530
:102910008095709561957F4F8F4F9F4F9923A9F0B8
:10292000F92F96E9BB279395F69587957795679547
:10293000B795F111F8CFFAF4BB0F11F460FF1BC08B
:102940006F5F7F4F8F4F9F4F16C0882311F096E91E
:1029500011C0772321F09EE8872F762F05C06623CC
:1029600071F096E8862F70E060E02AF09A95660F85
:10297000771F881FDAF7880F9695879597F908953E
:1029800057FD9058440F551F59F05F3F71F0479520
:10299000880F97FB991F61F09F3F79F08795089505
:1029A000121613061406551FF2CF4695F1DF08C024
:1029B000161617061806991FF1CF86957105610541
:1029C00008940895E894BB2766277727CB0197F9E9
:1029D00008950BD078C069D028F06ED018F09523F8
:1029E00009F05AC05FC01124EECFCADFA0F3959F53
:1029F000D1F3950F50E0551F629FF001729FBB27E6
:102A0000F00DB11D639FAA27F00DB11DAA1F649F91
:102A10006627B00DA11D661F829F2227B00DA11D44
:102A2000621F739FB00DA11D621F839FA00D611DCA
:102A3000221F749F3327A00D611D231F849F600DEB
:102A4000211D822F762F6A2F11249F5750408AF024
:102A5000E1F088234AF0EE0FFF1FBB1F661F771FB0
:102A6000881F91505040A9F79E3F510570F014C047
:102A7000AACF5F3FECF3983EDCF386957795679598
:102A8000B795F795E7959F5FC1F7FE2B880F911DCE
:102A90009695879597F9089597F99F6780E870E074
:102AA00060E008959FEF80EC089500240A941616C4
:102AB000170618060906089500240A94121613062C
:102AC000140605060895092E0394000C11F48823BA
:102AD00052F0BB0F40F4BF2B11F460FF04C06F5FD6
:102AE0007F4F8F4F9F4F089520FD09C0FC0123FDAC
:102AF00005C022FF02C0738362835183408308951F
:102B000044FD10C046FD10C0DB01FC01AA0FBB1F35
:102B1000EE1FFF1F1094D1F76A0F7B1F8E1F9F1FA0
:102B200031E003C033E001C034E0660F771F881F37
:102B3000991F3150D1F7620F711D811D911D0895AC
:102B40000F931F93CF93DF938C01C80143D7EC0100
:102B500097FD07C0FED6892BC1F7B801CE010E94B0
:102B6000E91DCE01DF91CF911F910F9108956F92D2
:102B70007F929F92AF92BF92CF92DF92EF92FF929D
:102B80000F931F93CF93DF931F92CDB7DEB78C01C6
:102B90003B015A0129831ED7AC01552729814B32AD
:102BA000510521F04D32510579F4206831E0631A66
:102BB00071086114710411F480E078C0C8012983A0
:102BC00009D7298197FDF8CFE22FED7F9E2E322F76
:102BD000307369F5803359F57301F1E0EF1AF108AC
:102BE000E114F10409F44FC0C8012983F3D6298107
:102BF00097FD49C0382F3F7D383579F4292D22645F
:102C0000922E32E0631A71086114710409F43BC01A
:102C1000C801E0D697FF0BC036C026FF04C0E92DDF
:102C2000E2609E2E03C0F92DF2619F2E3701C12C68
:102C3000D12C760120ED280F283078F094FE03C0C7
:102C4000B801C7D71DC02A3040F096FEF9CF2F7DBE
:102C50003FEE320F3630A0F72750492DC701B6019D
:102C60004FDF6B017C01292D2260922E31E0631A27
:102C700071086114710451F0C801ACD697FFDACF26
:102C800091FC04C099CFC12CD12C760197FE08C0CD
:102C9000F094E094D094C094C11CD11CE11CF11CB0
:102CA000292DB701A601C5011FDF81E00F90DF913B
:102CB000CF911F910F91FF90EF90DF90CF90BF9039
:102CC000AF909F907F906F9008954F925F926F9218
:102CD0007F928F929F92AF92BF92CF92DF92EF92AC
:102CE000FF920F931F93CF93DF93CDB7DEB7A097DB
:102CF0000FB6F894DEBF0FBECDBF5C014B017A0169
:102D00008E010F5F1F4F680180E2F80111928A95D2
:102D1000E9F7F501638080E090E0712C412CB0E090
:102D200041E050E0F90163FC559063FE51908F0142
:102D3000A52D9F01511003C080E090E07DC0FEE50D
:102D40005F1202C0009761F16B2F70E0681779077E
:102D50004CF46DE5561661F1EDE25E1203C04420BD
:102D600009F103C0411001C0752C6A2F6695669564
:102D70006695F601E60FF11D6A2F67708A0102C0A1
:102D8000000F111F6A95E2F7B8017081762B7083EE
:102D9000A71559F0A71510F4AF5FE7CFA150E5CF05
:102DA000B1E004C04424439401C0412C0196BACF41
:102DB000442019F08E8180628E83B11103C0772484
:102DC000739419C0F601CE0181962081209521933C
:102DD000E817F907D1F7F3CFE114F10429F0F7016F
:102DE0008083C70101967C0191E0891A91088114C2
:102DF0009104E1F0712CC501EDD597FD15C0282F88
:102E0000269526952695F601E20FF11D208130E0EA
:102E1000AC014770552702C0359527954A95E2F7D2
:102E200020FDDACFB501D5D6711086CFE114F104BB
:102E300011F0F7011082C801A0960FB6F894DEBF1A
:102E40000FBECDBFDF91CF911F910F91FF90EF90FB
:102E5000DF90CF90BF90AF909F908F907F906F90BA
:102E60005F904F9008952F923F924F925F926F9292
:102E70007F929F92AF92BF92CF92DF92EF92FF929A
:102E80000F931F93CF93DF9300D000D000D0CDB726
:102E9000DEB76C018B011A019DD59E838D83992726
:102EA0008B32910529F08D9791F480E8982E01C01E
:102EB000912C015011090115110511F480E02AC16E
:102EC000C60188D59E838D8397FF02C0F7CF912CD2
:102ED0008D819E8146D58936910541F08E369105CA
:102EE000C1F5B6EA6B2EB1E07B2E04C0A9EA6A2ECA
:102EF000A1E07A2E8FEF681A780AF3013197B49027
:102F0000BB20D9F0015011090115110559F0C60176
:102F100061D57C0197FD06C024D5B81659F3B601DA
:102F2000C70157D62CEA621621E0720609F0C6CF17
:102F300080E090E0A0E8BFE709C099EA691691E057
:102F40007906B1F780E090E0A0ECBFE7BC01CD01CD
:102F5000D1C0412C512C3201E12CF12C2D81205378
:102F60002A3020F5E92DE260BE2E892D887092FE70
:102F700006C0811122C0FFEFEF1AFF0A1EC088238E
:102F800019F081E0E81AF10840E2C301B201B8DDAE
:102F90002B013C0198E9491699E95906690699E11E
:102FA000790658F0E92DE660BE2E07C02E3F99F451
:102FB00093FC11C0F92DF860BF2E015011090115C5
:102FC000110541F0C60106D59E838D839B2C97FD8C
:102FD00002C0C4CF9B2C91FE71CF8D818F7D853433
:102FE00009F052C0580121E0A21AB108A114B1049D
:102FF00009F464CFC601EED49E838D8397FD5ECF26
:1030000099278B32910529F08D9779F4892D80616C
:10301000982E580192E0A91AB108A114B10409F43C
:103020004DCFC601D7D49E838D838D819E81C0975D
:103030000A9708F043CF8501A12CB12CB501882750
:1030400077FD8095982F2D81205340E259DDAB010B
:10305000BC015A01015011090115110569F0C601A1
:1030600049835A836B837C83B5D49E838D83C097B9
:1030700049815A810A9710F394FE04C0AA24BB2404
:10308000A41AB50AEA0CFB1C012B39F0ED81FE8174
:10309000F7FD03C0B601CF019CD5C301B20133DCFB
:1030A000F7FE08C0F194E194F108F5ECAF2EF1E0E1
:1030B000BF2E04C0EDEDAE2EE1E0BE2E6501F8E1BD
:1030C000CF1AD10800E210E0F501459055906590C7
:1030D0007490E016F10630F0A30192017ADCE01A58
:1030E000F10AF7CF24E0A21AB10816950795AC149F
:1030F000BD0451F797FE05C0DC01CB01B058BC01FF
:10310000CD012114310429F0F101608371838283A0
:10311000938381E026960FB6F894DEBF0FBECDBF35
:10312000DF91CF911F910F91FF90EF90DF90CF90A3
:10313000BF90AF909F907F906F905F904F903F9027
:103140002F9008954F925F926F927F928F929F92ED
:10315000AF92BF92CF92DF92EF92FF920F931F93A5
:10316000CF93DF931F92CDB7DEB78C012B017A018D
:10317000FC0117821682A12CF801D380F201D3FC46
:103180008591D3FE8191382F2F01882309F407C13F
:1031900090E03983DED33981892B19F0C801D0DC66
:1031A000EBCF353241F4F201D3FC3591D3FE3191AE
:1031B0002F01353259F4C80139830CD4398197FD78
:1031C000ECC03817C9F2B80104D5E9C03A3241F46D
:1031D000D3FC3591D3FE31912F01BB24B39401C0B0
:1031E000B12C812C912C20ED230F2A3080F4FB2D63
:1031F000F260BF2EB40180E090E040E281DC4B0140
:10320000F201D3FC3591D3FE31912F01ECCFB1FE09
:1032100004C08114910421F4C2C088248A94982C9B
:10322000383619F03C3661F014C0F201D3FC359108
:10323000D3FE31912F01383661F4FB2DF860BF2E9B
:103240008B2D8460B82EF201D3FC3591D3FE3191E1
:103250002F01332309F4A3C0632F70E084E991E0C8
:10326000398387D33981892B09F499C0B0FC07C011
:10327000F701C080D180C70102967C0102C0C12C39
:10328000D12C3E3649F4F8014681578160E070E068
:103290002B2DC60129DC70CF3336C1F4B1FC03C03D
:1032A00088248394912CC80195D397FD76C0C114CE
:1032B000D10429F0F6018083C60101966C0191E0EA
:1032C000891A91088114910471F763C03B3551F458
:1032D0009201A601B401C801F8DC2C01009709F0A5
:1032E00058C052C0C80139832BDC398197FD55C0C5
:1032F0003F36D9F140F43436A1F13936C9F13835C9
:1033000009F03CC02AC03337B9F018F4303729F13E
:1033100035C0353731F1383701F130C0C114D1042F
:1033200029F0F6016082C60101966C0191E0891ACC
:1033300091088114910459F0C8014CD33C0197FDC8
:1033400006C007D3892B51F3B801C30142D4C1147D
:10335000D104F9F0F60110821CC0FB2DF064BF2EE1
:1033600007C08B2D8062B82E03C09B2D9061B92EB3
:103370002B2DA601B401C801FADB04C0A601B401DB
:10338000C80171DD811105C0F8018381807329F4C2
:1033900006C0B0FCF1CEA394EFCEAA2019F08A2D7E
:1033A00090E002C08FEF9FEF0F90DF91CF911F91C0
:1033B0000F91FF90EF90DF90CF90BF90AF909F90D4
:1033C0008F907F906F905F904F900895DB018F9367
:1033D0009F93A7D0BF91AF91A29F800D911DA39FF6
:1033E000900DB29F900D11240895AA1BBB1B51E1B3
:1033F00007C0AA1FBB1FA617B70710F0A61BB70B65
:10340000881F991F5A95A9F780959095BC01CD0109
:10341000089597FB072E16F4009406D077FD08D088
:10342000E4DF07FC05D03EF4909581959F4F089509
:10343000709561957F4F0895A1E21A2EAA1BBB1BC0
:10344000FD010DC0AA1FBB1FEE1FFF1FA217B30770
:10345000E407F50720F0A21BB30BE40BF50B661F86
:10346000771F881F991F1A9469F76095709580954A
:1034700090959B01AC01BD01CF010895052E97FBEE
:1034800016F400940FD057FD05D0D6DF07FC02D00C
:1034900046F408C050954095309521953F4F4F4FC9
:1034A0005F4F089590958095709561957F4F8F4FF0
:1034B0009F4F08952F923F924F925F926F927F920B
:1034C0008F929F92AF92BF92CF92DF92EF92FF9234
:1034D0000F931F93CF93DF93CDB7DEB7CA1BDB0BE0
:1034E0000FB6F894DEBF0FBECDBF09942A88398885
:1034F00048885F846E847D848C849B84AA84B9848C
:10350000C884DF80EE80FD800C811B81AA81B98197
:10351000CE0FD11D0FB6F894DEBF0FBECDBFED01AB
:10352000089509D0A59F900DB49F900DA49F800D84
:10353000911D11240895A29FB001B39FC001A39FC4
:10354000700D811D1124911DB29F700D811D1124DC
:10355000911D0895CF93DF938230910510F482E09E
:1035600090E0E0916104F091620420E030E0A0E09E
:10357000B0E0309739F14081518148175907B8F0D0
:103580004817590771F482819381109729F0139697
:103590009C938E9312972CC0909362048093610445
:1035A00027C02115310531F04217530718F0A90142
:1035B000DB0101C0EF019A01BD01DF010280F3814F
:1035C000E02DD7CF21153105F9F0281B390B243018
:1035D000310580F48A819B816115710521F0FB0121
:1035E0009383828304C09093620480936104FE01FC
:1035F000329644C0FE01E20FF31F81939193225053
:103600003109398328833AC020915F0430916004E6
:10361000232B41F42091360130913701309360041F
:1036200020935F042091340130913501211531053B
:1036300041F42DB73EB74091380150913901241B18
:10364000350BE0915F04F0916004E217F307A0F4FA
:103650002E1B3F0B2817390778F0AC014E5F5F4FE8
:103660002417350748F04E0F5F1F509360044093B6
:103670005F048193919302C0E0E0F0E0CF01DF911D
:10368000CF910895CF93DF93009709F487C0FC0191
:10369000329713821282C0916104D0916204209704
:1036A00081F420813181280F391F80915F0490912E
:1036B00060048217930779F5F0936004E0935F0448
:1036C0006DC0DE0120E030E0AE17BF0750F4129667
:1036D0004D915C9113979D014115510509F1DA0156
:1036E000F3CFB383A28340815181840F951F8A1742
:1036F0009B0771F48D919C911197840F951F0296F1
:103700009183808312968D919C91139793838283EA
:103710002115310529F4F0936204E09361043EC061
:10372000D9011396FC93EE9312974D915D91A40FDE
:10373000B51FEA17FB0779F480819181840F951FEB
:103740000296D90111969C938E9382819381139650
:103750009C938E931297E0E0F0E08A819B81009722
:1037600019F0FE01EC01F9CFCE01029628813981D2
:10377000820F931F20915F0430916004281739074E
:1037800069F4309729F4109262041092610402C027
:1037900013821282D0936004C0935F04DF91CF91B3
:1037A0000895283008F027E03327DA01990F311DFA
:1037B00087FD916000966105710539F432602E5FD6
:1037C0003D9330E32A95E1F708959F3F30F080382C
:1037D0007105610509F03C5F3C5F3D93913008F055
:1037E0008068911DDF93CF931F930F93FF92EF9209
:1037F000192F987F9695E92F96959695E90FFF27B3
:10380000E55CFD4F99273327EE24FF24A701E7014C
:1038100005900894079428F4360FE71EF81E491FF8
:10382000511D660F771F881F991F0694A1F70590F9
:10383000079428F4E70EF81E491F561FC11D770F85
:10384000881F991F661F0694A1F70590079428F416
:10385000F80E491F561FC71FD11D880F991F661FDD
:10386000771F0694A1F70590079420F4490F561F7F
:10387000C71FD81F990F661F771F881F0694A9F7C7
:1038800084911095177041F0D695C7955795479537
:10389000F794E7941A95C1F7E1EEF1E0689415907A
:1038A000159135916591959105907FE27395E11899
:1038B000F10A430B560BC90BD009C0F7E10CF11EFE
:1038C000431F561FC91FD01D7EF4703311F48A9513
:1038D000E6CFE894015030F0080F0AF400270217F1
:1038E00008F4202F2395022F7A3328F079E37D9373
:1038F0002A95E9F710C07D932A9589F60694979545
:103900006795379517951794E118F10A430B560BF5
:10391000C90BD00998F023957E9173957A3308F0FE
:1039200070E37C932013B8F77E9170617D9330F043
:10393000839571E37D9370E32A95E1F71124EF906D
:10394000FF900F911F91CF91DF91992787FD90955F
:1039500008959111B5C1803219F089508550D0F782
:1039600008959111089581548A5108F4805E855A12
:103970000895FC010590061621F00020D9F7C0013A
:1039800008953197CF010895FC0105906150704072
:103990000110D8F7809590958E0F9F1F0895FB0119
:1039A000DC0102C001900D9241505040D8F70895BB
:1039B000DC0101C06D9341505040E0F70895FC01D7
:1039C0006150704001900110D8F7809590958E0F4E
:1039D0009F1F0895CF93DF93EC012B8120FF33C00D
:1039E00026FF0AC02F7B2B838E819F8101969F83A8
:1039F0008E838A8190E029C022FF0FC0E881F9817F
:103A00008081992787FD9095009719F420622B8378
:103A10001AC03196F983E8830EC0EA85FB850995C3
:103A200097FF09C02B81019611F480E101C080E26B
:103A3000822B8B8308C02E813F812F5F3F4F3F83B6
:103A40002E83992702C08FEF9FEFDF91CF910895CA
:103A50000F931F93CF93DF93182F092FEB018B81C7
:103A600081FD03C08FEF9FEF20C082FF10C04E8109
:103A70005F812C813D81421753077CF4E881F981F5
:103A80009F012F5F3F4F39832883108306C0E8854D
:103A9000F985812F0995892B29F72E813F812F5F89
:103AA0003F4F3F832E83812F902FDF91CF911F9126
:103AB0000F910895CF93DF93CDB7DEB7FE01359612
:103AC00061917191AF0180916504909166040E94AB
:103AD000B310DF91CF9108950F931F93CF93DF938E
:103AE000E0916504F0916604238121FF1BC0EC0185
:103AF00000E010E089916091650470916604DB013B
:103B00001896ED91FC911997882331F00995892B2E
:103B100089F30FEF1FEFEECF8AE00995892B11F49F
:103B2000C80102C08FEF9FEFDF91CF911F910F91DE
:103B300008950F931F93CF93DF93CDB7DEB72E97E2
:103B40000FB6F894DEBF0FBECDBF0D891E8986E08B
:103B50008C831A8309838FEF9FE79E838D83AE0149
:103B6000475E5F4F6F89788DCE0101960E94B3103A
:103B7000EF81F885E00FF11F10822E960FB6F894B2
:103B8000DEBF0FBECDBFDF91CF911F910F91089582
:103B9000CF93DF93CDB7DEB72E970FB6F894DEBF85
:103BA0000FBECDBF85E08C838B899C899A838983E6
:103BB000AE01495E5F4F6D897E89CE010196C2DA02
:103BC0002E960FB6F894DEBF0FBECDBFDF91CF911A
:103BD0000895FB01238120FF12C026FD10C08F3FF6
:103BE0003FEF930761F082832F7D2064238326813A
:103BF00037812150310937832683992708958FEF24
:103C00009FEF0895FA01AA27283051F1203181F160
:103C1000E8946F936E7F6E5F7F4F8F4F9F4FAF4FD4
:103C2000B1E03ED0B4E03CD0670F781F891F9A1FE7
:103C3000A11D680F791F8A1F911DA11D6A0F711D9B
:103C4000811D911DA11D20D009F468943F912AE0A7
:103C5000269F11243019305D3193DEF6CF0108958F
:103C6000462F4770405D4193B3E00FD0C9F7F6CFC0
:103C7000462F4F70405D4A3318F0495D31FD405288
:103C8000419302D0A9F7EACFB4E0A695979587951E
:103C900077956795BA95C9F70097610571050895FD
:103CA0009B01AC010A2E06945795479537952795A9
:103CB000BA95C9F7620F731F841F951FA01D089541
:0A3CC000992788270895F894FFCF94
:103CCA0001F401F401F401010101010102100000F3
:103CDA0000000000000000000000000000000000DA
:103CEA00000001000000000000000000FFFFFFFFCD
:103CFA00FFFFFFFF00006904200043616E6E6F74CE
:103D0A0020746F67676C65206E6567617469766594
:103D1A00206D732E00436F6E76657274656420742D
:103D2A006F20746F67676C6520706572696F643A9B
:103D3A002025642E0A00477265656E2025642C20B2
:103D4A0025640A000D0A48454C503A0D0A4C2F6C5E
:103D5A003A2053746172742F53746F70204C6F67DA
:103D6A0067696E670D0A00562F763A20566965779D
:103D7A00204B642C204B702C20566D2C2050722C1A
:103D8A0020506D2C20616E6420540D0A00522F724F
:103D9A003A20506F736974696F6E2028636F756E6D
:103DAA007473290D0A00532F733A205370656564A2
:103DBA002028636F756E74732F736563290D0A006B
:103DCA00503A20496E637265617365204B700D0A23
:103DDA0000703A204465637265617365204B700D0B
:103DEA000A00443A20496E637265617365204B6428
:103DFA000D0A00643A204465637265617365204B5D
:103E0A00640D0A00743A20457865637574652074F8
:103E1A0072616A6563746F72790D0A000D0A0D0A80
:103E2A002A2A2A205553422053657269616C204917
:103E3A006E697469616C697A6564202A2A2A000DA0
:103E4A004D656E753A203C4C2C562C522C532C50F6
:103E5A002C442C743E3A2000256320256400476FC9
:103E6A00742025632025640A004F703A2563205682
:103E7A00616C3A25640D0A0042415252592E0D0ACC
:103E8A0000436F6D6D616E6420646F6573206E6FA1
:103E9A007420636F6D707574652E0D0A0052583A5E
:043EAA0020280000CC
:00000001FF
