:10000000EDC0000009C1000007C1000005C10000EB
:1000100003C1000001C10000FFC00000FDC00000DE
:10002000FBC00000F9C00000F7C000000C94C70C32
:10003000F3C00000E3C20000EFC00000EDC000000C
:10004000EBC00000E9C00000E7C00000E5C0000010
:100050000C94770A0C946F0CDFC00000DDC0000028
:10006000DBC00000D9C00000D7C00000D5C0000030
:100070000C94A10A0C94970CCFC00000CDC00000D6
:100080005AC20000C9C00000C7C000006E616E0007
:10009000696E66006364696E6F70737578585B652E
:1000A000666745464700616E006E66696E697479E1
:1000B00000CDCCCC3D0AD7233C17B7D13877CC2B19
:1000C000329595E6241FB14F0A000020410000C878
:1000D0004200401C4620BCBE4CCA1B0E5AAEC59DF9
:1000E0007400407A10F35A00A0724E18090010A54F
:1000F000D4E80000E87648170000E40B5402000042
:10010000CA9A3B000000E1F50500008096980000C7
:100110000040420F000000A08601000000102700F0
:10012000000000E803000000006400000000000A76
:1001300000000000000100000000002C76D888DCE0
:10014000674F0823DFC1DFAE59E1B1B796E5E3E4BD
:1001500053C63AE651997696E8E6C28426EB898C36
:100160009B62ED407C6FFCEFBC9C9F40F2BAA56F98
:10017000A5F490055A2AF75C936B6CF9676DC11B67
:10018000FCE0E40D47FEF520E6B500D0ED902E032F
:1001900000943577050080841E080000204E0A0078
:1001A0000000C80C333333330F986E12831141EFC4
:1001B0008D2114893BE65516CFFEE6DB18D1844B22
:1001C000381BF77C1D901DA4BBE424203284725E92
:1001D000228100C9F124ECA1E53D270011241FBEB6
:1001E000CFEFD0E4DEBFCDBF12E0A0E0B1E0E8E4A5
:1001F000F8E300E00BBF02C007900D92A03FB107EB
:10020000D9F714E0A0EFB2E001C01D92A835B10704
:10021000E1F7A0D30C94221CF3CE809100018F5FF4
:10022000809300010895AF92BF92DF92EF92FF9208
:100230000F931F93CF93DF93CDB7DEB7C254D1098D
:100240000FB6F894DEBF0FBECDBF23961FAE1EAE15
:10025000239755D223961FAE1EAE2397BAE3EB2EFB
:10026000B1E0FB2E10E4D12E8E010F5F1F4F2396BD
:100270008EAD9FAD2397843691050CF05EC023961A
:100280008EAD9FAD239723964EAD5FAD23972396FA
:100290002EAD3FAD23972396AEADBFAD23972396EA
:1002A000AEACBFAC2397880F991F875B9C4FFC01B6
:1002B00061816F9380818F93440F551F495B5C4F21
:1002C000FA0181818F9380818F93220F331F2B5BE3
:1002D0003C4FF90181818F9380818F93AA0FBB1FBF
:1002E000AD5BBC4F11968C9111978F938C918F932E
:1002F000AA0CBB1CC5018F5B9C4FFC0181818F93B5
:1003000080818F93FF92EF921F92DF921F930F9342
:100310000E94FA1ABC01C801FAD1F1D123968EAD20
:100320009FAD2397059623969FAF8EAF23970FB669
:10033000F894DEBF0FBECDBF9ACFCE5BDF4F0FB6B6
:10034000F894DEBF0FBECDBFDF91CF911F910F910B
:10035000FF90EF90DF90BF90AF900895ECE7F0E052
:1003600080818F7D80830895809107018F5F8093C6
:100370000701089511B81AB811B80A9A559A089A3F
:10038000129A5D9A109A28EC30E0109209041092AB
:100390000A0410920B0410920C04809109049091AD
:1003A0000A04A0910B04B0910C048C3B9541A1056B
:1003B000B105A0F48091090490910A04A0910B0466
:1003C000B0910C040196A11DB11D80930904909376
:1003D0000A04A0930B04B0930C04DFCF2150310921
:1003E0002115310591F612985D9810981092F60239
:1003F0001092F7021092F8021092F9021092FA028B
:100400001092FB021092FC021092FD021092F20276
:100410001092F3021092F4021092F50208950F93D5
:100420001F93CF93C82F9B0177FF05C08FE491E006
:100430000E94CD1A7CC0CB0164E670E00E944C178C
:100440008901081B190B1F930F932AE631E03F9394
:100450002F930E94BB1A0F900F900F900F90C235F0
:1004600019F0C13409F05DC00115110511F40A98A5
:1004700001C00A9A1093060100930501C93529F4B9
:100480000115110531F4089805C0C13409F04CC0BC
:10049000F7CF089A1093020100930101C73429F4A1
:1004A0000115110531F455980BC0C13409F03FC056
:1004B000F7CF559A013A8FE0180714F000EA1FE0D1
:1004C00010930401009303011016110684F5B8017E
:1004D00080E090E00E94C51121E73DE34CE951E442
:1004E0000E942B120E9499117093890060938800DA
:1004F00080918800909189009F938F93809104014F
:100500008F93809103018F938BE891E09F938F935A
:100510000E94BB1A0F900F900F900F900F900F90AA
:1005200006C0C93509F4ACCFC73409F4B9CFCF91AF
:100530001F910F9108951F920F920FB60F921124E1
:100540000F931F932F933F935F936F937F938F939B
:100550009F93AF93BF9300910403109105032091E3
:100560000603309107030F5F1F4F2F4F3F4F00933C
:10057000040310930503209306033093070380912F
:1005800001019091020164E670E00E943817CB01EE
:10059000A0E0B0E0081719072A073B07F8F082B17E
:1005A00091E0892782B98091F2029091F302A091A3
:1005B000F402B091F5020196A11DB11D8093F202E3
:1005C0009093F302A093F402B093F5021092040307
:1005D000109205031092060310920703BF91AF918A
:1005E0009F918F917F916F915F913F912F911F917B
:1005F0000F910F900FBE0F901F9018951F920F92A2
:100600000FB60F9211248F939F93AF93BF93809156
:10061000F6029091F702A091F802B091F9020196CA
:10062000A11DB11D8093F6029093F702A093F802EA
:10063000B093F902BF91AF919F918F910F900FBE30
:100640000F901F901895809108018F5F809308018B
:10065000089582E884BD84E085BD8EE487BD82E094
:1006600080936E0010920003109201031092020317
:100670001092030380E8809390008BE080939100B8
:1006800082E19AE79093990080939800E1E7F0E087
:10069000808182608083109204031092050310927F
:1006A00006031092070380E4809380008DE080931E
:1006B0008100609103017091040180E090E00E944C
:1006C000C51121E73DE34CE951E40E942B120E9441
:1006D0009911709389006093880081E090E0909375
:1006E0008B0080938A00EFE6F0E080818260808357
:1006F0000895809109018F5F80930901089582E038
:1007000000D5811103C00E94390CF9CF0895462FFE
:10071000BC0182E00E946D0CF2CF62E270E089E9D8
:1007200091E0F5DF65E270E08CEB91E0F0DF68E1ED
:1007300070E082EE91E0EBDF69E170E08BEF91E039
:10074000E6DF60E170E085E192E0E1DF60E170E02A
:1007500086E292E0DCDF60E170E087E392E0D7DFE1
:1007600060E170E088E492E0D2DF67E170E089E563
:1007700092E0CDCF40E855E260E070E082E0CBD778
:1007800040E26DE274E082E0B0D662E270E081E7C0
:1007900092E0BDDFC2DF68E170E084E992E0B7CFAC
:1007A000A3E2B0E0E6EDF3E00C948F179E012F5D1D
:1007B0003F4F3F932F939E012D5D3F4F3F932F93CC
:1007C0002DEA32E03F932F939F938F930E94661BF5
:1007D00060E080E033D38AA18F9389A18F932BA10E
:1007E000822F992787FD90959F932F9383EB92E01B
:1007F0009F938F930E94BB1A8AA18F9389A18F9395
:100800002BA1822F992787FD90959F932F938EEB95
:1008100092E09F938F938E010F5F1F4F1F930F9353
:100820000E94371BBC01C80172DF0FB6F894DEBF0F
:100830000FBECDBF8BA18836A9F054F485352CF4BA
:100840008235CCF48C34B9F011C0863569F00EC015
:1008500085372CF482377CF48C3669F007C08637F4
:1008600019F004C05ADF07C0DEDC05C06BE170E0A0
:100870008DEC92E04CDF68E170E084E992E047DFC4
:10088000A396E4E00C94AB17A0E2B0E0EAE4F4E055
:100890000C948D1782E025D490914D04209108038B
:1008A000309109038917D9F0A1E0B0E0AC0FBD1F6A
:1008B000A20FB31FE92FF0E0E35DFB4F80818C9323
:1008C0002F5F3F4F30930903209308039F3119F4A2
:1008D00010924D04DFCF9F5F90934D04DBCF211525
:1008E0003105A1F12130310519F489818A3051F1A6
:1008F0008E010F5F1F4FF801E20FF31F108261E0BE
:1009000080E09CD289EE92E01FD260910803709142
:100910000903882777FD8095982F6FD289E294D1BB
:10092000780180910803909109039701201B310BF6
:10093000281739072CF4F70181917F0185D1F1CF78
:10094000C8012EDF1092090310920803A096E6E07A
:100950000C94A917C4D37DDE0DDF00DDE0D17894BF
:1009600081E8DAD080917A0086FD17C0C091F0024C
:10097000D0E095D0FE01EE0FFF1FEF5BFC4F91839F
:10098000808381E8C9D08091F0028F5F8093F0026C
:10099000843618F048DC1092F0026BD775DFE2CF96
:1009A00080917C0090E025E0959587952A95E1F768
:1009B00081700895EF92FF920F931F93CF93DF936F
:1009C00080910A03882309F453C0E0900B03F09050
:1009D0000C03E6DFC0910A01D0910B01970140E0C2
:1009E00050E0882309F17E01F694E79400E010E0DE
:1009F000CA01B9012FEF30E040E050E00E94291712
:100A0000E60EF71E081F191F9E0140E050E0C801C6
:100A1000B7010E945F17C901DA018F3F9105A10557
:100A2000B10521F118F130C07E01F694E79400E0A1
:100A300010E0CA01B9012FEF33E040E050E00E941E
:100A40002917E60EF71E081F191F9E0140E050E00F
:100A5000C801B7010E945F17C901DA01803020E0A8
:100A6000920721E0A20720E0B20788F49C0111C0A0
:100A700097DF882321F02091790030E00AC020918F
:100A800078003091790005C02FEF30E002C02FEFE1
:100A90003FEFC901CDB7DEB7E6E00C94A9178ACFC6
:100AA0000895803200F191E090930A03803819F4A0
:100AB0000E94860D13C0813819F40E948C0D0EC05F
:100AC000823819F40E94920D09C0833819F40E94EB
:100AD000980D04C08438F9F40E949E0D90930C0385
:100AE00080930B03089510920A0397E890937A007D
:100AF00090917C00292F2064662311F0906C02C035
:100B0000922F9F77907E982B90937C0080917A0013
:100B1000806480937A00089560E0C3CF80E090E025
:100B2000089581E090E06F9364E06A95F1F76F912A
:100B30000197C9F708950F931F93CF93DF9317B1D0
:100B40003D982898299AC0E0D0E0EBDF2A9AE9DFA7
:100B500006B12A98E6DF2A9AE4DF2A98249605FF50
:100B600010C09E0140E050E080911103909112036B
:100B7000A0911303B0911403281739074A075B07A4
:100B800020F39E0140E050E0809111039091120308
:100B9000A0911303B0911403281739074A075B0784
:100BA00028F082E390E0A0E0B0E004C080E395E7A5
:100BB000A0E0B0E08093110390931203A09313037D
:100BC000B093140317B9DF91CF911F910F9108953E
:100BD00028B190E08F709070880F991F880F991F2F
:100BE000237C282B28B92A9A9CDF2A989ACFA2E046
:100BF000B0E0EDEFF5E00C948E17182F4A8369836F
:100C00005AD099DFF7B008B1299869814A816623E3
:100C100011F0289A01C0289887B18C6387B94130B8
:100C200021F0812F82958F70D3DF812F8F70D0DFDD
:100C3000F7B808B92296E5E00C94AA1760E042E004
:100C4000D6CF61E042E0D3CFFCCF089560E041E031
:100C5000CECF3D98459A80E395E7A0E0B0E0809341
:100C6000110390931203A0931303B0931403209ADB
:100C7000219A229A8EE190E0D1D683E0E7DF86E0E8
:100C800090E0CCD683E0E2DF82E090E0C7D683E05C
:100C9000DDDF82E090E0C2D682E0D8DF82E090E043
:100CA000BDD688E2CBDF88E0C9DF81E0C7DF86E020
:100CB000C5DF8CE0C3CF80911503882321F481E048
:100CC00080931503C6CF089581E0B8DF80910D03AE
:100CD00090910E03009711F1A0E0B0E208C0E091FE
:100CE0000D03F0910E03E20FF31FB083AF5F2A2FC5
:100CF00030E080910C0190E0019760910D0170E06F
:100D0000869FA001879F500D969F500D1124241798
:100D100035072CF31092100310920F030895D4CFCF
:100D20000895EF92FF92CF93DF93E82EE7017E01C3
:100D3000F92EE70101C085DF89918823E1F7DF9172
:100D4000CF91FF90EF900895ECCF0895AAE0B0E026
:100D5000ECEAF6E00C9489179B01AC011AE06AE01A
:100D6000C62ED12CE12CF12C5E010894A11CB11CE3
:100D7000022FCA01B901A70196010E945F17115005
:100D8000F501E10FF11D005D922F990F892F880F5A
:100D9000880F890F081B0083211531054105510576
:100DA00039F707C0F601E10FF11D80814ADF1F5FAF
:100DB00004C06E010894C11CD11C1A3098F32A9605
:100DC000EAE00C94A517EF92FF920F931F937B011B
:100DD0008C0197FF0AC010950095F094E094E11CF7
:100DE000F11C011D111D8DE22CDFC801B701AEDF22
:100DF0001F910F91FF90EF900895E5CF0895A5E022
:100E0000B0E0E5E0F7E00C949017182F80E88983B4
:100E100080EC8A8384E98B8384ED8C83FE01E60F6A
:100E2000F11D8181810F6D8309DF109310036D81A6
:100E300060930F032596E3E00C94AC17E0CF089580
:100E4000A0E0B0E0E6E2F7E00C948B17D82E80919A
:100E50000D0390910E03009709F4F2C02D2D2A3056
:100E600009F442C02830C9F4809110038150809366
:100E700010038F3F51F480910F03815080930F0333
:100E800080910D0181508093100380910F038F3F5B
:100E900009F0D1C010920F03CCC08D2DD2DE80910D
:100EA0000F038823B9F090E0019740910D0150E0C5
:100EB000849F9001859F300D949F300D1124809167
:100EC0001003E0910D03F0910E03E20FF31FE80F02
:100ED000F11DD082809110038F5F80931003909159
:100EE0000D01891709F0ACC040910F03242F30E0A9
:100EF00080910C0190E001972817390709F096C0FE
:100F0000C0E0D0E03FC080E06C2F79DFCC248E01C0
:100F10000F5F1F4F32C0EC2CFF2430E0C29FC00196
:100F2000C39F900DD29F900D1124E0910D03F0917D
:100F30000E03EE0DFF1DE80FF91F808182DE809108
:100F40000D0390910E0320910D0130E0C29FF0013E
:100F5000C39FF00DD29FF00D11248E0D9F1DE80F41
:100F6000F91F029FD001039FB00D129FB00D1124F5
:100F7000A80FB91F8C918083C39420910D01C216D4
:100F800050F2E80160910C01862F90E00297C8179B
:100F9000D9070CF4B8CF6230D0F1625080E02FDF77
:100FA00000E010E230C0C02FD0E080910C0190E052
:100FB000029750E0849F9001859F300D949F300DE3
:100FC0001124E0910D03F0910E03EC0FFD1FE20FD1
:100FD000F31F808136DE80910C0190E002974091F2
:100FE0000D0150E0849F9001859F300D949F300D3E
:100FF0001124E0910D03F0910E03EC0FFD1FE20FA1
:10100000F31F10830F5F40910D01041760F2609190
:101010000C01615080E0F3DE10E003C080E211DEDD
:101020001F5F80910D011817C8F303C04F5F4093F5
:101030000F03109210038091100360910F03DFDE05
:101040002D2D332727FD3095C901CDB7DEB7E8E058
:101050000C94A71780910D0390910E03009711F047
:101060000E94691820910C0130E02150304080919D
:101070000D0190E0AC01249FC001259F900D349F8D
:10108000900D11240E94D11790930E0380930D03AD
:10109000009721F1A0E0B0E208C0E0910D03F091CB
:1010A0000E03E20FF31FB083AF5F2A2F30E0809171
:1010B0000C0190E0019760910D0170E0869FA00106
:1010C000879F500D969F500D1124241735072CF340
:1010D00080E297E06EE875E00C94011A0895BACFAB
:1010E0000895282F30E0F901EE0FFF1F43E0220F93
:1010F000331F4A95E1F7E20FF31FE25FFE4F828153
:101100000895282F30E0F901EE0FFF1F73E0220F42
:10111000331F7A95E1F7E20FF31FE25FFE4F418143
:10112000282F30E0F901EE0FFF1F53E0220F331F8D
:101130005A95E1F7E20FF31FE25FFE4F81E09381E2
:10114000491380E00895282F30E0F901EE0FFF1FCA
:10115000B3E0220F331FBA95E1F7E20FF31FE25F0E
:10116000FE4F408551854115510509F452C0282F85
:1011700030E0F901EE0FFF1F73E0220F331F7A9565
:10118000E1F7E20FF31FE25FFE4F7281282F30E09C
:10119000F901EE0FFF1FB3E0220F331FBA95E1F7FD
:1011A000E20FF31FE25FFE4F9481791790F5282F2D
:1011B00030E0F901EE0FFF1F73E0220F331F7A9525
:1011C000E1F7E20FF31FE25FFE4F9281490F511DDD
:1011D000FA016083282F30E0F901EE0FFF1F53E082
:1011E000220F331F5A95E1F7E20FF31FE25FFE4F24
:1011F00092819F5F282F30E0F901EE0FFF1FB3E0CF
:10120000220F331FBA95E1F7E20FF31FE25FFE4FA3
:101210009283282F30E0F901EE0FFF1F73E0220FB9
:10122000331F7A95E1F7E20FF31FE25FFE4F428131
:10123000282F30E0F901EE0FFF1F53E0220F331F7C
:101240005A95E1F7E20FF31FE25FFE4F94814917D1
:1012500001F5282F30E0F901EE0FFF1F93E0220F78
:10126000331F9A95E1F7E20FF31FE25FFE4F95817E
:10127000992379F0282F30E0F901EE0FFF1FB3E03A
:10128000220F331FBA95E1F7E20FF31FE25FFE4F23
:10129000128208950F931F93182F823009F474C09F
:1012A000882319F4E1ECF0E002C0E9ECF0E0808181
:1012B0008F778083812F90E0FC01EE0FFF1F03E00A
:1012C000880F991F0A95E1F7E80FF91FE25FFE4FBB
:1012D000808591850097A1F1212F30E0F901EE0F73
:1012E000FF1FA3E0220F331FAA95E1F7E20FF31FC0
:1012F000E25FFE4F9281212F30E0F901EE0FFF1FD8
:1013000063E0220F331F6A95E1F7E20FF31FE25FFC
:10131000FE4F84819817A0F4112319F4E0ECF0E05B
:1013200002C0E8ECF0E0808187FF0AC0112319F4C5
:10133000E6ECF0E002C0EEECF0E06081812F03DF2C
:10134000212F30E0F901EE0FFF1F43E0220F331F82
:101350004A95E1F7E20FF31FE25FFE4F8081882399
:1013600009F057C0112319F4E1ECF0E002C0E9ECF8
:10137000F0E08081806880834CC0809127018823C1
:1013800019F01092240145C080912A0190912B01FF
:10139000009709F43EC0909124018091260198178E
:1013A000C0F580911603882399F49BD3809316038C
:1013B00010E00AC06AD3E02FF0E03197E11BF10999
:1013C000E95EFC4F80831F5F00911603101790F3B6
:1013D000A0911603AA23E9F080912401E0912A014B
:1013E000F0912B01E80FF11DA150A0931603B0E07E
:1013F000A95EBC4F8C918083809124018F5F809384
:1014000024019091240180912601981709F0BCCF06
:10141000B4CF1F910F910895823051F0882319F4B1
:10142000E1ECF0E002C0E9ECF0E090819F7790837E
:10143000A82FB0E0FD01EE0FFF1F53E0AA0FBB1F66
:101440005A95E1F7EA0FFB1FE25FFE4F7187608755
:10145000682F70E0FB01EE0FFF1F93E0660F771F10
:101460009A95E1F7E60FF71FE25FFE4F1282682FB1
:1014700070E0FB01EE0FFF1FA3E0660F771FAA9538
:10148000E1F7E60FF71FE25FFE4F4483482F50E07D
:10149000FA01EE0FFF1F63E0440F551F6A95E1F755
:1014A000E40FF51FE25FFE4F25838230D9F0282F2D
:1014B00030E0F901EE0FFF1F43E0220F331F4A9582
:1014C000E1F7E20FF31FE25FFE4F9081992351F4A1
:1014D000882319F4E1ECF0E002C0E9ECF0E080814F
:1014E00080688083089521E097CFFDCF08951F92F3
:1014F0000F920FB60F920BB60F9211242F933F93BA
:101500004F935F936F937F938F939F93AF93BF930B
:10151000EF93FF936091C60080E015DEFF91EF919D
:10152000BF91AF919F918F917F916F915F914F91FB
:101530003F912F910F900BBE0F900FBE0F901F90F9
:1015400018951F920F920FB60F920BB60F9211249F
:101550002F933F934F935F936F937F938F939F93BB
:10156000AF93BF93EF93FF936091CE0081E0EBDDEB
:10157000FF91EF91BF91AF919F918F917F916F916B
:101580005F914F913F912F910F900BBE0F900FBE27
:101590000F901F901895882319F4E1ECF0E002C039
:1015A000E9ECF0E08081806280830895882319F45B
:1015B000E1ECF0E002C0E9ECF0E080818F7D808317
:1015C0000895282F30E0F901EE0FFF1F93E0220F5E
:1015D000331F9A95E1F7E20FF31FE25FFE4F26817A
:1015E00037812115310591F1282F30E0F901EE0FF7
:1015F000FF1FA3E0220F331FAA95E1F7E20FF31FAD
:10160000E25FFE4F4181282F30E0F901EE0FFF1F0E
:1016100063E0220F331F6A95E1F7E20FF31FE25FE9
:10162000FE4F9381491790F4282F30E0F901EE0F17
:10163000FF1F43E0220F331F4A95E1F7E20FF31F2C
:10164000E25FFE4F9081992309F4A5CFAFCF82309E
:1016500029F1282F30E0F901EE0FFF1F53E0220F90
:10166000331F5A95E1F7E20FF31FE25FFE4F9081BF
:10167000992349F4882319F4E1ECF0E002C0E9EC85
:10168000F0E098E908C0882319F4E1ECF0E002C02A
:10169000E9ECF0E098E1908394DF78940895882352
:1016A00019F0813029F402C080E0D1CF81E0CFCFA2
:1016B0000895A0E0B0E0EFE5FBE00C948C17D82E85
:1016C0007A018B01ECDF8D2D823001F1DD2019F4E0
:1016D000C4ECD0E002C0CCECD0E0C801B70128EFE8
:1016E0003FEF4FEF5FEF0E9429176050734D8E4C14
:1016F0009E4FA8019701E4E0220F331F441F551F9E
:10170000EA95D1F70E945F1739832883CDB7DEB7FA
:10171000E7E00C94A817CDCF0895282F30E0F90109
:10172000EE0FFF1F73E0220F331F7A95E1F7E20FF0
:10173000F31FE25FFE4F468157814115510509F4C1
:1017400065C0282F30E0F901EE0FFF1F93E0220F54
:10175000331F9A95E1F7E20FF31FE25FFE4F6181BD
:10176000282F30E0F901EE0FFF1FA3E0220F331FF7
:10177000AA95E1F7E20FF31FE25FFE4F938169172D
:1017800008F044C0882319F4E0ECF0E002C0E8EC73
:10179000F0E0908195FF3AC0882319F4A6ECB0E000
:1017A00002C0AEECB0E0282F30E0F901EE0FFF1FD1
:1017B00063E0220F331F6A95E1F7E20FF31FE25F48
:1017C000FE4F9181490F511DFA0190819C93282F62
:1017D00030E0F901EE0FFF1F93E0220F331F9A95BF
:1017E000E1F7E20FF31FE25FFE4F91819F5F282F29
:1017F00030E0F901EE0FFF1FA3E0220F331FAA957F
:10180000E1F7E20FF31FE25FFE4F9183DACE1F9301
:10181000182F823021F0CADE812F7FDF1CC080911B
:101820002801909129010097B1F030912301209176
:101830002501321780F406C0809123018F5F8093C9
:101840002301EDCF20912301820F911DFC018081A6
:101850004CD1882389F71F91089580E0D8DF81E07B
:10186000D6DF82E0D4DF80E015DD81E013DD82E0A9
:1018700011CDF3CF0895282F30E0F901EE0FFF1FAF
:1018800093E0220F331F9A95E1F7E20FF31FE25F17
:10189000FE4F77836683282F30E0F901EE0FFF1F9C
:1018A000A3E0220F331FAA95E1F7E20FF31FE25FD7
:1018B000FE4F1182282F30E0F901EE0FFF1F63E089
:1018C000220F331F6A95E1F7E20FF31FE25FFE4F2D
:1018D0004383823009F075CE0895CDCF08951F92CD
:1018E0000F920FB60F920BB60F9211242F933F93C6
:1018F0004F935F936F937F938F939F93AF93BF9318
:10190000EF93FF9380E009DFFF91EF91BF91AF91DB
:101910009F918F917F916F915F914F913F912F9107
:101920000F900BBE0F900FBE0F901F9018951F9237
:101930000F920FB60F920BB60F9211242F933F9375
:101940004F935F936F937F938F939F93AF93BF93C7
:10195000EF93FF9381E0E1DEFF91EF91BF91AF91B3
:101960009F918F917F916F915F914F913F912F91B7
:101970000F900BBE0F900FBE0F901F9018956F9396
:1019800064E06A95F1F76F910197C9F708952F9276
:101990008F939F932FB680912003909121030196FE
:1019A000809320039093210390E080912203891F6C
:1019B00080932203909128039C5F90932803809149
:1019C000270380519742C0F0909328038093270308
:1019D0008091230390912403019680932303909395
:1019E000240390E080912503891F80932503809133
:1019F0002603891F809326032FBE9F918F912F90DE
:101A00001895CF93DF93EC0104C088EE93E0B7DF25
:101A100021972097D1F7DF91CF910895F2CF0895C4
:101A2000E0E7F0E080818E7F8083A0EBB0E08C91D6
:101A300083608C93A1EBB0E08C91807F8C938C9130
:101A400082608C93B89A80818160808378940895B5
:101A500080912903882321F481E080932903E0CF3A
:101A60000895F6DFE0E7F0E080818E7F80832091AB
:101A70002303309124034091250350912603808154
:101A800081608083B901CA0108958FEF64E08AC044
:101A9000CF93DF93E6DF9B01AC0180913001909101
:101AA0003101A0913201B0913301281739074A075B
:101AB0005B07A1F081E867E075D0C3E3D3E0E5DF21
:101AC000899383E0C034D807D1F7CBDF609330012E
:101AD000709331018093320190933301DF91CF9164
:101AE000089583E867E05ED0D0CF1F93182F982F1A
:101AF0009095991F9927991F85E8891B65E052D019
:101B0000812F8F7765E04ED01F910895C1DF8091BE
:101B10003C0390913D030895BBDF80913403909185
:101B200035030895B5DF809136039091370308950A
:101B3000AFDF80913803909139030895A9DF809138
:101B40003A0390913B0308956F9364E06A95F1F72F
:101B50006F910197C9F70895A1E0B0E0E2EBFDE0D5
:101B60000C949017182F249908C02C9906C02C9A11
:101B70008EE190E06983E8DF698184B1806A84B98D
:101B80002698812F837080656C7A862B8CBD81E0CE
:101B900012FF80E08DBD81E090E033DF2196E3E02D
:101BA0000C94AC170F931F93082F162F0CB406FC40
:101BB00003C080E064E0D0DF0CB404FC03C08CB54B
:101BC00080618CBD0EBD03C00CB404FE0AC00DB410
:101BD00007FEFACF112319F0812F90E0B5DF8EB503
:101BE00001C080E01F910F9108952F923F924F9274
:101BF0005F926F927F928F929F92AF92BF92CF929D
:101C0000DF92EF92FF920F931F93CF93DF93CDB7A5
:101C1000DEB763970FB6F894DEBF0FBECDBF7C0171
:101C20001B016A01FC0117821682838181FF66C352
:101C3000BE016F5F7F4F4B01F7019381F10193FD6F
:101C4000859193FF81911F01882309F453C3853245
:101C500039F493FD859193FF81911F01853239F409
:101C6000B70190E00E94891A56016501E5CF10E0A6
:101C7000512C20E02032A0F48B3269F030F4803215
:101C800059F0833269F420612CC08D3239F08033F1
:101C900039F4216026C02260246023C0286021C05E
:101CA00027FD27C030ED380F3A3078F426FF06C004
:101CB000FAE01F9F300D1124132F13C06AE0569EC7
:101CC000300D1124532E20620CC08E3221F426FDDB
:101CD00011C3206406C08C3611F4206802C0883617
:101CE00041F4F10193FD859193FF81911F018111D1
:101CF000C1CF9BEB980F933018F42061805E06C033
:101D00009BE9980F933008F0AAC12F7E26FF16E0BA
:101D10002F73722E853621F4F22FF0647F2E08C0C7
:101D2000863621F4622F6068762E02C011111150A0
:101D300077FE07C01C3348F444244394410E27E047
:101D40000BC0183030F4212F06C027E04CE3442E9E
:101D500003C027E017E0412C560174E0A70EB11C28
:101D6000F6016081718182819381042DA4010E941A
:101D7000F8186C01098100FF02C003FF06C071FC66
:101D800007C072FC08C0612C08C03DE2632E05C08C
:101D90002BE2622E02C090E2692E802F8C7099F1A6
:101DA000662011F084E001C083E0851510F0512C0D
:101DB0000BC0581A73FC08C0B70180E290E00E9483
:101DC000891A5A94C9F7F3CF662029F0B701862DF6
:101DD00090E00E94891A03FD03C000E910E002C0F0
:101DE0000CE810E0F72DF0717F2EF8018491882324
:101DF00009F476C271108052B70190E00E94891AEE
:101E00000F5F1F4FF2CF77FE0FC04C0C04FF04C0D2
:101E10008A81813309F44A94141474F5F8E0F415B6
:101E200078F588E0482E2CC076FC2AC0812F90E0FF
:101E30008C159D059CF06CEFC6166FEFD60674F0FE
:101E4000772D7068772E0AC0E2E0F0E0EC0FFD1FFE
:101E5000E10FF11D8081803319F411501111F4CF7D
:101E600077FE0EC044244394410E812F90E0C816A3
:101E7000D9062CF41C1904C04424439401C010E07A
:101E800077FE07C01C141D043CF496012F5F3F4FE2
:101E900005C025E030E002C021E030E0662011F00E
:101EA0002F5F3F4F112331F0412F50E04F5F5F4FC5
:101EB000240F351F452D50E02417350714F4521A0E
:101EC00001C0512C872D897049F4552039F0B70194
:101ED00080E290E00E94891A5A94F7CF662029F098
:101EE000B701862D90E00E94891A73FC09C0552025
:101EF00039F0B70180E390E00E94891A5A94F7CF35
:101F000077FE5FC09C2D8D2DD7FE02C090E080E053
:101F1000692E782E40E050E0C601841991099D8712
:101F20008C87960126193709280D391D812F90E0DD
:101F3000EE27FF27E81BF90BFF87EE87FFEF6F16F1
:101F40007F0669F4B7018EE290E02B8B3A8B488BC9
:101F5000598B0E94891A598948893A892B89C61454
:101F6000D70454F06C857D85661577052CF4F9014E
:101F7000E40FF51F818101C080E371E0671A7108E9
:101F80004F5F5F4FEE85FF856E167F066CF0B701E1
:101F900090E02B8B3A8B488B598B0E94891A2B89A6
:101FA0003A8948895989CACF6C147D0439F49A81D9
:101FB000963318F4953311F404FF81E3B70190E0F0
:101FC0004BC08A81813309F00F7EB70190E00E94F7
:101FD000891A111105C074FE18C085E490E017C07D
:101FE000B7018EE290E00E94891A82E06624639431
:101FF000680EF401E80FF11D8081B70190E00E94A6
:10200000891A115041F3862DF1CF85E690E0B70192
:102010000E94891AD7FC05C0C114D10439F404FF09
:1020200005C0D194C194D1088DE201C08BE2B70103
:1020300090E00E94891A80E36AE0C616D1042CF071
:102040008F5FFAE0CF1AD108F7CFB70190E00E9476
:10205000891AB701C601C0960E94891A41C1833608
:1020600031F0833779F0833509F058C021C056012B
:1020700072E0A70EB11CF6018081898301E010E0B7
:10208000640114C05601F2E0AF0EB11CF601C0802D
:10209000D18026FF03C0612F70E002C06FEF7FEF99
:1020A000C6012B8B0E94F6198C012B892F7715C046
:1020B0005601F2E0AF0EB11CF601C080D18026FFC0
:1020C00003C0612F70E002C06FEF7FEFC6012B8B62
:1020D0000E94EB198C012B892068722E23FD1AC0F7
:1020E000852D90E008171907A8F4B70180E290E069
:1020F0000E94891A5A94F4CFF60177FC859177FEF5
:1021000081916F01B70190E00E94891A51105A9491
:10211000015011090115110579F7E2C0843611F05B
:10212000893651F5560127FF09C0F4E0AF0EB11C06
:10213000F60160817181828193810AC0F2E0AF0E65
:10214000B11CF60160817181882777FD8095982FF9
:10215000022F0F7697FF08C0909580957095619536
:102160007F4F8F4F9F4F00682AE030E0A4010E940C
:10217000A01BC82EC8183EC0022F853721F40F7E41
:102180002AE030E01DC0097F8F3691F018F48835C1
:1021900059F0B0C0803719F0883711F0ABC000613A
:1021A00004FF09C0046007C024FF08C0066006C021
:1021B00028E030E005C020E130E002C020E132E05C
:1021C000560107FF09C0F4E0AF0EB11CF6016081B3
:1021D00071818281938108C0F2E0AF0EB11CF601DB
:1021E0006081718180E090E0A4010E94A01BC82E54
:1021F000C8180F7706FF0BC0202F2E7FC11650F492
:1022000004FF0AC002FD08C0202F2E7E05C0DC2C72
:10221000202F03C0DC2C01C0D12E24FF0DC0FE01F5
:10222000EC0DF11D8081803311F4297E09C022FF5D
:1022300006C0D394D39404C0822F867809F0D39437
:1022400023FD13C020FF06C01C2DD51418F4150D56
:102250001D19D52CD51468F4B70180E290E02B8BC2
:102260000E94891AD3942B89F5CFD51410F45D18E8
:1022700001C0512C24FF12C0B70180E390E02B8BEA
:102280000E94891A2B8922FF17C021FF03C088E50D
:1022900090E002C088E790E0B7010CC0822F8678FA
:1022A00059F021FD02C080E201C08BE227FD8DE2E2
:1022B000B70190E00E94891AC11638F4B70180E393
:1022C00090E00E94891A1150F7CFCA94F401EC0DE6
:1022D000F11D8081B70190E00E94891AC110F5CFED
:1022E000552009F4C2CCB70180E290E00E94891A1F
:1022F0005A94F6CFF7018681978102C08FEF9FEF46
:1023000063960FB6F894DEBF0FBECDBFDF91CF91BD
:102310001F910F91FF90EF90DF90CF90BF90AF9003
:102320009F908F907F906F905F904F903F902F90F5
:10233000089570D088F09F5790F0B92F9927B75122
:10234000A0F0D1F0660F771F881F991F1AF0BA9579
:10235000C9F712C0B13081F077D0B1E0089574C0F0
:10236000672F782F8827B85F39F0B93FCCF386956F
:1023700077956795B395D9F73EF4909580957095CC
:1023800061957F4F8F4F9F4F0895E89409C097FB49
:102390003EF490958095709561957F4F8F4F9F4F3C
:1023A0009923A9F0F92F96E9BB279395F695879580
:1023B00077956795B795F111F8CFFAF4BB0F11F443
:1023C00060FF1BC06F5F7F4F8F4F9F4F16C08823EA
:1023D00011F096E911C0772321F09EE8872F762F20
:1023E00005C0662371F096E8862F70E060E02AF061
:1023F0009A95660F771F881FDAF7880F969587954D
:1024000097F9089557FD9058440F551F59F05F3FB5
:1024100071F04795880F97FB991F61F09F3F79F006
:1024200087950895121613061406551FF2CF469588
:10243000F1DF08C0161617061806991FF1CF86950A
:102440007105610508940895E894BB2766277727EE
:10245000CB0197F908950BD078C069D028F06ED0E1
:1024600018F0952309F05AC05FC01124EECFCADFDF
:10247000A0F3959FD1F3950F50E0551F629FF00197
:10248000729FBB27F00DB11D639FAA27F00DB11DF0
:10249000AA1F649F6627B00DA11D661F829F222779
:1024A000B00DA11D621F739FB00DA11D621F839F00
:1024B000A00D611D221F749F3327A00D611D231FD6
:1024C000849F600D211D822F762F6A2F11249F5724
:1024D00050408AF0E1F088234AF0EE0FFF1FBB1F47
:1024E000661F771F881F91505040A9F79E3F5105E6
:1024F00070F014C0AACF5F3FECF3983EDCF38695F2
:1025000077956795B795F795E7959F5FC1F7FE2B90
:10251000880F911D9695879597F9089597F99F676C
:1025200080E870E060E008959FEF80EC089500245B
:102530000A941616170618060906089500240A9428
:1025400012161306140605060895092E0394000CAE
:1025500011F4882352F0BB0F40F4BF2B11F460FF3D
:1025600004C06F5F7F4F8F4F9F4F089520FD09C0BC
:10257000FC0123FD05C022FF02C0738362835183E7
:102580004083089544FD10C046FD10C0DB01FC01EE
:10259000AA0FBB1FEE1FFF1F1094D1F76A0F7B1FFE
:1025A0008E1F9F1F31E003C033E001C034E0660F8F
:1025B000771F881F991F3150D1F7620F711D811D40
:1025C000911D08950F931F93CF93DF938C01C80142
:1025D00062D7EC0197FD07C0E3D6892BC1F7B8019C
:1025E000CE010E94871BCE01DF91CF911F910F91E9
:1025F00008956F927F929F92AF92BF92CF92DF9297
:10260000EF92FF920F931F93CF93DF931F92CDB75B
:10261000DEB78C013B015A0129833DD7AC01552718
:1026200029814B32510521F04D32510579F4206852
:1026300031E0631A71086114710411F480E079C00B
:10264000C801298328D7298197FDF8CFE22FED7F94
:102650009E2E322F307369F5803359F57301F1E006
:10266000EF1AF108E114F10409F450C0C8012983FC
:1026700012D7298197FD4AC0382F3F7D383579F42C
:10268000292D2264922E32E0631A710861147104BC
:1026900009F43CC0C801FFD697FF0BC037C026FF26
:1026A00004C0E92DE2609E2E03C0F92DF2619F2E39
:1026B0003701C12CD12C760120ED280F283080F075
:1026C00094FE04C0B8010E94871B1DC02A3040F050
:1026D00096FEF8CF2F7D3FEE320F363098F7275019
:1026E000492DC701B6014EDF6B017C01292D226007
:1026F000922E31E0631A71086114710451F0C8011F
:10270000CAD697FFD9CF91FC04C098CFC12CD12C49
:10271000760197FE08C0F094E094D094C094C11C58
:10272000D11CE11CF11C292DB701A601C5011EDF3A
:1027300081E00F90DF91CF911F910F91FF90EF906B
:10274000DF90CF90BF90AF909F907F906F90089553
:102750004F925F926F927F928F929F92AF92BF92B1
:10276000CF92DF92EF92FF920F931F93CF93DF935D
:10277000CDB7DEB7A0970FB6F894DEBF0FBECDBFC2
:102780005C014B017A018E010F5F1F4F680180E2EF
:10279000F80111928A95E9F7F501638080E090E0F5
:1027A000712C412CB0E041E050E0F90163FC559000
:1027B00063FE51908F01A52D9F01511003C080E051
:1027C00090E07DC0FEE55F1202C0009761F16B2FC3
:1027D00070E0681779074CF46DE5561661F1EDE28B
:1027E0005E1203C0442009F103C0411001C0752CE2
:1027F0006A2F669566956695F601E60FF11D6A2FBC
:1028000067708A0102C0000F111F6A95E2F7B801D4
:102810007081762B7083A71559F0A71510F4AF5F60
:10282000E7CFA150E5CFB1E004C04424439401C0F8
:10283000412C0196BACF442019F08E8180628E839C
:10284000B11103C07724739419C0F601CE018196AB
:10285000208120952193E817F907D1F7F3CFE114F0
:10286000F10429F0F7018083C70101967C0191E012
:10287000891A910881149104E1F0712CC5010BD6DD
:1028800097FD15C0282F269526952695F601E20F6F
:10289000F11D208130E0AC014770552702C035950D
:1028A00027954A95E2F720FDDACFB50130D77110B0
:1028B00086CFE114F10411F0F7011082C801A0964F
:1028C0000FB6F894DEBF0FBECDBFDF91CF911F9141
:1028D0000F91FF90EF90DF90CF90BF90AF909F90BF
:1028E0008F907F906F905F904F9008952F923F92BE
:1028F0004F925F926F927F929F92AF92BF92CF92D0
:10290000DF92EF92FF920F931F93CF93DF9300D04C
:1029100000D000D0CDB7DEB76C018B011A01BBD55A
:102920009E838D8399278B32910529F08D9791F4A1
:1029300080E8982E01C0912C015011090115110554
:1029400011F480E02AC1C601A6D59E838D8397FF2E
:1029500002C0F7CF912C8D819E812AD589369105B1
:1029600041F08E369105C1F5B6EA6B2EB0E07B2EB4
:1029700004C0A9EA6A2EA0E07A2E8FEF681A780ABE
:10298000F3013197B490BB20D9F001501109011522
:10299000110559F0C6017FD57C0197FD06C008D509
:1029A000B81659F3B601C701B2D62CEA621620E078
:1029B000720609F0C6CF80E090E0A0E8BFE709C04A
:1029C00099EA691690E07906B1F780E090E0A0EC12
:1029D000BFE7BC01CD01D1C0412C512C3201E12C0B
:1029E000F12C2D8120532A3020F5E92DE260BE2EF6
:1029F000892D887092FE06C0811122C0FFEFEF1A68
:102A0000FF0A1EC0882319F081E0E81AF10840E2AD
:102A1000C301B201B7DD2B013C0198E9491699E9E0
:102A20005906690699E1790658F0E92DE660BE2E4F
:102A300007C02E3F99F493FC11C0F92DF860BF2E0A
:102A4000015011090115110541F0C60124D59E83DD
:102A50008D839B2C97FD02C0C4CF9B2C91FE71CF20
:102A60008D818F7D853409F052C0580121E0A21A72
:102A7000B108A114B10409F464CFC6010CD59E833A
:102A80008D8397FD5ECF99278B32910529F08D9725
:102A900079F4892D8061982E580192E0A91AB10825
:102AA000A114B10409F44DCFC601F5D49E838D83E2
:102AB0008D819E81C0970A9708F043CF8501A12C94
:102AC000B12CB501882777FD8095982F2D81205353
:102AD00040E258DDAB01BC015A010150110901155A
:102AE000110569F0C60149835A836B837C83D3D473
:102AF0009E838D83C09749815A810A9710F394FE73
:102B000004C0AA24BB24A41AB50AEA0CFB1C012B9E
:102B100039F0ED81FE81F7FD03C0B601CF01F7D595
:102B2000C301B20132DCF7FE08C0F194E194F10870
:102B3000F5ECAF2EF0E0BF2E04C0EDEDAE2EE0E0E0
:102B4000BE2E6501F8E1CF1AD10800E210E0F501D0
:102B50004590559065907490E016F10630F0A30111
:102B6000920179DCE01AF10AF7CF24E0A21AB10849
:102B700016950795AC14BD0451F797FE05C0DC010E
:102B8000CB01B058BC01CD012114310429F0F10171
:102B9000608371838283938381E026960FB6F894D5
:102BA000DEBF0FBECDBFDF91CF911F910F91FF9080
:102BB000EF90DF90CF90BF90AF909F907F906F90FD
:102BC0005F904F903F902F9008954F925F926F9239
:102BD0007F928F929F92AF92BF92CF92DF92EF92AD
:102BE000FF920F931F93CF93DF931F92CDB7DEB762
:102BF0008C012B017A01FC0117821682A12CF801AD
:102C0000D380F201D3FC8591D3FE8191382F2F011F
:102C1000882309F407C190E03983C2D33981892B15
:102C200019F0C801CFDCEBCF353241F4F201D3FC0F
:102C30003591D3FE31912F01353259F4C8013983D2
:102C40002AD4398197FDECC03817C9F2B8015FD595
:102C5000E9C03A3241F4D3FC3591D3FE31912F01D2
:102C6000BB24B39401C0B12C812C912C20ED230FF7
:102C70002A3080F4FB2DF260BF2EB40180E090E09A
:102C800040E280DC4B01F201D3FC3591D3FE31915F
:102C90002F01ECCFB1FE04C08114910421F4C2C015
:102CA00088248A94982C383619F03C3661F014C088
:102CB000F201D3FC3591D3FE31912F01383661F406
:102CC000FB2DF860BF2E8B2D8460B82EF201D3FC53
:102CD0003591D3FE31912F01332309F4A3C0632F23
:102CE00070E084E990E039836BD33981892B09F452
:102CF00099C0B0FC07C0F701C080D180C70102961F
:102D00007C0102C0C12CD12C3E3649F4F801468129
:102D1000578160E070E02B2DC60128DC70CF333680
:102D2000C1F4B1FC03C088248394912CC801B3D3AF
:102D300097FD76C0C114D10429F0F6018083C60145
:102D400001966C0191E0891A91088114910471F740
:102D500063C03B3551F49201A601B401C801F8DC0F
:102D60002C01009709F058C052C0C80139832ADCF1
:102D7000398197FD55C03F36D9F140F43436A1F181
:102D80003936C9F1383509F03CC02AC03337B9F0BB
:102D900018F4303729F135C0353731F1383701F1C2
:102DA00030C0C114D10429F0F6016082C601019639
:102DB0006C0191E0891A91088114910459F0C801BD
:102DC0006AD33C0197FD06C0EBD2892B51F3B801C1
:102DD000C3019DD4C114D104F9F0F60110821CC0C6
:102DE000FB2DF064BF2E07C08B2D8062B82E03C070
:102DF0009B2D9061B92E2B2DA601B401C801F9DBE2
:102E000004C0A601B401C80171DD811105C0F8013B
:102E10008381807329F406C0B0FCF1CEA394EFCE79
:102E2000AA2019F08A2D90E002C08FEF9FEF0F903B
:102E3000DF91CF911F910F91FF90EF90DF90CF9096
:102E4000BF90AF909F908F907F906F905F904F90CA
:102E50000895DB018F939F938BD0BF91AF91A29F79
:102E6000800D911DA39F900DB29F900D1124089588
:102E7000AA1BBB1B51E107C0AA1FBB1FA617B707A0
:102E800010F0A61BB70B881F991F5A95A9F78095BC
:102E90009095BC01CD01089597FB072E16F4009480
:102EA00006D077FD08D0E4DF07FC05D03EF490950E
:102EB00081959F4F0895709561957F4F0895A1E288
:102EC0001A2EAA1BBB1BFD010DC0AA1FBB1FEE1FA4
:102ED000FF1FA217B307E407F50720F0A21BB30BEF
:102EE000E40BF50B661F771F881F991F1A9469F76B
:102EF00060957095809590959B01AC01BD01CF01C7
:102F000008952F923F924F925F926F927F928F928D
:102F10009F92AF92BF92CF92DF92EF92FF920F9368
:102F20001F93CF93DF93CDB7DEB7CA1BDB0B0FB672
:102F3000F894DEBF0FBECDBF09942A88398848882F
:102F40005F846E847D848C849B84AA84B984C884C5
:102F5000DF80EE80FD800C811B81AA81B981CE0FBC
:102F6000D11D0FB6F894DEBF0FBECDBFED010895A1
:102F700009D0A59F900DB49F900DA49F800D911D29
:102F800011240895A29FB001B39FC001A39F700DAB
:102F9000811D1124911DB29F700D811D1124911D61
:102FA0000895CF93DF938230910510F482E090E092
:102FB000E0915004F091510420E030E0A0E0B0E056
:102FC000309739F14081518148175907B8F04817B7
:102FD000590771F482819381109729F013969C937D
:102FE0008E9312972CC0909351048093500427C065
:102FF0002115310531F04217530718F0A901DB0103
:1030000001C0EF019A01BD01DF010280F381E02DD3
:10301000D7CF21153105F9F0281B390B24303105A4
:1030200080F48A819B816115710521F0FB019383F6
:10303000828304C09093510480935004FE01329621
:1030400044C0FE01E20FF31F819391932250310996
:10305000398328833AC020914E0430914F04232BAA
:1030600041F4209136013091370130934F04209381
:103070004E0420913401309135012115310541F480
:103080002DB73EB74091380150913901241B350BC3
:10309000E0914E04F0914F04E217F307A0F42E1BC9
:1030A0003F0B2817390778F0AC014E5F5F4F2417AC
:1030B000350748F04E0F5F1F50934F0440934E0466
:1030C0008193919302C0E0E0F0E0CF01DF91CF91D6
:1030D0000895CF93DF93009709F487C0FC013297DE
:1030E00013821282C0915004D0915104209781F430
:1030F00020813181280F391F80914E0490914F0417
:103100008217930779F5F0934F04E0934E046DC056
:10311000DE0120E030E0AE17BF0750F412964D916B
:103120005C9113979D014115510509F1DA01F3CF27
:10313000B383A28340815181840F951F8A179B0717
:1031400071F48D919C911197840F951F0296918334
:10315000808312968D919C9113979383828321157E
:10316000310529F4F0935104E09350043EC0D90195
:103170001396FC93EE9312974D915D91A40FB51F9A
:10318000EA17FB0779F480819181840F951F0296DD
:10319000D90111969C938E938281938113969C936F
:1031A0008E931297E0E0F0E08A819B81009719F0FE
:1031B000FE01EC01F9CFCE01029628813981820F00
:1031C000931F20914E0430914F042817390769F45A
:1031D000309729F4109251041092500402C01382C7
:1031E0001282D0934F04C0934E04DF91CF91089583
:1031F000283008F027E03327DA01990F311D87FDC9
:10320000916000966105710539F432602E5F3D933F
:1032100030E32A95E1F708959F3F30F0803871053B
:10322000610509F03C5F3C5F3D93913008F0806898
:10323000911DDF93CF931F930F93FF92EF92192F5E
:10324000987F9695E92F96959695E90FFF27E55C6F
:10325000FE4F99273327EE24FF24A701E7010590AD
:103260000894079428F4360FE71EF81E491F511DD5
:10327000660F771F881F991F0694A1F70590079482
:1032800028F4E70EF81E491F561FC11D770F881F2F
:10329000991F661F0694A1F70590079428F4F80E6D
:1032A000491F561FC71FD11D880F991F661F771F03
:1032B0000694A1F70590079420F4490F561FC71FE5
:1032C000D81F990F661F771F881F0694A9F784914E
:1032D0001095177041F0D695C79557954795F79477
:1032E000E7941A95C1F7E1EEF0E068941590159116
:1032F00035916591959105907FE27395E118F10AFA
:10330000430B560BC90BD009C0F7E10CF11E431F4C
:10331000561FC91FD01D7EF4703311F48A95E6CF75
:10332000E894015030F0080F0AF40027021708F45F
:10333000202F2395022F7A3328F079E37D932A9565
:10334000E9F710C07D932A9589F6069497956795BD
:10335000379517951794E118F10A430B560BC90BD3
:10336000D00998F023957E9173957A3308F070E335
:103370007C932013B8F77E9170617D9330F0839534
:1033800071E37D9370E32A95E1F71124EF90FF90AC
:103390000F911F91CF91DF91992787FD9095089507
:1033A000911146C2803219F089508550D0F70895A6
:1033B0009111089581548A5108F4805E855A0895C8
:1033C000FC010590061621F00020D9F7C0010895F0
:1033D0003197CF010895FC010590615070400110B4
:1033E000D8F7809590958E0F9F1F0895FC0161502E
:1033F000704001900110D8F7809590958E0F9F1F17
:1034000008950F931F93CF93DF93EC018B010097E7
:1034100031F46115710519F480E090E037C06EE079
:1034200070E081E090E0EAD1FC010097A9F380E828
:1034300083830115110571F01387028781E8838367
:103440008091520490915304892B21F4F0935304FA
:10345000E09352042097C9F0D187C08783818260AE
:1034600083838091540490915504892B71F4F093D7
:103470005504E09354048091560490915704892B8D
:1034800021F4F0935704E0935604CF01DF91CF91DC
:103490001F910F910895CF93DF93EC012B8120FFB3
:1034A00033C026FF0AC02F7B2B838E819F8101961C
:1034B0009F838E838A8190E029C022FF0FC0E8811C
:1034C000F9818081992787FD9095009719F42062F2
:1034D0002B831AC03196F983E8830EC0EA85FB85F9
:1034E000099597FF09C02B81019611F480E101C075
:1034F00080E2822B8B8308C02E813F812F5F3F4F5C
:103500003F832E83992702C08FEF9FEFDF91CF91EA
:1035100008950F931F93CF93DF93182F092FEB017B
:103520008B8181FD03C08FEF9FEF20C082FF10C011
:103530004E815F812C813D81421753077CF4E881E5
:10354000F9819F012F5F3F4F39832883108306C085
:10355000E885F985812F0995892B29F72E813F81EF
:103560002F5F3F4F3F832E83812F902FDF91CF918D
:103570001F910F910895CF93DF93CDB7DEB7FE0172
:10358000359661917191AF018091540490915504E9
:103590000E94F50DDF91CF9108950F931F93CF9364
:1035A000DF93E0915404F0915504238121FF1BC067
:1035B000EC0100E010E08991609154047091550491
:1035C000DB011896ED91FC911997882331F009954C
:1035D000892B89F30FEF1FEFEECF8AE00995892B36
:1035E00011F4C80102C08FEF9FEFDF91CF911F91BF
:1035F0000F9108950F931F93CF93DF93CDB7DEB74D
:103600002E970FB6F894DEBF0FBECDBF0D891E8971
:103610008F89988D26E02C831A83098397FF02C037
:1036200080E090E801979E838D83AE01455E5F4FF9
:10363000698D7A8DCE0101960E94F50D4D815E81D6
:1036400057FD0AC02F813885421753070CF49A01A1
:10365000F801E20FF31F10822E960FB6F894DEBF2A
:103660000FBECDBFDF91CF911F910F9108950F93A2
:103670001F93CF93DF93CDB7DEB72E970FB6F89495
:10368000DEBF0FBECDBF0D891E8986E08C831A83F5
:1036900009838FEF9FE79E838D83AE01475E5F4F67
:1036A0006F89788DCE0101960E94F50DEF81F88526
:1036B000E00FF11F10822E960FB6F894DEBF0FBEFA
:1036C000CDBFDF91CF911F910F910895CF93DF93DD
:1036D000CDB7DEB72E970FB6F894DEBF0FBECDBFC5
:1036E00085E08C838B899C899A838983AE01495EAE
:1036F0005F4F6D897E89CE01019667DA2E960FB6EF
:10370000F894DEBF0FBECDBFDF91CF910895FB01CE
:10371000238120FF12C026FD10C08F3F3FEF93078B
:1037200061F082832F7D206423832681378121509D
:10373000310937832683992708958FEF9FEF0895E6
:10374000FA01AA27283051F1203181F1E8946F93D2
:103750006E7F6E5F7F4F8F4F9F4FAF4FB1E03ED078
:10376000B4E03CD0670F781F891F9A1FA11D680F16
:10377000791F8A1F911DA11D6A0F711D811D911D49
:10378000A11D20D009F468943F912AE0269F1124BE
:103790003019305D3193DEF6CF010895462F477022
:1037A000405D4193B3E00FD0C9F7F6CF462F4F707D
:1037B000405D4A3318F0495D31FD4052419302D0DB
:1037C000A9F7EACFB4E0A695979587957795679581
:1037D000BA95C9F700976105710508959B01AC0181
:1037E0000A2E06945795479537952795BA95C9F7A8
:1037F000620F731F841F951FA01D08950F931F93C1
:10380000CF93DF93869F8001879F100D969F100DA9
:103810001124C801C6DBEC01009721F0A80160E08B
:1038200070E009D0CE01DF91CF911F910F910895E3
:10383000992788270895DC0101C06D9341505040BD
:08384000E0F70895F894FFCFB2
:1038480001F401F401F401010101881302100000E0
:103858000000000000000000000000000000000060
:10386800000001000000000000000000FFFFFFFF53
:10387800FFFFFFFF00005804200025640D0A25649F
:103888000D0A25640D0A25640D0A25640D0A0043F6
:10389800616E6E6F7420746F67676C65206E656704
:1038A8006174697665206D732E00436F6E7665725C
:1038B80074656420746F20746F67676C6520706529
:1038C80072696F643A2025642E0A00477265656E36
:1038D8002025642C2025640A000D0A48454C503ADE
:1038E8000D0A4C2F6C3A2053746172742F53746F05
:1038F80070204C6F6767696E670D0A00562F763A1D
:103908002056696577204B642C204B702C20566D0F
:103918002C2050722C20506D2C20616E6420540D88
:103928000A00522F723A20506F736974696F6E20C3
:1039380028636F756E7473290D0A00532F733A202C
:1039480053706565642028636F756E74732F736593
:1039580063290D0A00503A20496E637265617365E8
:10396800204B700D0A00703A2044656372656173DC
:1039780065204B700D0A00443A20496E63726561F8
:103988007365204B640D0A00643A204465637265D0
:10399800617365204B640D0A00743A2045786563AD
:1039A800757465207472616A6563746F72790D0A43
:1039B800000D0A0D0A2A2A2A2055534220536572FF
:1039C80069616C20496E697469616C697A65642003
:1039D8002A2A2A000D4D656E753A203C4C2C562C2F
:1039E800522C532C502C442C743E3A200025632032
:1039F800256400476F742025632025640A004F70F2
:103A08003A25632056616C3A25640D0A00436F6DB0
:103A18006D616E6420646F6573206E6F7420636FD0
:103A28006D707574652E0D0A0052583A20280000F2
:00000001FF
