:1000000061C400007EC400007CC400007AC400000B
:1000100078C4000076C4000074C4000072C40000FC
:1000200070C400006EC400006CC400000C94A722D1
:1000300068C4000078C5000064C400000C94870DFB
:10004000CAC400005EC400005CC400005AC40000C2
:100050000C9457200C944F2254C4000052C400004A
:1000600033C500004EC400004CC400004AC4000068
:100070000C9481200C94772244C4000042C40000F8
:1000800040C400003EC400003CC40000084AD73B06
:100090003BCE016E84BCBFFDC12F3D6C74319ABD57
:1000A00056833DDA3D00C77F11BED9E4BB4C3E917B
:1000B0006BAAAABE000000803F0000000000000004
:1000C0000000000000000000000000000000000030
:1000D0000000000000000000000000000000000020
:1000E0000000000000000000000000000000000010
:1000F00000000000000000000000000101010101FB
:1001000001010101010101010101010101010101DF
:1001100001010101010101010101010101010102CE
:1001200002020202020202020202020202020202AF
:100130000202020202020303030303030303030395
:100140000303030303030303040404040404040477
:100150000404040404040405050505050505050556
:100160000505050506060606060606060606060633
:10017000070707070707070707070708080808080A
:1001800008080808080909090909090909090A0AE2
:100190000A0A0A0A0A0A0A0B0B0B0B0B0B0B0B0CB5
:1001A0000C0C0C0C0C0C0C0D0D0D0D0D0D0D0E0E84
:1001B0000E0E0E0E0E0F0F0F0F00000000003E5B24
:1001C0004F5B3E3E6B4F6B3E1C3E7C3E1C183C7EA4
:1001D0003C181C577D571C1C5E7F5E1C00183C1889
:1001E00000FFE7C3E7FF0018241800FFE7DBE7FF85
:1001F00030483A060E2629792926407F0505074012
:100200007F05253F5A3CE73C5A7F3E1C1C08081CD2
:100210001C3E7F14227F22145F5F005F5F06097F10
:10022000017F006689956A606060606094A2FFA2A9
:100230009408047E040810207E201008082A1C0858
:10024000081C2A08081E101010100C1E0C1E0C3062
:10025000383E3830060E3E0E06000000000000005A
:100260005F00000007000700147F147F14242A7F1A
:100270002A122313086462364956205000080703E7
:1002800000001C2241000041221C002A1C7F1C2A65
:1002900008083E08080080703000080808080800B8
:1002A0000060600020100804023E5149453E0042B3
:1002B0007F400072494949462141494D3318141283
:1002C0007F1027454545393C4A49493141211109AB
:1002D000073649494936464949291E00001400009D
:1002E00000403400000008142241141414141400B7
:1002F0004122140802015909063E415D594E7C1203
:1003000011127C7F494949363E414141227F41419A
:10031000413E7F494949417F090909013E41415117
:10032000737F0808087F00417F41002040413F0162
:100330007F081422417F404040407F021C027F7FA3
:100340000408107F3E4141413E7F090909063E41B4
:1003500051215E7F09192946264949493203017F07
:1003600001033F4040403F1F2040201F3F40384096
:100370003F631408146303047804036159494D432F
:10038000007F4141410204081020004141417F04A7
:10039000020102044040404040000307080020548E
:1003A0005478407F284444383844444428384444EE
:1003B000287F385454541800087E090218A4A49CBD
:1003C000787F0804047800447D40002040403D00D0
:1003D0007F1028440000417F40007C047804787C32
:1003E000080404783844444438FC18242418182499
:1003F0002418FC7C08040408485454542404043F82
:1004000044243C4040207C1C2040201C3C40304088
:100410003C44281028444C9090907C4464544C44B4
:100420000008364100000077000000413608000255
:10043000010204023C2623263C1EA1A161123A407F
:1004400040207A38545455592155557941225454F5
:100450007842215554784020545579400C1E5272F0
:1004600012395555555939545454593955545458CD
:100470000000457C410002457D420001457C407DF5
:100480001211127DF0282528F07C54554500205487
:10049000547C547C0A097F4932494949323A4444E0
:1004A000443A324A4848303A4141217A3A4240205F
:1004B00078009DA0A07D3D4242423D3D4040403DF0
:1004C0003C24FF2424487E4943662B2FFC2F2BFF1E
:1004D0000929F620C0887E09032054547941000080
:1004E000447D413048484A32384040227A007A0AF6
:1004F0000A727D0D19317D2629292F2826292929BF
:100500002630484D402038080808080808080838F0
:100510002F10C8ACBA2F102834FA00007B00000856
:10052000142A142222142A1408AA005500AAAA5533
:10053000AA55AA000000FF00101010FF00141414A8
:10054000FF001010FF00FF1010F010F0141414FC46
:10055000001414F700FF0000FF00FF1414F404FC63
:10056000141417101F10101F101F1414141F001044
:100570001010F0000000001F101010101F101010BD
:1005800010F010000000FF101010101010101010CC
:10059000FF10000000FF140000FF00FF00001F100C
:1005A000170000FC04F414141710171414F404F4C6
:1005B0000000FF00F714141414141414F700F714B7
:1005C0001414171410101F101F141414F414101006
:1005D000F010F000001F101F0000001F14000000AA
:1005E000FC140000F010F01010FF10FF141414FFA2
:1005F000141010101F00000000F010FFFFFFFFFF9D
:10060000F0F0F0F0F0FFFFFF0000000000FFFF0F30
:100610000F0F0F0F3844443844FC4A4A4A347E02D4
:10062000020606027E027E02635549416338444455
:100630003C04407E201E2006027E020299A5E7A50A
:10064000991C2A492A1C4C7201724C304A4D4D307B
:100650003048784830BC625A463D3E494949007EA0
:100660000101017E2A2A2A2A2A44445F4444405137
:100670004A444040444A51400000FF0103E080FFEB
:10068000000008086B6B083612362436060F090F77
:1006900006000018180000001010003040FF010193
:1006A000001F01011E00191D1712003C3C3C3C00BC
:1006B00000000000000306090C0F1215181C1F2271
:1006C00025282B2E303336393C3F414447494C4E88
:1006D000515355585A5C5E60626466686A6C6D6F0F
:1006E00070727375767778797A7B7C7C7D7E7E7F7D
:1006F0007F7F7F7F7F7F7F7F7F7F7E7E7D7C7C7B18
:100700007A79787776757372706F6D6C6A686664E3
:1007100062605E5C5A585553514E4C494744413FC4
:100720003C393633302E2B2825221F1C1815120F6A
:100730000C09060300FDFAF7F4F1EEEBE8E4E1DE64
:10074000DBD8D5D2D0CDCAC7C4C1BFBCB9B7B4B24B
:10075000AFADABA8A6A4A2A09E9C9A9896949391A4
:10076000908E8D8B8A898887868584848382828116
:10077000818181816E616E00696E66006364696E5D
:100780006F70737578585B65666745464700616EA4
:10079000006E66696E69747900CDCCCC3D0AD723B2
:1007A0003C17B7D13877CC2B329595E6241FB14F43
:1007B0000A000020410000C84200401C4620BCBE88
:1007C0004CCA1B0E5AAEC59D7400407A10F35A00F5
:1007D000A0724E18090010A5D4E80000E87648176A
:1007E0000000E40B54020000CA9A3B000000E1F54F
:1007F00005000080969800000040420F000000A015
:100800008601000000102700000000E8030000003F
:10081000006400000000000A000000000001000069
:100820000000002C76D888DC674F0823DFC1DFAEDC
:1008300059E1B1B796E5E3E453C63AE651997696A5
:10084000E8E6C28426EB898C9B62ED407C6FFCEF6E
:10085000BC9C9F40F2BAA56FA5F490055A2AF75C9C
:10086000936B6CF9676DC11BFCE0E40D47FEF5204E
:10087000E6B500D0ED902E03009435770500808416
:100880001E080000204E0A000000C80C333333332A
:100890000F986E12831141EF8D2114893BE6551696
:1008A000CFFEE6DB18D1844B381BF77C1D901DA4CE
:1008B000BBE424203284725E228100C9F124ECA1C1
:1008C000E53D270011241FBECFEFD0E4DEBFCDBF32
:1008D00012E0A0E0B1E0E4ECF7E600E00BBF02C0FC
:1008E00007900D92A23AB107D9F715E0A2EAB2E05B
:1008F00001C01D92AC3EB107E1F70E948C180C9428
:10090000E0337ECB809100018F5F809300010895DA
:10091000A2E4B0E0EEE8F4E00C94712F23961FAE51
:100920001EAE239720D18091BA058F938091B9058F
:100930008F93E9E1F4E081818F9380818F93E7E1E8
:10094000F4E081818F9380818F93E5E1F4E08181F0
:100950008F9380818F93E3E1F4E081818F93808195
:100960008F93E1E1F4E081818F9380818F93EFE0B9
:10097000F4E081818F9380818F93EDE0F4E08181B9
:100980008F9380818F93EBE0F4E081818F9380815E
:100990008F9389E391E09F938F931F9280E48F93CD
:1009A0008E010F5F1F4F1F930F930E94BF32BC0138
:1009B000C801E2D0D8D00FB6F894DEBF0FBECDBFCD
:1009C000CE5BDF4FE4E00C948D2FECE7F0E080810C
:1009D0008F7D808308951F920F920FB60F9211247E
:1009E0000BB60F922F933F934F935F936F937F9329
:1009F0008F939F93AF93BF93EF93FF9380E00E94F9
:100A00006C1B9C012D5F31402730310528F410927A
:100A1000BA051092B90505C092509093BA0580931B
:100A2000B9058091B9059091BA0597FD079623E025
:100A3000959587952A95E1F7282F332727FD30953F
:100A40003093BA052093B90520910101309102013C
:100A50004091A2022130310541F02230310551F49C
:100A6000E42FF0E0E350FB4F04C0E42FF0E0E55743
:100A7000FC4F808347FF12C081E090E09093AA0270
:100A80008093A9021092A2022230310511F082E077
:100A900090E0909302018093010103C04F5F409367
:100AA000A202FF91EF91BF91AF919F918F917F91A2
:100AB0006F915F914F913F912F910F900BBE0F90CF
:100AC0000FBE0F901F9018951F920F920FB60F92A6
:100AD00011248F939F93AF93BF938091A302909122
:100AE000A402A091A502B091A6020196A11DB11D7C
:100AF0008093A3029093A402A093A502B093A602B0
:100B0000BF91AF919F918F910F900FBE0F901F904B
:100B1000189587FD81950895809103018F5F8093DB
:100B20000301089508951F920F920FB60F9211249A
:100B30000F900FBE0F901F901895809104018F5F4A
:100B400080930401089582E884BD84E085BD8EE42D
:100B500087BD82E080936E000895809105018F5FCC
:100B600080930501089582E00E94611E811103C0F7
:100B70000E941922F8CF0895462FBC0182E00E94FE
:100B80004D22F1CF62E270E086E591E0F5DF65E2AB
:100B900070E089E791E0F0DF68E170E08FE991E0D3
:100BA000EBDF69E170E088EB91E0E6DF60E170E0A7
:100BB00082ED91E0E1DF60E170E083EE91E0DCDF67
:100BC00060E170E084EF91E0D7DF60E170E085E004
:100BD00092E0D2DF67E170E086E192E0CDCF40E8BD
:100BE00055E260E070E082E00E946B2140E261EC3F
:100BF00075E082E00E94552062E270E08EE292E0B1
:100C0000BBDFC0DF6EE070E081E592E0B5CFA3E22C
:100C1000B0E0EDE0F6E00C94712F9E012F5D3F4FA8
:100C20003F932F939E012D5D3F4F3F932F9320E6DF
:100C300032E03F932F939F938F930E942B3360E07A
:100C400080E00E94FE1C8AA18F9389A18F932BA123
:100C5000822F992787FD90959F932F9386E692E0A8
:100C60009F938F930E94AD328AA18F9389A18F9316
:100C70002BA1822F992787FD90959F932F9381E732
:100C800092E09F938F938E010F5F1F4F1F930F93DF
:100C90000E94FC32BC01C8016FDF0FB6F894DEBFC2
:100CA0000FBECDBF8BA1883659F0873759F08536F6
:100CB00081F48091A70291E089278093A7020EC05A
:100CC00061DF0CC08091A80291E089278093A8027F
:100CD00005C06BE170E080E892E04EDF6EE070E00E
:100CE00081E592E049DFA396E4E00C948D2FA0E229
:100CF000B0E0EDE7F6E00C946F2F82E00E94511E09
:100D00009091E1052091AB023091AC028917D9F0A6
:100D1000A1E0B0E0AC0FBD1FA20FB31FE92FF0E0C0
:100D2000EF53FA4F80818C932F5F3F4F3093AC028B
:100D30002093AB029F3119F41092E105DECF9F5F43
:100D40009093E105DACF21153105C9F12130310544
:100D500019F489818A3079F18E010F5F1F4FF801F4
:100D6000E20FF31F108261E080E00E94FE1C8CE91C
:100D700092E00E94841C6091AB027091AC028827C3
:100D800077FD8095982F0E94DD1C89E20E94041C4B
:100D900078018091AB029091AC029701201B310B3E
:100DA0002817390734F4F70181917F010E94041C50
:100DB000F0CFC8012CDF1092AC021092AB02A096CB
:100DC000E6E00C948B2F809106018F5F80930601E3
:100DD00008952F923F924F925F926F927F928F92DF
:100DE000AF92BF92CF92DF92EF92FF920F931F9339
:100DF000CF93DF93CDB7DEB7182FD62EF42EB22EB9
:100E0000809382038C89819FC00111242C01440CA2
:100E1000551C480E591E1201882011F0220C331C5B
:100E2000C1010E94B32F3C019093A3058093A205BA
:100E3000009709F474C0A10160E070E00E94E13104
:100E4000882019F0460C571C01C023015092A505BB
:100E50004092A405D0927B03F0925C04B092B3055B
:100E600000937E05E092A805C0927D05A092B00592
:100E700021E0822F01C0880FEA94EAF780937C0377
:100E800088E290E09093E5028093E402322F01C063
:100E9000330FCA94EAF7309381039093BC05809393
:100EA000BB05822F01C0880FAA94EAF78093AB0597
:100EB000EBE2F0E0F0938403E0938303822F01C020
:100EC000880FDA94EAF780938003F0936A03E09343
:100ED0006903822F01C0880FFA94EAF78093800596
:100EE000F093AD05E093AC05822F01C0880FBA9452
:100EF000EAF780937D03F093AF05E093AE0501C060
:100F0000220F0A95EAF72093B80583E080935B04EB
:100F100011501093B2021092660310927F05DF9178
:100F2000CF911F910F91FF90EF90DF90CF90BF90E6
:100F3000AF908F907F906F905F904F903F902F90E9
:100F4000089510927F0580917F05E1E0F0E0E81BB5
:100F5000F109EE0FFF1FEE55FA4F808191819093BA
:100F60008603809385039FB7F8948AB120917C0310
:100F7000822B8AB99FBF9BB180917C038095892386
:100F80008BB99FB7F89487B120918103822B87B9E1
:100F90009FBFE091E402F091E5029081809181038E
:100FA0008095892380839FB7F89487B12091AB0502
:100FB000822B87B99FBFE091BB05F091BC05808172
:100FC0009091AB05892B80839FB7F8948AB12091CB
:100FD0008003822B8AB99FBFE0918303F091840341
:100FE0009081809180038095892380839FB7F894B6
:100FF0008AB120918005822B8AB99FBFE091690355
:10100000F0916A0390818091800580958923808387
:101010009FB7F8948AB120917D03822B8AB99FBF34
:10102000E091AC05F091AD05908180917D038095B4
:10103000892380839FB7F8948AB12091B805822BC9
:101040008AB99FBFE091AE05F091AF059081809184
:10105000B8058095892380838CEF81B912B882E02E
:101060008093800089E18093810084E690E09093F2
:10107000870080938600EFE6F0E0808181608083C6
:1010800078940895242F267030E035952795477081
:1010900094E0499FA0011124242B352B482F50E0C8
:1010A000542F44275295550F507E242B352B962FC5
:1010B0009770392B90E2699FB00111247727262B76
:1010C000372B867090E0982F8827990F990F822BE5
:1010D000932B089543FB222720F930E04F7050E016
:1010E000440F551F242B352B482F50E0542F4427F5
:1010F0005295507F242B352B462F4F7090E8499FF7
:10110000A0011124242B352B6C7098E0699FB0014D
:101110001124262B372B887090E0982F8827822B5C
:10112000932B08956C7F90E2699FB001112446953E
:1011300046954695642B887F90E0982F8827990FD5
:10114000990F990F862B972B0895222399F1E82F59
:10115000F0E0E754FF4F8491E62FF0E0E754FF4FB3
:101160005491E42FF0E0E754FF4FE49190E8599F49
:10117000B0011124282F30E0322F22273295307F02
:10118000622B732B2E2F30E0220F331F622B732B19
:10119000E695E695E6956E2B887090E0982F882767
:1011A000682B792B5C7088E0589FF00111246E2B1E
:1011B0007F2B12C06C7F90E2699FB001112446958D
:1011C00046954695642B887F90E0982F8827990F45
:1011D000990F990F682B792BCB010895CF92DF924D
:1011E000EF92FF920F93CF93DF93D42FC22F20E083
:1011F00036E040E050E00E94472F97FF03C07A5F3F
:101200008F4F9F4FA62FC72ED82EE92EFF24E7FC25
:10121000FA9422E0C216D104E104F10449F174F415
:10122000C114D104E104F104C1F0CA94CD28CE2840
:10123000CF28D1F46095A0E07FEF1CC023E0C21658
:10124000D104E104F10461F044E0C416D104E104E6
:10125000F10451F4AFEF70E00DC0762FA0E006C0AE
:10126000762F7095AFEF05C0A09570E06FEF02C0CC
:101270007FEF60E04D2F50E04F5F5F4F8FEF90E0CA
:10128000FC01E61BF109E49F9001E59F300DF49FFE
:10129000300D1124632F6095FC01E71BF109E49FD9
:1012A0009001E59F300DF49F300D1124E32FE09560
:1012B0008A1B9109849F9001859F300D949F300D6A
:1012C0001124432F40952C2F30E02F5F3F4F70E0CB
:1012D0008E2F90E050E0629FF001639FF00D729FAF
:1012E000F00D11240023F1F0EF2FFF27E754FF4FFB
:1012F000A491829FB001839F700D929F700D112465
:10130000E72FFF27E754FF4F8491429FB001439F8F
:10131000700D529F700D1124E72FFF27E754FF4FE8
:10132000E49117C0AF2FA295AF70829FB001839F49
:10133000700D929F700D1124872F82958F70429FA0
:10134000B001439F700D529F700D1124E72FE2955D
:10135000EF7090E8899F900111244A2F50E0542F9C
:1013600044275295507F242B352B4E2F50E0440FAD
:10137000551F242B352BE695E695E6952E2BA87068
:101380004A2F50E0542F4427242B352B8C7048E0F3
:10139000849FC0011124822B932BDF91CF910F9159
:1013A000FF90EF90DF90CF900895A0E0B0E0EBEDDC
:1013B000F9E00C946B2FFA0197FD20C10091A9056B
:1013C0001091AA05801791070CF018C177FD16C17E
:1013D0002091B6053091B705621773070CF00EC166
:1013E0002091A105A091A605B091A705223061F03A
:1013F0002330E1F0213021F59D0121503109261BD8
:10140000370BBC01C9011CC09D0121503109A90144
:10141000481B590BCA012091670330916803215082
:101420003109A901461B570BBA010AC02091670375
:101430003091680321503109281B390BCB01B901C8
:10144000EF01CD2FDD27C295CF705C2F7F01EE0C11
:10145000EF2CEE1CFF08F1942E2D2F70F22EF69536
:10146000E7954E2F4F70A42E2091820330E0C1707B
:10147000DD274E2D4170B42E4E2F4170E42EE091A9
:101480007F05F0E0EE0FFF1FEE55FA4F621773076E
:101490000CF05DC06A9F60016B9FD00C7A9FD00CEE
:1014A00011249601220F331F2C0D3D1D280F391FCB
:1014B0000190F081E02DE20FF31FD801AA0FBB1FAE
:1014C000AE0FBF1F8C918C7F8C938081CD2B11F040
:1014D000826001C08D7F8083BB2059F0A091A90557
:1014E000B091AA05AA0FBB1FAE0FBF1F8C918260DF
:1014F0008C93EE2059F0A091A905B091AA05AA0FEE
:10150000BB1FAE0FBF1F8C9181608C9383E090E076
:1015100062E020812377362F352309F0206820836D
:10152000262F2F2119F0208128602083262F2A21A1
:1015300019F02081246020832091A6053091A70511
:10154000E20FF31F660F0197009719F757C0621B50
:10155000730B6A9F80016B9F100D7A9F100D1124F1
:101560009801220F331F200F311F280F391F0190C0
:10157000F081E02DE20FF31F80818C7F8083A091AA
:10158000A905B091AA05AE0FBF1F8C91CD2B11F00C
:10159000816001C08E7F8C93BB2019F080818160B7
:1015A0008083A091A905B091AA05AE0FBF1F8C91B1
:1015B000EE2011F0826001C08D7F8C9383E090E07B
:1015C00062E020812F78362F352309F020612083B7
:1015D000262F2F2119F0208120642083262F2A21F5
:1015E00019F02081206220832091A6053091A70563
:1015F000E20FF31F660F0197009719F7CDB7DEB71B
:10160000EAE00C94872F9C01215031092E3F3F4F77
:10161000E0F0E0917F05609182034091A90550912F
:10162000AA05649F9001659F300D1124A901440F04
:10163000551F420F531FF0E0EE0FFF1FEE55FA4FFC
:10164000BC01808191810C94E13154C5E0917F050A
:10165000F0E0EE0FFF1FEE55FA4F80819181089563
:10166000CF93C82F4091A2055091A3052091A405C6
:101670003091A50542175307A9F181E080936603D5
:1016800080916603882329F081E090E00E94EE2299
:10169000F7CFCC2339F160917F05A0917F05B0E0B1
:1016A000AA0FBB1FAE55BA4F409182032091A905E6
:1016B0003091AA05429FC001439F900D1124AC01B7
:1016C000440F551F480F591FE1E0F0E0E61BF109F8
:1016D000EE0FFF1FEE55FA4F608171818D919C9145
:1016E0000E94D831CF9108951F93CF93DF93E0915B
:1016F000BB05F091BC0580819091AB05892B80835F
:10170000E091E402F091E502808190918103892BC0
:10171000808330918203393018F088EC90E002C069
:1017200080E991E020915B0488589F4F02C0880FA8
:10173000991F2A95E2F7CC9720915B042F5F2093A5
:101740005B04243048F110925B042091B2022F5FB9
:101750002093B202231708F470C01092B2022091B5
:101760006603222341F030917F0521E0231B209363
:101770007F051092660320917F05E1E0F0E0E21B17
:10178000F109EE0FFF1FEE55FA4F208131813093A2
:1017900086032093850351C020915B04213009F01A
:1017A0004CC03091B202E0918303F0918403209108
:1017B000800330FF04C03081322B308304C030817D
:1017C0002095232320833091B202E0916903F091A8
:1017D0006A032091800531FF04C03081322B3083B1
:1017E00004C030812095232320833091B202E09100
:1017F000AC05F091AD0520917D0332FF04C030812E
:10180000322B308304C03081209523232083209104
:101810008203293090F03091B202E091AE05F09150
:10182000AF052091B80533FF04C03081322B3083DF
:1018300004C03081209523232083E0918503F0911B
:101840008603909387008093860010928500109203
:101850008400A091BB05B091BC059C918091AB0523
:10186000809589238C93A091E402B091E5029C912C
:1018700080918103809589238C93DBB1C0917C0397
:10188000CD2B80915B04811102C010E00DC101904D
:1018900002B8CBB9DBB9019002B8CBB9DBB9019082
:1018A00002B8CBB9DBB9019002B8CBB9DBB9019072
:1018B00002B8CBB9DBB9019002B8CBB9DBB9019062
:1018C00002B8CBB9DBB9019002B8CBB9DBB9019052
:1018D00002B8CBB9DBB9019002B8CBB9DBB9019042
:1018E00002B8CBB9DBB9019002B8CBB9DBB9019032
:1018F00002B8CBB9DBB9019002B8CBB9DBB9019022
:1019000002B8CBB9DBB9019002B8CBB9DBB9019011
:1019100002B8CBB9DBB9019002B8CBB9DBB9019001
:1019200002B8CBB9DBB9019002B8CBB9DBB90190F1
:1019300002B8CBB9DBB9019002B8CBB9DBB90190E1
:1019400002B8CBB9DBB9019002B8CBB9DBB90190D1
:1019500002B8CBB9DBB9019002B8CBB9DBB90190C1
:1019600002B8CBB9DBB9019002B8CBB9DBB90190B1
:1019700002B8CBB9DBB9019002B8CBB9DBB90190A1
:1019800002B8CBB9DBB9019002B8CBB9DBB9809111
:10199000A9059091AA058034910509F080C00190B5
:1019A00002B8CBB9DBB9019002B8CBB9DBB9019071
:1019B00002B8CBB9DBB9019002B8CBB9DBB9019061
:1019C00002B8CBB9DBB9019002B8CBB9DBB9019051
:1019D00002B8CBB9DBB9019002B8CBB9DBB9019041
:1019E00002B8CBB9DBB9019002B8CBB9DBB9019031
:1019F00002B8CBB9DBB9019002B8CBB9DBB9019021
:101A000002B8CBB9DBB9019002B8CBB9DBB9019010
:101A100002B8CBB9DBB9019002B8CBB9DBB9019000
:101A200002B8CBB9DBB9019002B8CBB9DBB90190F0
:101A300002B8CBB9DBB9019002B8CBB9DBB90190E0
:101A400002B8CBB9DBB9019002B8CBB9DBB90190D0
:101A500002B8CBB9DBB9019002B8CBB9DBB90190C0
:101A600002B8CBB9DBB9019002B8CBB9DBB90190B0
:101A700002B8CBB9DBB9019002B8CBB9DBB90190A0
:101A800002B8CBB9DBB9019002B8CBB9DBB9019090
:101A900002B8CBB9DBB9019002B8CBB9DBB9F0938E
:101AA0008603E09385032FC0212F30E08091A905A4
:101AB0009091AA052817390734F5A901480F591F35
:101AC000DF01A40FB51F6C91A0E16A9FB001112442
:101AD0006073DF01A80FB91FA40FB51F8C9144E0FC
:101AE000849FC00111248C70682BDF01A20FB31FEB
:101AF0008C91A0E48A9FC0011124682B62B9CBB9F4
:101B0000DBB91F5FD1CFDF91CF911F9108951F9255
:101B10000F920FB60F9211240BB60F922F933F9393
:101B20004F935F936F937F938F939F93AF93BF93E5
:101B3000EF93FF93D9DD86B386BBFF91EF91BF9101
:101B4000AF919F918F917F916F915F914F913F9155
:101B50002F910F900BBE0F900FBE0F901F901895F6
:101B6000809107018F5F8093070108959093A705E7
:101B70008093A60570936803609367039093AA050A
:101B80008093A9057093B7056093B6051092A105DF
:101B90001092B2051092B10510927F0310927E034D
:101BA00021E02093B5058FEF9FEF9093BE058093C2
:101BB000BD059093C0058093BF052093B40508959B
:101BC000A6E0B0E0E6EEFDE00C94632F7C016B0133
:101BD0005E834D83890188248394912C841A950A0D
:101BE0002A01519441945108440C551CBA016C0DC2
:101BF0007D1DA901C701D9DBB6012D813E81621B84
:101C0000730BA801C701D1DBA801B6018D819E81AC
:101C10008E0D9F1DCADBA801B601C701ED81FE81B3
:101C20008E1B9F0BC2DBA12CB12C21E030E03A834C
:101C300029832D813E81A216B3060CF05EC097FC6D
:101C40000AC08D819E8101979E838D8392E0490E0B
:101C5000511C840C951CEFEFAE1ABE0A29813A8103
:101C60002E5F3F4F3A832983820E931E15012E0C5F
:101C70003F1CA8016D807E806C0C7D1CB301C101EE
:101C800094DB97012A193B09A801B301C9012B83F1
:101C90003C838BDBA80136018D819E81681A790A0D
:101CA000B301C10182DBA801B3012B813C81C901D1
:101CB0007CDB35016C0C7D1CA801B3012D803E80BE
:101CC0002E0C3F1CC10171DBA801B3019701ED810E
:101CD000FE812E1B3F0BC9012B833C8366DB360143
:101CE0006A187B08A801B301C1015FDBA801B30139
:101CF0002B813C81C90159DB9CCF2696E2E10C94F3
:101D00007F2FA0E0B0E0E7E8FEE00C94632F6C01C9
:101D10005B01EA0188248394912C841A950A662435
:101D20007724641A750A660C771CE12CF12C822F3B
:101D30008470582E822F8270482E822F8870382E01
:101D40002170222EEC16FD060CF05BC097FC06C03D
:101D5000219782E0680E711C860C971C8FEFE81AA1
:101D6000F80AC701880F991F0196880E991E552001
:101D700081F0A801B5016C0F7D1FC7018C0D9D1D61
:101D800014DBA801B7016A0D7B1DC6018C0F9D1FD6
:101D90000CDB442081F0A801B5016C1B7D0BC70151
:101DA0008C0D9D1D02DBA801B5016E197F09C601CE
:101DB0008C0F9D1FFADA332081F0A801B7016A0D5C
:101DC0007B1DC6018C1B9D0BF0DAA801B5016C0FC1
:101DD0007D1FC6018E199F09E8DA222009F4B2CFCF
:101DE000A801B5016E197F09C6018C1B9D0BDDDAB8
:101DF000A801B5016C1B7D0BC6018E199F09D5DAB0
:101E0000A1CFCDB7DEB7E2E10C947F2FA0E0B0E028
:101E1000ECE0FFE00C94632FEC017B016A011801F8
:101E2000A901461B570B57FF03C051954195510916
:101E3000C6018C1B9D0B97FF03C09195819591095D
:101E400044244394512C8417950714F0412C512CB1
:101E50004114510451F09C2D8D2D6901292F382FEB
:101E60009C2F8D2FE701E92EF82ECC16DD0654F4B9
:101E70009E2D8F2D7901292F382F9C2F8D2FE60134
:101E8000C92ED82E86010C1B1D0B5901AE18BF0898
:101E9000B7FE03C0B194A194B108380117FF03C085
:101EA0008FEF681A780A75946794E216F30624F4A3
:101EB00088248394912C14C088248A94982C10C070
:101EC000A1014114510481F0BE01C7016EDA6A1804
:101ED0007B0877FE04C0E80CF91C600E711E219689
:101EE000CC16DD066CF703C0B701CE01EFCFCDB73E
:101EF000DEB7E2E10C947F2F0F931F93460F571F1D
:101F00004150510989019A01AC0180DF1F910F9165
:101F10000895A4E0B0E0EFE8FFE00C94632F6C01BB
:101F20005B015C834B83280188248394912C841A61
:101F3000950A3A01719461947108660C771C12013C
:101F400001E010E0322F3170398322702A83C801FA
:101F500001972B813C81821793070CF05BC097FCA3
:101F60000AC08B819C8101979C838B8392E0690ED0
:101F7000711C860C971CC801880F991F0196880E4A
:101F8000991EE981EE23F1F04B815C81440F551FCE
:101F90004F5F5F4F440D551D9701B5018B819C81AB
:101FA000681B790BC8018C0D9D1DA6DF9701A1014F
:101FB0004D5F5F4FB501601B710B8B819C818C0D58
:101FC0009D1D9ADF9A819923F9F04B815C81440F22
:101FD000551F4F5F5F4F440D551D9701B501EB81B4
:101FE000FC816E1B7F0BC601801B910B85DF970167
:101FF000A1014D5F5F4FB501601B710BC601EB8105
:10200000FC818E1B9F0B78DF0F5F1F4FF2E02F0EBE
:10201000311C9DCF2496E2E10C947F2FA0E0B0E02C
:10202000E4E1F0E10C946B2F6C015B01EA017901B2
:10203000440F551F4F5F5F4F6C1B7D0BC6015CDF6C
:1020400000E010E023E0AE01B501C60162DFCDB7CC
:10205000DEB7EAE00C94872F0F931F93480F591FA8
:102060004150510989019B01D1DE1F910F910895C3
:10207000A0E0B0E0EEE3F0E10C946B2F7C01EB010B
:102080005A0169019801E8DFBE016C0D7D1D6150A8
:1020900071099801A501C701DFDF9801A601BE0102
:1020A000C7012ADFC7018A0D9B1D9801A601BE0149
:1020B000019722DFCDB7DEB7EAE00C94872FA0E0CE
:1020C000B0E0E5E6F0E10C946B2F6B017A01590169
:1020D000EC01E80EF91ECE15DF053CF49801A501D0
:1020E000B601CE0109DF2196F6CFCDB7DEB7EAE023
:1020F0000C94872F0F931F932091B6053091B7054D
:102100004091A9055091AA058C0160E070E080E043
:1021100090E0D5DF1F910F910895A4E0B0E0E3E9CE
:10212000F0E10C94632F2C013B011A0159011C832F
:102130000B83119501951109000F111F4A01800EA3
:10214000911ECB80DC80C40CD51C9701A401C60174
:1021500083DFC3018A0D9B1D9A838983BC01615073
:1021600071099701A401C60177DFA00EB11EEB81B2
:10217000FC816E0E7F1E9701A501B301C201BCDE7A
:10218000420C531C9701A501B301C2010197B4DEB3
:10219000870121E04B815C81B301C601B2DD8B81F7
:1021A0009C81481A590A91E0491A510822E04B8152
:1021B0005C81B301C201A5DDA980BA80EB81FC81FD
:1021C000AE1ABF0AF1E0AF1AB10824E04B815C817E
:1021D000B501C20196DD28E04B815C81B501C601E5
:1021E00090DD2496E2E10C947F2FA0E0B0E0EBEFCD
:1021F000F0E10C94632F2C013B011A016901E80105
:102200005701EE24FF24E01AF10AEE0CFF1C4C01EA
:10221000800E911E4E0D5F1D85019601C4014FDF9A
:10222000CE0CDF1C81E0C81AD1086C0E7D1EC201E5
:10223000820D931D8C1B9D0B7501860121E0AE0163
:10224000B301019766DE22E0AE01B301C40161DE95
:10225000CDB7DEB7E2E10C947F2FA0E0B0E0E3E37E
:10226000F1E10C94652FEC015B014A013901280171
:102270008601CCDD9701A201B301C401C7DD950140
:10228000AE01B701C201C2DDCDB7DEB7E0E10C940B
:10229000812FACE2B0E0EFE4F1E10C94632F5C013C
:1022A0004B015CA74BA73901C8011701DE8ACD8A13
:1022B000261737074CF4292D4301662E722E3A2D2E
:1022C0002B2D5A013BA72CA7261437045CF4362D7E
:1022D000272D3101232E322E3BA52CA59CA78BA7A1
:1022E000832F922F681479045CF4382D292D430133
:1022F000632E722E3A2D2B2DABA4BCA43BA72CA78A
:102300002BA53CA582149304F1F42A153B0534F067
:102310003BA52CA5BCA6ABA6A32EB22E4BA55CA5B7
:102320008417950734F0A816B9060CF45C018BA548
:102330009CA5A501481B590B4F5F5F4F2D893E8916
:10234000B4018ADE28C12A193B09A3014819590999
:10235000BC016A197B097A836983D101A819B9097B
:10236000BE83AD83FC016BA57CA5E61BF70BFA874A
:10237000E987C10186199709988F8F8B63016214D1
:10238000730419F091E0C91AD1088401198A1A8AD4
:102390001B8A1C8A1D861E861F86188ABA018827FA
:1023A00077FD8095982F6B8F7C8F8D8F9E8F8D8181
:1023B0009E81AA2797FDA095BA2F8F8F98A3A9A3D6
:1023C000BAA3A901662757FD6095762F4BA35CA39E
:1023D0006DA37EA369817A81882777FD8095982FE8
:1023E0006FA378A789A79AA7C016D1060CF44FC08F
:1023F0006D857E858F8598892B8D3C8D4D8D5E8D6D
:102400000E94472F7501E20EF31E69897A898B8934
:102410009C892F8D38A149A15AA10E94472F2501DF
:10242000420E531E8D859E85AF85B8892BA13CA198
:102430004DA15EA1820F931FA41FB51F8D879E879C
:10244000AF87B88B49895A896B897C898FA198A5F8
:10245000A9A5BAA5480F591F6A1F7B1F498B5A8B24
:102460006B8B7C8B4E145F042CF0342D252D2701B3
:10247000E32EF22EA701441955094F5F5F4F2D89B6
:102480003E89B801C201E8DD0F5F1F4FADCFC80123
:1024900086199709A985BA85A89F2001A99F500C84
:1024A000B89F500C1124662457FC6094762CC80108
:1024B00088199909E981FA81E89F6001E99FD00CA8
:1024C000F89FD00C1124EE24D7FCE094FE2C2F8929
:1024D000388D442737FD4095542F2F8B388F498FE7
:1024E0005A8F4D815E81662757FD6095762F4D830B
:1024F0005E836F837887BD01882777FD8095982F4D
:1025000069877A878B879C87CF01AA2797FDA0953B
:10251000BA2F89839A83AB83BC8320163106DCF102
:10252000C301B2012F89388D498D5A8D0E94472FE2
:102530008BA49CA4820E931EC701B6012D813E81FF
:102540004F8158850E94472FC501820F931F29850F
:102550003A854B855C85420E531E641E751E49816B
:102560005A816B817C81C40ED51EE61EF71E88152C
:1025700099052CF0382F292FC401832E922EA40107
:10258000481B590B4F5F5F4F2D893E89B80164DDB1
:102590000F5F1F4FC2CFAC96E2E10C947F2FA8E0F3
:1025A000B0E0E5EDF2E10C94632F2C011B014A0130
:1025B0005901C901079697FF02C0C9010E969C01F7
:1025C00053E0359527955A95E1F73A832983612C95
:1025D000712CC12CD12C20E830E0C016D1060CF0B3
:1025E00044C018861F82C601820D931D9C838B8375
:1025F000EF81F885EA15FB0584F5EF81F885F7FD95
:10260000379643E0F595E7954A95E1F7E60DF71D16
:10261000E80DF91DE491F0E08F8198858770992786
:10262000A90102C0559547958A95E2F7E423F52361
:10263000EF2B69F0A7016B817C818F819885840DD8
:10264000951D2D833E830E94D5093E812D818F816A
:102650009885019698878F83CBCFFFEFCF1ADF0A3B
:1026600049815A81640E751EB8CF2896E2E10C9418
:102670007F2FA8E0B0E0EFE3F3E10C94632F3C017F
:102680005B015C834B8349011E830D831701260187
:10269000C901079697FF02C0C9010E969C0173E01D
:1026A000359527957A95E1F73A8329837501C12CF1
:1026B000D12CC7018A199B092D813E81821793076E
:1026C0000CF040C0830118861F822F8138852815A1
:1026D000390584F5EF81F885F7FD379663E0F595C8
:1026E000E7956A95E1F7EC0DFD1D8B819C81E80F64
:1026F000F91FE491F0E08F81988587709927A0E811
:10270000B0E002C0B595A7958A95E2F7EA23FB23CE
:10271000EF2B11F0A10101C0A201B701C8010E9475
:10272000D5092F8138852F5F3F4F38872F830F5F63
:102730001F4FCBCF3FEFE31AF30A29813A81C20E34
:10274000D31EB7CF2896E2E10C947F2FA8E0B0E02B
:10275000ECEAF3E10C94632F2C011B014A015901AF
:10276000C901079697FF02C0C9010E969C01B3E00C
:1027700035952795BA95E1F73A832983612C712C19
:10278000C12CD12C28E030E0C016D1060CF042C09C
:1027900018861F82F601E20DF31DFC83EB83EF81A7
:1027A000F885EA15FB0574F5EF81F885F7FD379696
:1027B000A3E0F595E795AA95E1F7E60DF71DE80D7D
:1027C000F91DE491F0E08F819885B9010E94122FE4
:1027D00002C0F595E7958A95E2F7E0FF0DC0A701E5
:1027E0006B817C818F819885840D951D2D833E831F
:1027F0000E94D5093E812D818F8198850196988709
:102800008F83CDCFFFEFCF1ADF0A89819A81680EBF
:10281000791EBACF2896E2E10C947F2FA8E0B0E0B1
:10282000E4E1F4E10C94632F2B013C832B831E83A2
:102830000D83EA822091A9053091AA05821793079A
:102840000CF075C02091B6053091B705621773077B
:102850000CF06DC0CE2CD12C9C0156E0E59E200DD5
:10286000311D1124121613060CF061C0960153E0BD
:10287000220F331F5A95E1F7240D351D121613064A
:102880000CF055C0E5E04E9F5001112498878F83CE
:102890007C011982950127543E4F5901A81AB90AA3
:1028A0003981353031F0EF81F885EA0DFB1D349028
:1028B00001C0312C3201420188E0282E30FE09C0CF
:1028C0005A81513019F44B815C810EC00B811C81FF
:1028D00013C08D819E81EB81FC818E179F0789F04B
:1028E000FA81F13039F4AC01B4018F8198850E94EE
:1028F000D50907C00D811E819601A601B301C7014C
:10290000DEDB36942A946C0C7D1C2FEF821A920A1F
:102910002110D4CF39813F5F3983EC0CFD1C8F81AE
:102920009885019698878F83363009F0B9CF28961D
:10293000E2E10C947F2FEF920F931F938A3061F4A2
:102940002091B50580917E0390917F0338E0239F0D
:10295000800D911D112446C08D3009F44BC00091AB
:10296000BD051091BE052091BF053091C005609155
:102970007E0370917F03E090B505482F8091B105EB
:102980009091B2054BDF2091B505422F50E0809128
:10299000B1059091B20536E0239F800D911D112461
:1029A0009093B2058093B1052091B405222311F1D3
:1029B0006AEF64039001659F300D11246091A905B1
:1029C0007091AA05260F371F281739079CF463E07A
:1029D000440F551F6A95E1F780917E0390917F0324
:1029E000840F951F90937F0380937E031092B2050E
:1029F0001092B1051F910F91EF9008959093B20539
:102A00008093B10570937F0360937E0308958111D5
:102A100001C081E08093B50508959093BE05809331
:102A2000BD059093C0058093BF0508959093C005A0
:102A30008093BF057093BE056093BD050895809394
:102A4000B40508958091A105089583708093A10530
:102A50002091A6053091A705409167035091680326
:102A6000813059F0833049F03093AA052093A905AD
:102A70005093B7054093B60508955093AA05409327
:102A8000A9053093B7052093B60508958091A9054F
:102A90009091AA0508958091B6059091B705089583
:102AA0000895809108018F5F8093080108950F9326
:102AB0001F9347E067E087E00E944208AC0160E0B6
:102AC00070E080E090E00E94D50984EF91E00E94E0
:102AD000EE2240E067E080E00E9442088C0120E2A4
:102AE00030E040E250E060E070E080E090E0E7DA63
:102AF00084EF91E00E94EE2240E067E087E00E94D0
:102B000042088C0120E230E040E250E060E070E0FA
:102B100080E090E0ADDA84EF91E00E94EE2240E0A8
:102B200060E087E00E9442088C012FE130E04FE135
:102B300050E060E070E080E090E068D940E060E064
:102B400087E00E9442088C012FE130E040E050E035
:102B500060E070E08FE190E059D984EF91E00E944D
:102B6000EE2247E060E080E00E9442089C014AE0DB
:102B700050E06AE070E08AE090E022D884EF91E0D3
:102B80000E94EE2247E060E087E00E9442089C013C
:102B90004AE050E065E170E085E190E03FDA84EFE3
:102BA00091E00E94EE2240E060E080E00E94420856
:102BB0000E94030B60E070E081E090E01FDF81E0A5
:102BC00026DF80E03CDF40E060E087E00E944208D2
:102BD00024DF82E4B0DE40E064E087E00E94420847
:102BE0001CDF81E4A8DE40E067E087E00E94420845
:102BF00014DF82E5A0DE40E067E084E00E94420846
:102C00000CDF82E598DE40E067E080E00E94420849
:102C100004DF89E590DE69E070E081E090E0EEDEBF
:102C200047E067E080E00E944208F7DE82E583DE4D
:102C300047E064E080E00E944208EFDE8FE47BDE44
:102C400047E060E080E00E944208E7DE83E473DE54
:102C500047E060E084E00E944208DFDE8BE46BDE48
:102C600044E060E087E00E944208D7DE83E563DE4F
:102C700084EF91E00E94EE2240E060E080E00E945C
:102C800042080E94030B1F910F9108952F923F92CB
:102C90004F925F926F927F928F929F92AF92BF926C
:102CA000CF92DF92EF92FF920F93CF93DF9300D0FA
:102CB00000D000D0CDB7DEB7212C312CE7DE2816AE
:102CC00039060CF0CDC0B101882777FD8095982F8B
:102CD0000E94DF289B01AC0160E070E088E791E48E
:102CE0000E9479276B017C011E821D82DC01CB01D1
:102CF000B05889839A83AB83BC83CDDE2D813E811E
:102D0000281739070CF0A8C0AD81BE81BD01882706
:102D100077FD8095982F0E94DF289B01AC0160E031
:102D200070E088E791E40E9479272B013C019B0128
:102D3000AC010E94BF294B015C01A7019601C701AC
:102D4000B6010E94BF299B01AC01C501B4010E94DC
:102D50007A274B015C0120E030E248E853E40E940E
:102D6000402818160CF46AC0A301920169817A8187
:102D70008B819C810E94ED272BED3FE049E450E4DC
:102D80000E947A2720E030E040EC54E40E94BF2902
:102D90002BED3FE049EC50E40E9444280E94AC280F
:102DA0002B013C01C501B4010E94262A4B015C01A4
:102DB00020E030E048E751E40E94B42920E030E010
:102DC00048E751E41816ECF4C501B4010E947927D4
:102DD0009B01AC0160E070E080E89FE30E947927EE
:102DE00020E030E04FE753E40E94BF2920E030E0CC
:102DF00040E05FE30E947A270E94AC28262F4FEF25
:102E000014C0C501B4010E94442820E030E04FE71F
:102E100053E40E94BF2920E030E040E05FE30E94DD
:102E20007A270E94AC28462F2FEFB201882777FD22
:102E30008095982F01E00E94EE0802C080E090E0AB
:102E4000AC01B1018D819E810E94D509ED81FE8189
:102E50003196FE83ED8351CF3FEF231A330A2ECFF5
:102E600026960FB6F894DEBF0FBECDBFDF91CF918F
:102E70000F91FF90EF90DF90CF90BF90AF909F9019
:102E80008F907F906F905F904F903F902F9008951C
:102E90008602B001112486E0759567958A95E1F761
:102EA000862F817075956795860F0895AFE0B0E025
:102EB000ECE5F7E10C94632F4C013B0138872F833D
:102EC00021E030E002C0220F331F4A95E2F73F872E
:102ED0002E87213061E036070CF0D8C0B90161506F
:102EE000710980E090E021E030E0621773073CF464
:102EF00027E030E03A83298301E010E070C04E857E
:102F00005F8555954795FC01E40FF51F6E177F0708
:102F1000C4F3FA0131978E239F23840F951F28173E
:102F20003907A4F4D401A20FB31F4C91F401E80FA8
:102F3000F91F50815C934083D301A20FB31F4C91C2
:102F4000F301E80FF91F50815C9340832F5F3F4FDF
:102F5000CCCF44244394512C2F813885232B11F05E
:102F6000412C512C1801220C331CE12CF12CA7010F
:102F7000098002C0440F551F0A94E2F7FA01EC5091
:102F8000F94F25913491922F4C54594FFA014591A4
:102F900054916F817885672B09F441954114510450
:102FA00019F0922F959545955301AE0CBF1C640105
:102FB000CE0CDF1C9601281939096E857F852617EE
:102FC0003707A4F07FEFE71AF70AE016F1067CF264
:102FD00029813A81215031093A83298381012E8543
:102FE0003F85021713070CF4B4CF4DC09601200F94
:102FF000311F3C832B83F9013081632F892F3A875E
:103000004D879C8745DF282FB501600F711F7E8398
:103010006D83FB015081652F4D85842F2B87598748
:1030200037DF2B85281B5985652F9C85892F2B879A
:103030002FDF582F3A85632F4D85842F598728DF3E
:103040005985580FF6016081F50130812B854D853A
:103050009C854114510411F065953595862F821B8E
:10306000EB81FC818083832F851BED81FE81808332
:10307000260FF6012083530FF5015083C20CD31C99
:10308000A20CB31C97CF80E090E002C08FEF9FEFBF
:103090002F96E2E10C947F2FA0E0B0E0E2E5F8E1AA
:1030A0000C946B2FEC018B015A0101501109EE2495
:1030B000E394F12C002E02C0EE0CFF1C0A94E2F700
:1030C0006C01CE0CDF1C4115510531F09A01A801AD
:1030D000BC01C601EBDE02C080E090E0D601FE013B
:1030E00031969F012C1B3D0B2E153F053CF42C9176
:1030F00030813C93208312963296F3CFA114B10411
:1031000031F420E030E0A801BE01C601CFDECDB72A
:10311000DEB7EAE00C94872FCF93DF9300D0CDB7D2
:10312000DEB7BDD50E94A3050E94EF050E94E5040D
:10313000D6D3789460E270E080E290E00E94B60D11
:1031400080E28F93812CAA24A394C12C05E0E02E69
:1031500003E022E040E061E080E10E94E9060E9495
:10316000A1070F90F12C8AE0E82E94E1D92E8091EE
:10317000A9029091AA02892B09F4C8C11092AA024F
:103180001092A9021A821982809101019091020184
:1031900020E030E047E050E0029759F46BE873E03C
:1031A00086EE92E083DE80E890E001970097E9F7F1
:1031B00005C06DEF74E086EE92E078DE1A82198227
:1031C00089819A8108970CF091C020E030E080E07E
:1031D00090E0E981FA8114E0EE0FFF1F1A95E1F704
:1031E000E20FF31FEA51FD4F408147FD4195840FE7
:1031F000911D47FD9A952F5F3F4F2031310549F7CB
:10320000E981FA81EE0FFF1FE55FFB4F9183808319
:1032100020E030E0A981BA8169817A81A9014F5FFC
:103220005F4FE69EF001E79EF00D1124E40FF51FBD
:10323000EE0FFF1FE35AFB4F60817181EA9EF001A0
:10324000EB9EF00D1124E20FF31FEE0FFF1FE35A68
:10325000FB4F718360834930510511F09A01DACF39
:1032600029813A81D29EF001D39EF00D1124E35AB8
:10327000FB4F938B828B60E070E0A981BA818981DA
:103280009A81AA0FBB1FA559BC4FE89EF001E99E89
:10329000F00D1124E60FF71FEE0FFF1FE35AFB4F4F
:1032A000808191812D913C911197820F931F8D9375
:1032B0009C936F5F7F4F6A307105F9F6E981FA815F
:1032C000A981BA81EE0FFF1FE559FC4FAA0FBB1F62
:1032D000A559BC4F8D919C910E94FE2E71836083F5
:1032E00089819A8101969A8389836ACF40E060E060
:1032F00080E00E9442088C0120E230E044E050E08F
:1033000060E070E080E090E00E945F1040E060E0EC
:1033100087E00E94420820910B0430910C048C013C
:1033200044E050E060E070E080E090E00E945F10D8
:1033300040E060E080E00E9442088C0120E230E042
:1033400044E050E060E070E084E090E00E945F10B4
:1033500040E064E087E00E94420820910D04309133
:103360000E048C0144E050E060E070E084E090E006
:103370000E945F1040E060E080E00E9442088C0103
:1033800020E230E044E050E060E070E088E090E06F
:103390000E945F1040E067E080E00E9442082091B8
:1033A0000F04309110048C0144E050E060E070E0C4
:1033B00088E090E00E945F1040E060E080E00E94C2
:1033C00042088C0120E230E044E050E060E070E030
:1033D0008CE090E00E945F1047E067E080E00E9490
:1033E000420820911104309112048C0144E050E015
:1033F00060E070E08CE090E00E945F1040E060E0F0
:1034000080E00E9442088C0120E230E044E050E07D
:1034100060E070E080E190E00E945F1047E064E0CF
:1034200080E00E94420820911304309114048C0122
:1034300044E050E060E070E080E190E00E945F10C6
:1034400040E060E080E00E9442088C0120E230E031
:1034500044E050E060E070E084E190E00E945F10A2
:1034600047E060E080E00E9442082091150430911E
:1034700016048C0144E050E060E070E084E190E0EC
:103480000E945F1040E060E080E00E9442088C01F2
:1034900020E230E044E050E060E070E088E190E05D
:1034A0000E945F1047E060E084E00E9442082091A3
:1034B0001704309118048C0144E050E060E070E0A3
:1034C00088E190E00E945F1040E060E080E00E94B0
:1034D00042088C0120E230E044E050E060E070E01F
:1034E0008CE190E00E945F1044E060E087E00E9481
:1034F00042082091190430911A048C0144E050E0F4
:1035000060E070E08CE190E00E945F108091A70283
:103510008111CDDA8091A802882331F0F1100EC01C
:10352000B5DBFF24F3940AC0FF2041F040E060E0E7
:1035300080E00E9442080E94030BF12C7AD70E947F
:10354000770615CE80917C0090E025E095958795D3
:103550002A95E1F78170089580917A0090E036E035
:10356000959587953A95E1F781700895EF92FF92CE
:103570000F931F93CF93DF938091AD02882309F4BB
:1035800053C0E090AE02F090AF02DCDFC0910901C1
:10359000D0910A01970140E050E0882309F17E01B3
:1035A000F694E79400E010E0CA01B9012FEF30E093
:1035B00040E050E00E94EF2EE60EF71E081F191F94
:1035C0009E0140E050E0C801B7010E94252FC901CB
:1035D000DA018F3F9105A105B10521F118F130C045
:1035E0007E01F694E79400E010E0CA01B9012FEFE4
:1035F00033E040E050E00E94EF2EE60EF71E081F79
:10360000191F9E0140E050E0C801B7010E94252F1C
:10361000C901DA01803020E0920721E0A20720E012
:10362000B20788F49C0111C08DDF882321F020911E
:10363000790030E00AC0209178003091790005C00F
:103640002FEF30E002C02FEF3FEFC901CDB7DEB75B
:10365000E6E00C948B2F803200F191E09093AD0264
:10366000803819F40E94662313C0813819F40E942F
:103670006C230EC0823819F40E94722309C083386B
:1036800019F40E94782304C08438F9F40E947E2340
:103690009093AF028093AE0208951092AD0297E826
:1036A00090937A0090917C00292F2064662311F07A
:1036B000906C02C0922F9F77907E982B90937C0005
:1036C00080917A00806480937A00089560E0C3DF7F
:1036D00043DF8823E9F74ACFF9CF089580E090E0EF
:1036E000089581E090E06F9364E06A95F1F76F913F
:1036F0000197C9F708950F931F93CF93DF9317B1E5
:103700003D982898299AC0E0D0E0EBDF2A9AE9DFBB
:1037100006B12A98E6DF2A9AE4DF2A98249605FF64
:1037200010C09E0140E050E08091B4029091B5023B
:10373000A091B602B091B702281739074A075B0774
:1037400020F39E0140E050E08091B4029091B502D8
:10375000A091B602B091B702281739074A075B0754
:1037600028F082E390E0A0E0B0E004C080E395E7B9
:10377000A0E0B0E08093B4029093B502A093B602AB
:10378000B093B70217B9DF91CF911F910F910895B0
:1037900028B190E08F709070880F991F880F991F43
:1037A000237C282B28B92A9A9CDF2A989ACFA2E05A
:1037B000B0E0EDEDFBE10C94702F182F4A83698384
:1037C0005AD099DFF7B008B1299869814A816623F8
:1037D00011F0289A01C0289887B18C6387B94130CD
:1037E00021F0812F82958F70D3DF812F8F70D0DFF2
:1037F000F7B808B92296E5E00C948C2F60E042E01F
:10380000D6CF61E042E0D3CFFCCF089560E041E045
:10381000CECF3D98459A80E395E7A0E0B0E0809355
:10382000B4029093B502A093B602B093B702209A67
:10383000219A229A8EE190E0D1D683E0E7DF86E0FC
:1038400090E0CCD683E0E2DF82E090E0C7D683E070
:10385000DDDF82E090E0C2D682E0D8DF82E090E057
:10386000BDD688E2CBDF88E0C9DF81E0C7DF86E034
:10387000C5DF8CE0C3CF8091B802882321F481E0BA
:103880008093B802C6CF089581E0B8DF8091B0027E
:103890009091B102009711F1A0E0B0E208C0E09170
:1038A000B002F091B102E20FF31FB083AF5F2A2F95
:1038B00030E080910B0190E0019760910C0170E085
:1038C000869FA001879F500D969F500D11242417AD
:1038D00035072CF31092B3021092B2020895D4CFA0
:1038E0000895EF92FF92CF93DF93E82EE7017E01D8
:1038F000F92EE70101C085DF89918823E1F7DF9187
:10390000CF91FF90EF900895ECCF0895AAE0B0E03A
:10391000ECE8FCE10C946B2F9B01AC011AE06AE02F
:10392000C62ED12CE12CF12C5E010894A11CB11CF7
:10393000022FCA01B901A70196010E94252F11503B
:10394000F501E10FF11D005D922F990F892F880F6E
:10395000880F890F081B008321153105410551058A
:1039600039F707C0F601E10FF11D80814ADF1F5FC3
:1039700004C06E010894C11CD11C1A3098F32A9619
:10398000EAE00C94872FEF92FF920F931F937B0135
:103990008C0197FF0AC010950095F094E094E11C0B
:1039A000F11C011D111D8DE22CDFC801B701AEDF36
:1039B0001F910F91FF90EF900895E5CF0895A5E036
:1039C000B0E0E5EEFCE10C94722F182F80E88983BB
:1039D00080EC8A8384E98B8384ED8C83FE01E60F7F
:1039E000F11D8181810F6D8309DF1093B3026D8119
:1039F0006093B2022596E3E00C948E2FE0CF0895F9
:103A0000A0E0B0E0E6E0FDE10C946D2FD82E8091AF
:103A1000B0029091B102009709F4F2C02D2D2A3026
:103A200009F442C02830C9F48091B30281508093D8
:103A3000B3028F3F51F48091B20281508093B20261
:103A400080910C0181508093B3028091B2028F3F2C
:103A500009F0D1C01092B202CCC08D2DD2DE80917F
:103A6000B2028823B9F090E0019740910C0150E038
:103A7000849F9001859F300D949F300D112480917B
:103A8000B302E091B002F091B102E20FF31FE80F30
:103A9000F11DD0828091B3028F5F8093B302909129
:103AA0000C01891709F0ACC04091B202242F30E01C
:103AB00080910B0190E001972817390709F096C013
:103AC000C0E0D0E03FC080E06C2F79DFCC248E01D5
:103AD0000F5F1F4F32C0EC2CFF2430E0C29FC001AB
:103AE000C39F900DD29F900D1124E091B002F091F0
:103AF000B102EE0DFF1DE80FF91F808182DE80917B
:103B0000B0029091B10220910C0130E0C29FF0010F
:103B1000C39FF00DD29FF00D11248E0D9F1DE80F55
:103B2000F91F029FD001039FB00D129FB00D112409
:103B3000A80FB91F8C918083C39420910C01C216E9
:103B400050F2E80160910B01862F90E00297C817B0
:103B5000D9070CF4B8CF6230D0F1625080E02FDF8B
:103B600000E010E230C0C02FD0E080910B0190E067
:103B7000029750E0849F9001859F300D949F300DF7
:103B80001124E091B002F091B102EC0FFD1FE20FA1
:103B9000F31F808136DE80910B0190E00297409107
:103BA0000C0150E0849F9001859F300D949F300D53
:103BB0001124E091B002F091B102EC0FFD1FE20F71
:103BC000F31F10830F5F40910C01041760F26091A6
:103BD0000B01615080E0F3DE10E003C080E211DEF3
:103BE0001F5F80910C011817C8F303C04F5F40930B
:103BF000B2021092B3028091B3026091B202DFDE92
:103C00002D2D332727FD3095C901CDB7DEB7E8E06C
:103C10000C94892F8091B0029091B102009711F01D
:103C20000E944B3020910B0130E0215030408091B8
:103C30000C0190E0AC01249FC001259F900D349FA2
:103C4000900D11240E94B32F9093B1028093B00283
:103C5000009721F1A0E0B0E208C0E091B002F0913D
:103C6000B102E20FF31FB083AF5F2A2F30E08091E3
:103C70000B0190E0019760910C0170E0869FA0011C
:103C8000879F500D969F500D1124241735072CF354
:103C900080E09DE16EE67BE10C94F3310895BACFAC
:103CA0000895282F30E0F901EE0FFF1F43E0220FA7
:103CB000331F4A95E1F7E20FF31FE35FFE4F828166
:103CC0000895282F30E0F901EE0FFF1F73E0220F57
:103CD000331F7A95E1F7E20FF31FE35FFE4F418157
:103CE000282F30E0F901EE0FFF1F53E0220F331FA2
:103CF0005A95E1F7E20FF31FE35FFE4F81E09381F6
:103D0000491380E00895282F30E0F901EE0FFF1FDE
:103D1000B3E0220F331FBA95E1F7E20FF31FE35F21
:103D2000FE4F408551854115510509F452C0282F99
:103D300030E0F901EE0FFF1F73E0220F331F7A9579
:103D4000E1F7E20FF31FE35FFE4F7281282F30E0AF
:103D5000F901EE0FFF1FB3E0220F331FBA95E1F711
:103D6000E20FF31FE35FFE4F9481791790F5282F40
:103D700030E0F901EE0FFF1F73E0220F331F7A9539
:103D8000E1F7E20FF31FE35FFE4F9281490F511DF0
:103D9000FA016083282F30E0F901EE0FFF1F53E096
:103DA000220F331F5A95E1F7E20FF31FE35FFE4F37
:103DB00092819F5F282F30E0F901EE0FFF1FB3E0E3
:103DC000220F331FBA95E1F7E20FF31FE35FFE4FB7
:103DD0009283282F30E0F901EE0FFF1F73E0220FCE
:103DE000331F7A95E1F7E20FF31FE35FFE4F428145
:103DF000282F30E0F901EE0FFF1F53E0220F331F91
:103E00005A95E1F7E20FF31FE35FFE4F94814917E4
:103E100001F5282F30E0F901EE0FFF1F93E0220F8C
:103E2000331F9A95E1F7E20FF31FE35FFE4F958191
:103E3000992379F0282F30E0F901EE0FFF1FB3E04E
:103E4000220F331FBA95E1F7E20FF31FE35FFE4F36
:103E5000128208950F931F93182F823009F474C0B3
:103E6000882319F4E1ECF0E002C0E9ECF0E0808195
:103E70008F778083812F90E0FC01EE0FFF1F03E01E
:103E8000880F991F0A95E1F7E80FF91FE35FFE4FCE
:103E9000808591850097A1F1212F30E0F901EE0F87
:103EA000FF1FA3E0220F331FAA95E1F7E20FF31FD4
:103EB000E35FFE4F9281212F30E0F901EE0FFF1FEB
:103EC00063E0220F331F6A95E1F7E20FF31FE35F10
:103ED000FE4F84819817A0F4112319F4E0ECF0E070
:103EE00002C0E8ECF0E0808187FF0AC0112319F4DA
:103EF000E6ECF0E002C0EEECF0E06081812F03DF41
:103F0000212F30E0F901EE0FFF1F43E0220F331F96
:103F10004A95E1F7E20FF31FE35FFE4F80818823AC
:103F200009F057C0112319F4E1ECF0E002C0E9EC0C
:103F3000F0E08081806880834CC0809126018823D6
:103F400019F01092230145C08091290190912A0116
:103F5000009709F43EC090912301809125019817A4
:103F6000C0F58091B902882399F49BD38093B9025C
:103F700010E00AC06AD3E02FF0E03197E11BF109AD
:103F8000E654FD4F80831F5F0091B902101790F334
:103F9000A091B902AA23E9F080912301E0912901BF
:103FA000F0912A01E80FF11DA150A093B902B0E0F1
:103FB000A654BD4F8C918083809123018F5F8093A5
:103FC00023019091230180912501981709F0BCCF1E
:103FD000B4CF1F910F910895823051F0882319F4C6
:103FE000E1ECF0E002C0E9ECF0E090819F77908393
:103FF000A82FB0E0FD01EE0FFF1F53E0AA0FBB1F7B
:104000005A95E1F7EA0FFB1FE35FFE4F7187608768
:10401000682F70E0FB01EE0FFF1F93E0660F771F24
:104020009A95E1F7E60FF71FE35FFE4F1282682FC4
:1040300070E0FB01EE0FFF1FA3E0660F771FAA954C
:10404000E1F7E60FF71FE35FFE4F4483482F50E090
:10405000FA01EE0FFF1F63E0440F551F6A95E1F769
:10406000E40FF51FE35FFE4F25838230D9F0282F40
:1040700030E0F901EE0FFF1F43E0220F331F4A9596
:10408000E1F7E20FF31FE35FFE4F9081992351F4B4
:10409000882319F4E1ECF0E002C0E9ECF0E0808163
:1040A00080688083089521E097CFFDCF08951F9207
:1040B0000F920FB60F920BB60F9211242F933F93CE
:1040C0004F935F936F937F938F939F93AF93BF9320
:1040D000EF93FF936091C60080E015DEFF91EF91B2
:1040E000BF91AF919F918F917F916F915F914F9110
:1040F0003F912F910F900BBE0F900FBE0F901F900E
:1041000018951F920F920FB60F920BB60F921124B3
:104110002F933F934F935F936F937F938F939F93CF
:10412000AF93BF93EF93FF936091CE0081E0EBDDFF
:10413000FF91EF91BF91AF919F918F917F916F917F
:104140005F914F913F912F910F900BBE0F900FBE3B
:104150000F901F901895882319F4E1ECF0E002C04D
:10416000E9ECF0E08081806280830895882319F46F
:10417000E1ECF0E002C0E9ECF0E080818F7D80832B
:104180000895282F30E0F901EE0FFF1F93E0220F72
:10419000331F9A95E1F7E20FF31FE35FFE4F26818D
:1041A00037812115310591F1282F30E0F901EE0F0B
:1041B000FF1FA3E0220F331FAA95E1F7E20FF31FC1
:1041C000E35FFE4F4181282F30E0F901EE0FFF1F22
:1041D00063E0220F331F6A95E1F7E20FF31FE35FFD
:1041E000FE4F9381491790F4282F30E0F901EE0F2C
:1041F000FF1F43E0220F331F4A95E1F7E20FF31F41
:10420000E35FFE4F9081992309F4A5CFAFCF8230B1
:1042100029F1282F30E0F901EE0FFF1F53E0220FA4
:10422000331F5A95E1F7E20FF31FE35FFE4F9081D2
:10423000992349F4882319F4E1ECF0E002C0E9EC99
:10424000F0E098E908C0882319F4E1ECF0E002C03E
:10425000E9ECF0E098E1908394DF78940895882366
:1042600019F0813029F402C080E0D1CF81E0CFCFB6
:104270000895A0E0B0E0EFE3F1E20C946E2FD82EA9
:104280007A018B01ECDF8D2D823001F1DD2019F4F4
:10429000C4ECD0E002C0CCECD0E0C801B70128EFFC
:1042A0003FEF4FEF5FEF0E94EF2E6050734D8E4C4B
:1042B0009E4FA8019701E4E0220F331F441F551FB2
:1042C000EA95D1F70E94252F39832883CDB7DEB731
:1042D000E7E00C948A2FCDCF0895282F30E0F90124
:1042E000EE0FFF1F73E0220F331F7A95E1F7E20F05
:1042F000F31FE35FFE4F468157814115510509F4D5
:1043000065C0282F30E0F901EE0FFF1F93E0220F68
:10431000331F9A95E1F7E20FF31FE35FFE4F6181D0
:10432000282F30E0F901EE0FFF1FA3E0220F331F0B
:10433000AA95E1F7E20FF31FE35FFE4F9381691740
:1043400008F044C0882319F4E0ECF0E002C0E8EC87
:10435000F0E0908195FF3AC0882319F4A6ECB0E014
:1043600002C0AEECB0E0282F30E0F901EE0FFF1FE5
:1043700063E0220F331F6A95E1F7E20FF31FE35F5B
:10438000FE4F9181490F511DFA0190819C93282F76
:1043900030E0F901EE0FFF1F93E0220F331F9A95D3
:1043A000E1F7E20FF31FE35FFE4F91819F5F282F3C
:1043B00030E0F901EE0FFF1FA3E0220F331FAA9593
:1043C000E1F7E20FF31FE35FFE4F9183DACE1F9315
:1043D000182F823021F0CADE812F7FDF1CC0809130
:1043E0002701909128010097B1F03091220120918E
:1043F0002401321780F406C0809122018F5F8093E0
:104400002201EDCF20912201820F911DFC018081BC
:104410004CD1882389F71F91089580E0D8DF81E08F
:10442000D6DF82E0D4DF80E015DD81E013DD82E0BD
:1044300011CDF3CF0895282F30E0F901EE0FFF1FC3
:1044400093E0220F331F9A95E1F7E20FF31FE35F2A
:10445000FE4F77836683282F30E0F901EE0FFF1FB0
:10446000A3E0220F331FAA95E1F7E20FF31FE35FEA
:10447000FE4F1182282F30E0F901EE0FFF1F63E09D
:10448000220F331F6A95E1F7E20FF31FE35FFE4F40
:104490004383823009F075CE0895CDCF08951F92E1
:1044A0000F920FB60F920BB60F9211242F933F93DA
:1044B0004F935F936F937F938F939F93AF93BF932C
:1044C000EF93FF9380E009DFFF91EF91BF91AF91F0
:1044D0009F918F917F916F915F914F913F912F911C
:1044E0000F900BBE0F900FBE0F901F9018951F924C
:1044F0000F920FB60F920BB60F9211242F933F938A
:104500004F935F936F937F938F939F93AF93BF93DB
:10451000EF93FF9381E0E1DEFF91EF91BF91AF91C7
:104520009F918F917F916F915F914F913F912F91CB
:104530000F900BBE0F900FBE0F901F9018956F93AA
:1045400064E06A95F1F76F910197C9F708952F928A
:104550008F939F932FB68091C3029091C4020196CE
:104560008093C3029093C40290E08091C502891F9A
:104570008093C5029091CB029C5F9093CB02809177
:10458000CA0280519742C0F09093CB028093CA0236
:104590008091C6029091C70201968093C6029093C3
:1045A000C70290E08091C802891F8093C802809161
:1045B000C902891F8093C9022FBE9F918F912F90AE
:1045C0001895CF93DF93EC0104C088EE93E0B7DF3A
:1045D00021972097D1F7DF91CF910895F2CF0895D9
:1045E000E0E7F0E080818E7F8083A0EBB0E08C91EB
:1045F00083608C93A1EBB0E08C91807F8C938C9145
:1046000082608C93B89A80818160808378940895C9
:104610008091CC02882321F481E08093CC02E0CF0A
:104620000895F6DFE0E7F0E080818E7F80832091BF
:10463000C6023091C7024091C8025091C9028081E0
:1046400081608083B901CA0108958FEF64E08AC058
:10465000CF93DF93E6DF9B01AC0180912F01909116
:104660003001A0913101B0913201281739074A0772
:104670005B07A1F081E867E075D0C6EDD2E0E5DF29
:10468000899382E0C33ED807D1F7CBDF60932F0137
:10469000709330018093310190933201DF91CF917B
:1046A000089583E867E05ED0D0CF1F93182F982F2E
:1046B0009095991F9927991F85E8891B65E052D02D
:1046C000812F8F7765E04ED01F910895C1DF8091D3
:1046D000DF029091E0020895BBDF8091D7029091B4
:1046E000D8020895B5DF8091D9029091DA02089539
:1046F000AFDF8091DB029091DC020895A9DF809109
:10470000DD029091DE0208956F9364E06A95F1F7FF
:104710006F910197C9F70895A1E0B0E0E2E9F3E2F3
:104720000C94722F182F249908C02C9906C02C9A2B
:104730008EE190E06983E8DF698184B1806A84B9A1
:104740002698812F837080656C7A862B8CBD81E0E2
:1047500012FF80E08DBD81E090E033DF2196E3E041
:104760000C948E2F0F931F93082F162F0CB406FC5A
:1047700003C080E064E0D0DF0CB404FC03C08CB55F
:1047800080618CBD0EBD03C00CB404FE0AC00DB424
:1047900007FEFACF112319F0812F90E0B5DF8EB517
:1047A00001C080E01F910F9108952F923F924F9288
:1047B0005F926F927F928F929F92AF92BF92CF92B1
:1047C000DF92EF92FF920F931F93CF93DF93CDB7BA
:1047D000DEB763970FB6F894DEBF0FBECDBF7C0186
:1047E0001B016A01FC0117821682838181FF66C367
:1047F000BE016F5F7F4F4B01F7019381F10193FD84
:10480000859193FF81911F01882309F453C3853259
:1048100039F493FD859193FF81911F01853239F41D
:10482000B70190E00E947B3256016501E5CF10E0B0
:10483000512C20E02032A0F48B3269F030F4803229
:1048400059F0833269F420612CC08D3239F0803305
:1048500039F4216026C02260246023C0286021C072
:1048600027FD27C030ED380F3A3078F426FF06C018
:10487000FAE01F9F300D1124132F13C06AE0569EDB
:10488000300D1124532E20620CC08E3221F426FDEF
:1048900011C3206406C08C3611F4206802C088362B
:1048A00041F4F10193FD859193FF81911F018111E5
:1048B000C1CF9BEB980F933018F42061805E06C047
:1048C0009BE9980F933008F0AAC12F7E26FF16E0CF
:1048D0002F73722E853621F4F22FF0647F2E08C0DC
:1048E000863621F4622F6068762E02C011111150B5
:1048F00077FE07C01C3348F444244394410E27E05C
:104900000BC0183030F4212F06C027E04CE3442EB2
:1049100003C027E017E0412C560174E0A70EB11C3C
:10492000F6016081718182819381042DA4010E942E
:10493000DA306C01098100FF02C003FF06C071FC80
:1049400007C072FC08C0612C08C03DE2632E05C0A0
:104950002BE2622E02C090E2692E802F8C7099F1BA
:10496000662011F084E001C083E0851510F0512C21
:104970000BC0581A73FC08C0B70180E290E00E9497
:104980007B325A94C9F7F3CF662029F0B701862D00
:1049900090E00E947B3203FD03C008E717E002C0ED
:1049A00004E717E0F72DF0717F2EF801849188233A
:1049B00009F476C271108052B70190E00E947B32F8
:1049C0000F5F1F4FF2CF77FE0FC04C0C04FF04C0E7
:1049D0008A81813309F44A94141474F5F8E0F415CB
:1049E00078F588E0482E2CC076FC2AC0812F90E014
:1049F0008C159D059CF06CEFC6166FEFD60674F013
:104A0000772D7068772E0AC0E2E0F0E0EC0FFD1F12
:104A1000E10FF11D8081803319F411501111F4CF91
:104A200077FE0EC044244394410E812F90E0C816B7
:104A3000D9062CF41C1904C04424439401C010E08E
:104A400077FE07C01C141D043CF496012F5F3F4FF6
:104A500005C025E030E002C021E030E0662011F022
:104A60002F5F3F4F112331F0412F50E04F5F5F4FD9
:104A7000240F351F452D50E02417350714F4521A22
:104A800001C0512C872D897049F4552039F0B701A8
:104A900080E290E00E947B325A94F7CF662029F0A2
:104AA000B701862D90E00E947B3273FC09C055202F
:104AB00039F0B70180E390E00E947B325A94F7CF3F
:104AC00077FE5FC09C2D8D2DD7FE02C090E080E068
:104AD000692E782E40E050E0C601841991099D8727
:104AE0008C87960126193709280D391D812F90E0F2
:104AF000EE27FF27E81BF90BFF87EE87FFEF6F1606
:104B00007F0669F4B7018EE290E02B8B3A8B488BDD
:104B1000598B0E947B32598948893A892B89C6145E
:104B2000D70454F06C857D85661577052CF4F90162
:104B3000E40FF51F818101C080E371E0671A7108FD
:104B40004F5F5F4FEE85FF856E167F066CF0B701F5
:104B500090E02B8B3A8B488B598B0E947B322B89B0
:104B60003A8948895989CACF6C147D0439F49A81ED
:104B7000963318F4953311F404FF81E3B70190E004
:104B80004BC08A81813309F00F7EB70190E00E940B
:104B90007B32111105C074FE18C085E490E017C087
:104BA000B7018EE290E00E947B3282E0662463943B
:104BB000680EF401E80FF11D8081B70190E00E94BA
:104BC0007B32115041F3862DF1CF85E690E0B7019D
:104BD0000E947B32D7FC05C0C114D10439F404FF14
:104BE00005C0D194C194D1088DE201C08BE2B70118
:104BF00090E00E947B3280E36AE0C616D1042CF07C
:104C00008F5FFAE0CF1AD108F7CFB70190E00E948A
:104C10007B32B701C601C0960E947B3241C1833608
:104C200031F0833779F0833509F058C021C056013F
:104C300072E0A70EB11CF6018081898301E010E0CB
:104C4000640114C05601F2E0AF0EB11CF601C08041
:104C5000D18026FF03C0612F70E002C06FEF7FEFAD
:104C6000C6012B8B0E94E8318C012B892F7715C050
:104C70005601F2E0AF0EB11CF601C080D18026FFD4
:104C800003C0612F70E002C06FEF7FEFC6012B8B76
:104C90000E94CD318C012B892068722E23FD1AC011
:104CA000852D90E008171907A8F4B70180E290E07D
:104CB0000E947B325A94F4CFF60177FC859177FEFF
:104CC00081916F01B70190E00E947B3251105A949C
:104CD000015011090115110579F7E2C0843611F070
:104CE000893651F5560127FF09C0F4E0AF0EB11C1B
:104CF000F60160817181828193810AC0F2E0AF0E7A
:104D0000B11CF60160817181882777FD8095982F0D
:104D1000022F0F7697FF08C090958095709561954A
:104D20007F4F8F4F9F4F00682AE030E0A4010E9420
:104D30006533C82EC8183EC0022F853721F40F7E78
:104D40002AE030E01DC0097F8F3691F018F48835D5
:104D500059F0B0C0803719F0883711F0ABC000614E
:104D600004FF09C0046007C024FF08C0066006C035
:104D700028E030E005C020E130E002C020E132E070
:104D8000560107FF09C0F4E0AF0EB11CF6016081C7
:104D900071818281938108C0F2E0AF0EB11CF601EF
:104DA0006081718180E090E0A4010E946533C82E8B
:104DB000C8180F7706FF0BC0202F2E7FC11650F4A6
:104DC00004FF0AC002FD08C0202F2E7E05C0DC2C87
:104DD000202F03C0DC2C01C0D12E24FF0DC0FE010A
:104DE000EC0DF11D8081803311F4297E09C022FF72
:104DF00006C0D394D39404C0822F867809F0D3944C
:104E000023FD13C020FF06C01C2DD51418F4150D6A
:104E10001D19D52CD51468F4B70180E290E02B8BD6
:104E20000E947B32D3942B89F5CFD51410F45D18F2
:104E300001C0512C24FF12C0B70180E390E02B8BFE
:104E40000E947B322B8922FF17C021FF03C088E517
:104E500090E002C088E790E0B7010CC0822F86780E
:104E600059F021FD02C080E201C08BE227FD8DE2F6
:104E7000B70190E00E947B32C11638F4B70180E39D
:104E800090E00E947B321150F7CFCA94F401EC0DF0
:104E9000F11D8081B70190E00E947B32C110F5CFF7
:104EA000552009F4C2CCB70180E290E00E947B3229
:104EB0005A94F6CFF7018681978102C08FEF9FEF5A
:104EC00063960FB6F894DEBF0FBECDBFDF91CF91D2
:104ED0001F910F91FF90EF90DF90CF90BF90AF9018
:104EE0009F908F907F906F905F904F903F902F900A
:104EF00008955058BB27AA270ED0FCC1EDD130F041
:104F0000F2D120F031F49F3F11F41EF4BDC10EF434
:104F1000E095E7FBB3C1E92FFED180F3BA17620732
:104F200073078407950718F071F49EF516C20EF406
:104F3000E0950B2EBA2FA02D0B01B90190010C01A9
:104F4000CA01A0011124FF27591B99F0593F50F4C1
:104F5000503E68F11A16F040A22F232F342F442719
:104F6000585FF3CF469537952795A795F040539511
:104F7000C9F77EF41F16BA0B620B730B840BBAF0E1
:104F80009150A1F0FF0FBB1F661F771F881FC2F74C
:104F90000EC0BA0F621F731F841F48F48795779560
:104FA0006795B795F7959E3F08F0B3CF9395880F17
:104FB00008F09927EE0F9795879508958DD158F0B1
:104FC00080E891E009F49EEF8ED128F040E851E0AE
:104FD00059F45EEF09C058C1C0C1E92FE0789BD1F8
:104FE00068F3092E052AC1F3261737074807590722
:104FF00038F00E2E07F8E02569F0E025E0640AC0DD
:10500000EF6307F8009407FADB01B9019D01DC01A9
:10501000CA01AD01EF9347D06DD10AD05F915523FE
:1050200031F02BED3FE049E450FD49EC63CF0895AA
:10503000DF93DD27B92FBF7740E85FE31616170629
:1050400048075B0710F4D92F93D19F938F937F93D9
:105050006F933AD2ECE8F0E01AD14CD12F913F9106
:105060004F915F9198D1DD2349F09058A2EA2AED43
:105070003FE049EC5FE3D0785D274DDFDF913AC137
:10508000D9D008F481E008950CD034C12CD140F07F
:1050900023D130F021F45F3F19F0F0C051115EC10F
:1050A000F3C039D198F39923C9F35523B1F3951B74
:1050B000550BBB27AA2762177307840738F09F5F39
:1050C0005F4F220F331F441FAA1FA9F333D00E2EA8
:1050D0003AF0E0E830D091505040E695001CCAF715
:1050E00029D0FE2F27D0660F771F881FBB1F2617DA
:1050F00037074807AB07B0E809F0BB0B802DBF01AD
:10510000FF2793585F4F2AF09E3F510568F0B6C0C5
:1051100025C15F3FECF3983EDCF386957795679564
:10512000B795F7959F5FC9F7880F911D969587955D
:1051300097F90895E1E0660F771F881FBB1F62177C
:1051400073078407BA0720F0621B730B840BBA0B3A
:10515000EE1F88F7E095089504D06894B111FEC061
:105160000895E1D088F09F5790F0B92F9927B75153
:10517000A0F0D1F0660F771F881F991F1AF0BA951B
:10518000C9F712C0B13081F0E8D0B1E00895E5C0B0
:10519000672F782F8827B85F39F0B93FCCF3869511
:1051A00077956795B395D9F73EF49095809570956E
:1051B00061957F4F8F4F9F4F0895E89409C097FBEB
:1051C0003EF490958095709561957F4F8F4F9F4FDE
:1051D0009923A9F0F92F96E9BB279395F695879522
:1051E00077956795B795F111F8CFFAF4BB0F11F4E5
:1051F00060FF1BC06F5F7F4F8F4F9F4F16C088238C
:1052000011F096E911C0772321F09EE8872F762FC1
:1052100005C0662371F096E8862F70E060E02AF002
:105220009A95660F771F881FDAF7880F96958795EE
:1052300097F90895990F0008550FAA0BE0E8FEEFC3
:1052400016161706E807F907C0F012161306E4074A
:10525000F50798F0621B730B840B950B39F40A2643
:1052600061F0232B242B252B21F408950A2609F421
:10527000A140A6958FEF811D811D089597F99F6725
:1052800080E870E060E008959FEF80EC0895DF9380
:10529000CF931F930F93FF92EF92DF927B018C01CC
:1052A000689405C0DA2EEF0176D0FE01E894A5914E
:1052B0002591359145915591AEF3EF012CDEFE011C
:1052C0009701A801DA9479F7DF90EF90FF900F91A2
:1052D0001F91CF91DF91089500240A9416161706A6
:1052E00018060906089500240A94121613061406D7
:1052F00005060895092E0394000C11F4882352F03A
:10530000BB0F40F4BF2B11F460FF04C06F5F7F4FF1
:105310008F4F9F4F089557FD9058440F551F59F0D8
:105320005F3F71F04795880F97FB991F61F09F3F92
:1053300079F087950895121613061406551FF2CFBB
:105340004695F1DF08C0161617061806991FF1CF0B
:1053500086957105610508940895E894BB27662732
:105360007727CB0197F9089565DF08F48FEF08954B
:105370009B01AC0160E070E080E89FE385CE0BD03C
:10538000B9CFAADF28F0AFDF18F0952309F076CF68
:105390007BCF1124E3CFBFDFA0F3959FD1F3950F0F
:1053A00050E0551F629FF001729FBB27F00DB11DA9
:1053B000639FAA27F00DB11DAA1F649F6627B00D39
:1053C000A11D661F829F2227B00DA11D621F739F22
:1053D000B00DA11D621F839FA00D611D221F749F30
:1053E0003327A00D611D231F849F600D211D822F77
:1053F000762F6A2F11249F5750408AF0E1F08823BE
:105400004AF0EE0FFF1FBB1F661F771F881F9150CA
:105410005040A9F79E3F510570F030CF9FCF5F3FBE
:10542000ECF3983EDCF3869577956795B795F795FD
:10543000E7959F5FC1F7FE2B880F911D9695879585
:1054400097F9089511F40EF41FCF41C06CDFD0F32B
:105450009923D9F3CEF39F57550B87FF46D00024ED
:10546000A0E640EA900180585695979528F4805C14
:10547000660F771F881F20F026173707480730F47C
:10548000621B730B840B202931294A2BA695179494
:105490000794202531254A2758F7660F771F881F64
:1054A00020F026173707480730F4620B730B840B84
:1054B000200D311D411DA09581F7B901842F915810
:1054C000880F9695879508959B01AC0158CF9F3F13
:1054D00031F0915020F4879577956795B795880FAF
:1054E000911D9695879597F9089591505040660FB4
:1054F000771F881FD2F7089520FD09C0FC0123FD06
:1055000005C022FF02C073836283518340830895E4
:1055100044FD10C046FD10C0DB01FC01AA0FBB1FFB
:10552000EE1FFF1F1094D1F76A0F7B1F8E1F9F1F66
:1055300031E003C033E001C034E0660F771F881FFD
:10554000991F3150D1F7620F711D811D911D089572
:105550000F931F93CF93DF938C01C8018ED7EC017B
:1055600097FD07C0FFD6892BC1F7B801CE010E9475
:105570004C33CE01DF91CF911F910F9108956F921F
:105580007F929F92AF92BF92CF92DF92EF92FF9263
:105590000F931F93CF93DF931F92CDB7DEB78C018C
:1055A0003B015A01298369D7AC01552729814B3228
:1055B000510521F04D32510579F4206831E0631A2C
:1055C00071086114710411F480E079C0C801298365
:1055D00054D7298197FDF8CFE22FED7F9E2E322FF1
:1055E000307369F5803359F57301F1E0EF1AF10872
:1055F000E114F10409F450C0C80129833ED7298180
:1056000097FD4AC0382F3F7D383579F4292D226423
:10561000922E32E0631A71086114710409F43CC0DF
:10562000C8012BD797FF0BC037C026FF04C0E92D58
:10563000E2609E2E03C0F92DF2619F2E3701C12C2E
:10564000D12C760120ED280F283080F094FE04C084
:10565000B8010E944C331DC02A3040F096FEF8CFAE
:105660002F7D3FEE320F363098F72750492DC70176
:10567000B6014EDF6B017C01292D2260922E31E0B4
:10568000631A71086114710451F0C801F6D697FFCE
:10569000D9CF91FC04C098CFC12CD12C760197FEB4
:1056A00008C0F094E094D094C094C11CD11CE11CBB
:1056B000F11C292DB701A601C5011EDF81E00F9065
:1056C000DF91CF911F910F91FF90EF90DF90CF90DE
:1056D000BF90AF909F907F906F9008954F925F9290
:1056E0006F927F928F929F92AF92BF92CF92DF92F2
:1056F000EF92FF920F931F93CF93DF93CDB7DEB757
:10570000A0970FB6F894DEBF0FBECDBF5C014B0172
:105710007A018E010F5F1F4F680180E2F80111923C
:105720008A95E9F7F501638080E090E0712C412CC7
:10573000B0E041E050E0F90163FC559063FE519008
:105740008F01A52D9F01511003C080E090E07DC026
:10575000FEE55F1202C0009761F16B2F70E06817E1
:1057600079074CF46DE5561661F1EDE25E1203C067
:10577000442009F103C0411001C0752C6A2F6695C1
:1057800066956695F601E60FF11D6A2F67708A012E
:1057900002C0000F111F6A95E2F7B8017081762BE5
:1057A0007083A71559F0A71510F4AF5FE7CFA1508C
:1057B000E5CFB1E004C04424439401C0412C0196DC
:1057C000BACF442019F08E8180628E83B11103C05C
:1057D0007724739419C0F601CE018196208120951B
:1057E0002193E817F907D1F7F3CFE114F10429F079
:1057F000F7018083C70101967C0191E0891A910825
:1058000081149104E1F0712CC50137D697FD15C0C4
:10581000282F269526952695F601E20FF11D208169
:1058200030E0AC014770552702C0359527954A9561
:10583000E2F720FDDACFB5012FD7711086CFE11442
:10584000F10411F0F7011082C801A0960FB6F89488
:10585000DEBF0FBECDBFDF91CF911F910F91FF90A3
:10586000EF90DF90CF90BF90AF909F908F907F9000
:105870006F905F904F9008952F923F924F925F925A
:105880006F927F929F92AF92BF92CF92DF92EF92F0
:10589000FF920F931F93CF93DF9300D000D000D0DF
:1058A000CDB7DEB76C018B011A01E7D59E838D83DE
:1058B00099278B32910529F08D9791F480E8982EE5
:1058C00001C0912C015011090115110511F480E05E
:1058D0002AC1C601D2D59E838D8397FF02C0F7CF20
:1058E000912C8D819E8146D58936910541F08E3669
:1058F0009105C1F5BEE86B2EB7E07B2E04C0A1E98F
:105900006A2EA7E07A2E8FEF681A780AF301319792
:10591000B490BB20D9F0015011090115110559F0BF
:10592000C601ABD57C0197FD06C024D5B81659F346
:10593000B601C701B1D624E9621627E0720609F064
:10594000C6CF80E090E0A0E8BFE709C091E9691602
:1059500097E07906B1F780E090E0A0ECBFE7BC01EA
:10596000CD01D1C0412C512C3201E12CF12C2D81E3
:1059700020532A3020F5E92DE260BE2E892D887053
:1059800092FE06C0811122C0FFEFEF1AFF0A1EC06F
:10599000882319F081E0E81AF10840E2C301B2015E
:1059A000B7DD2B013C0198E9491699E959066906CA
:1059B00099E1790658F0E92DE660BE2E07C02E3F2A
:1059C00099F493FC11C0F92DF860BF2E0150110914
:1059D0000115110541F0C60150D59E838D839B2C86
:1059E00097FD02C0C4CF9B2C91FE71CF8D818F7D1E
:1059F000853409F052C0580121E0A21AB108A1145F
:105A0000B10409F464CFC60138D59E838D8397FD18
:105A10005ECF99278B32910529F08D9779F4892DE6
:105A20008061982E580192E0A91AB108A114B1041E
:105A300009F44DCFC60121D59E838D838D819E8132
:105A4000C0970A9708F043CF8501A12CB12CB5016E
:105A5000882777FD8095982F2D81205340E258DDCF
:105A6000AB01BC015A01015011090115110569F082
:105A7000C60149835A836B837C83FFD49E838D83C5
:105A8000C09749815A810A9710F394FE04C0AA2452
:105A9000BB24A41AB50AEA0CFB1C012B39F0ED81DA
:105AA000FE81F7FD03C0B601CF01F6D5C301B201F7
:105AB00084DBF7FE08C0F194E194F108FDEAAF2E13
:105AC000F7E0BF2E04C0E5ECAE2EE7E0BE2E650188
:105AD000F8E1CF1AD10800E210E0F50145905590A9
