:10000000EDC0000009C1000007C1000005C10000EB
:1000100003C1000001C10000FFC00000FDC00000DE
:10002000FBC00000F9C00000F7C000000C941C0BDE
:10003000F3C00000AAC10000EFC00000EDC0000046
:10004000EBC00000E9C00000E7C00000E5C0000010
:100050000C94CC080C94C40ADFC00000DDC0000082
:10006000DBC00000D9C00000D7C00000D5C0000030
:100070000C94F6080C94EC0ACFC00000CDC0000030
:100080007AC10000C9C00000C7C000006E616E00E8
:10009000696E66006364696E6F70737578585B652E
:1000A000666745464700616E006E66696E697479E1
:1000B00000CDCCCC3D0AD7233C17B7D13877CC2B19
:1000C000329595E6241FB14F0A000020410000C878
:1000D0004200401C4620BCBE4CCA1B0E5AAEC59DF9
:1000E0007400407A10F35A00A0724E18090010A54F
:1000F000D4E80000E87648170000E40B5402000042
:10010000CA9A3B000000E1F50500008096980000C7
:100110000040420F000000A08601000000102700F0
:10012000000000E803000000006400000000000A76
:1001300000000000000100000000002C76D888DCE0
:10014000674F0823DFC1DFAE59E1B1B796E5E3E4BD
:1001500053C63AE651997696E8E6C28426EB898C36
:100160009B62ED407C6FFCEFBC9C9F40F2BAA56F98
:10017000A5F490055A2AF75C936B6CF9676DC11B67
:10018000FCE0E40D47FEF520E6B500D0ED902E032F
:1001900000943577050080841E080000204E0A0078
:1001A0000000C80C333333330F986E12831141EFC4
:1001B0008D2114893BE65516CFFEE6DB18D1844B22
:1001C000381BF77C1D901DA4BBE424203284725E92
:1001D000228100C9F124ECA1E53D270011241FBEB6
:1001E000CFEFD0E4DEBFCDBF12E0A0E0B1E0E0EFA2
:1001F000F3E300E00BBF02C007900D92A03AB107F5
:10020000D9F713E0A0EAB2E001C01D92A13FB10707
:10021000E1F7F6D10C94F619F3CE809100018F5FCF
:10022000809300010895AF92BF92DF92EF92FF9208
:100230000F931F93CF93DF93CDB7DEB7C254D1098D
:100240000FB6F894DEBF0FBECDBF23961FAE1EAE15
:100250002397ABD023961FAE1EAE2397B4E3EB2EAD
:10026000B1E0FB2E10E4D12E8E010F5F1F4F2396BD
:100270008EAD9FAD2397843691050CF05EC023961A
:100280008EAD9FAD239723964EAD5FAD23972396FA
:100290002EAD3FAD23972396AEADBFAD23972396EA
:1002A000AEACBFAC2397880F991F8E519D4FFC01B8
:1002B00061816F9380818F93440F551F40525D4F32
:1002C000FA0181818F9380818F93220F331F2252F5
:1002D0003D4FF90181818F9380818F93AA0FBB1FBE
:1002E000A452BD4F11968C9111978F938C918F933F
:1002F000AA0CBB1CC50186529D4FFC0181818F93C6
:1003000080818F93FF92EF921F92DF921F930F9342
:100310000E94CE18BC01C80150D047D023968EADA4
:100320009FAD2397059623969FAF8EAF23970FB669
:10033000F894DEBF0FBECDBF9ACFCE5BDF4F0FB6B6
:10034000F894DEBF0FBECDBFDF91CF911F910F910B
:10035000FF90EF90DF90BF90AF900895ECE7F0E052
:1003600080818F7D80830895809101018F5F8093CC
:100370000101089508951F920F920FB60F92112454
:100380000F900FBE0F901F9018951F920F920FB6EF
:100390000F9211240F900FBE0F901F90189580910F
:1003A00003018F5F80930301089582E0FFD48111E0
:1003B00003C00E948E0AF9CF0895462FBC0182E047
:1003C0000E94C20AF2CF62E270E089E491E0F5DFB8
:1003D00065E270E08CE691E0F0DF68E170E082E9D0
:1003E00091E0EBDF69E170E08BEA91E0E6DF60E14C
:1003F00070E085EC91E0E1DF60E170E086ED91E096
:10040000DCDF60E170E087EE91E0D7DF60E170E073
:1004100088EF91E0D2DF67E170E089E092E0CDCF34
:1004200040E855E260E070E082E0CAD740E266EC66
:1004300073E082E0AFD662E270E081E292E0BDDF7D
:10044000C2DF68E170E084E492E0B7CFA3E2B0E0FD
:10045000ECE2F2E00C9490159E012F5D3F4F3F932C
:100460002F939E012D5D3F4F3F932F932DE532E05B
:100470003F932F939F938F930E943A1960E080E0FF
:1004800032D38AA18F9389A18F932BA1822F992791
:1004900087FD90959F932F9383E692E09F938F9390
:1004A0000E94BC188AA18F9389A18F932BA1822FC0
:1004B000992787FD90959F932F938EE692E09F93C7
:1004C0008F938E010F5F1F4F1F930F930E940B1985
:1004D000BC01C80172DF0FB6F894DEBF0FBECDBFFE
:1004E0008BA18836A9F054F485352CF48235CCF4F0
:1004F0008C34B9F011C0863569F00EC085372CF404
:1005000082377CF48C3669F007C0863719F004C056
:100510005ADF07C088DE05C06BE170E08DE792E02E
:100520004CDF68E170E084E492E047DFA396E4E00A
:100530000C94AC15A0E2B0E0E0EAF2E00C948E1569
:1005400082E024D49091E6032091A1023091A2028E
:100550008917D9F0A1E0B0E0AC0FBD1FA20FB31F07
:10056000E92FF0E0EA53FC4F80818C932F5F3F4FDF
:100570003093A2022093A1029F3119F41092E60356
:10058000DFCF9F5F9093E603DBCF21153105A1F10B
:100590002130310519F489818A3051F18E010F5FC4
:1005A0001F4FF801E20FF31F108261E080E09BD241
:1005B00089E992E01ED26091A1027091A20288277F
:1005C00077FD8095982F6ED289E293D17801809142
:1005D000A1029091A2029701201B310B2817390725
:1005E0002CF4F70181917F0184D1F1CFC8012EDF76
:1005F0001092A2021092A102A096E6E00C94AA1515
:10060000C3D30EDFABDEE0D1789481E8DAD08091FD
:100610007A0086FD17C0C091A002D0E095D0FE01FF
:10062000EE0FFF1FE652FD4F9183808381E8C9D012
:100630008091A0028F5F8093A002843618F0F3DDD2
:100640001092A0026BD776DFE2CF80917C0090E021
:1006500025E0959587952A95E1F781700895EF92A9
:10066000FF920F931F93CF93DF938091A302882370
:1006700009F453C0E090A402F090A502E6DFC09117
:100680000401D0910501970140E050E0882309F171
:100690007E01F694E79400E010E0CA01B9012FEF63
:1006A00030E040E050E00E945115E60EF71E081FB2
:1006B000191F9E0140E050E0C801B7010E9460157B
:1006C000C901DA018F3F9105A105B10521F118F1AA
:1006D00030C07E01F694E79400E010E0CA01B90151
:1006E0002FEF33E040E050E00E945115E60EF71E78
:1006F000081F191F9E0140E050E0C801B7010E9489
:100700006015C901DA01803020E0920721E0A207DC
:1007100020E0B20788F49C0111C097DF882321F004
:100720002091790030E00AC0209178003091790062
:1007300005C02FEF30E002C02FEF3FEFC901CDB76A
:10074000DEB7E6E00C94AA158ACF0895803200F156
:1007500091E09093A302803819F40E94DB0B13C040
:10076000813819F40E94E10B0EC0823819F40E94FE
:10077000E70B09C0833819F40E94ED0B04C08438DC
:10078000F9F40E94F30B9093A5028093A4020895BC
:100790001092A30297E890937A0090917C00292F01
:1007A0002064662311F0906C02C0922F9F77907E98
:1007B000982B90937C0080917A00806480937A00DB
:1007C000089560E0C3CF80E090E0089581E090E07C
:1007D0006F9364E06A95F1F76F910197C9F70895F7
:1007E0000F931F93CF93DF9317B13D982898299AC1
:1007F000C0E0D0E0EBDF2A9AE9DF06B12A98E6DF15
:100800002A9AE4DF2A98249605FF10C09E0140E052
:1008100050E08091AA029091AB02A091AC02B091FD
:10082000AD02281739074A075B0720F39E0140E015
:1008300050E08091AA029091AB02A091AC02B091DD
:10084000AD02281739074A075B0728F082E390E0DA
:10085000A0E0B0E004C080E395E7A0E0B0E08093C2
:10086000AA029093AB02A093AC02B093AD0217B969
:10087000DF91CF911F910F91089528B190E08F7073
:100880009070880F991F880F991F237C282B28B9F7
:100890002A9A9CDF2A989ACFA2E0B0E0E2E5F4E041
:1008A0000C948F15182F4A8369835AD099DFF7B0BB
:1008B00008B1299869814A81662311F0289A01C0FC
:1008C000289887B18C6387B9413021F0812F8295B8
:1008D0008F70D3DF812F8F70D0DFF7B808B92296E1
:1008E000E5E00C94AB1560E042E0D6CF61E042E079
:1008F000D3CFFCCF089560E041E0CECF3D98459A3C
:1009000080E395E7A0E0B0E08093AA029093AB0269
:10091000A093AC02B093AD02209A219A229A8EE164
:1009200090E0D1D683E0E7DF86E090E0CCD683E0AC
:10093000E2DF82E090E0C7D683E0DDDF82E090E096
:10094000C2D682E0D8DF82E090E0BDD688E2CBDF7D
:1009500088E0C9DF81E0C7DF86E0C5DF8CE0C3CF78
:100960008091AE02882321F481E08093AE02C6CF4D
:10097000089581E0B8DF8091A6029091A7020097C8
:1009800011F1A0E0B0E208C0E091A602F091A70248
:10099000E20FF31FB083AF5F2A2F30E08091060192
:1009A00090E001976091070170E0869FA001879F0A
:1009B000500D969F500D1124241735072CF31092DB
:1009C000A9021092A8020895D4CF0895EF92FF9241
:1009D000CF93DF93E82EE7017E01F92EE70101C0F6
:1009E00085DF89918823E1F7DF91CF91FF90EF9028
:1009F0000895ECCF0895AAE0B0E0E1E0F5E00C94B2
:100A00008A159B01AC011AE06AE0C62ED12CE12CBC
:100A1000F12C5E010894A11CB11C022FCA01B9017E
:100A2000A70196010E9460151150F501E10FF11D1B
:100A3000005D922F990F892F880F880F890F081B4F
:100A40000083211531054105510539F707C0F6012D
:100A5000E10FF11D80814ADF1F5F04C06E01089421
:100A6000C11CD11C1A3098F32A96EAE00C94A61502
:100A7000EF92FF920F931F937B018C0197FF0AC0A7
:100A800010950095F094E094E11CF11C011D111DDE
:100A90008DE22CDFC801B701AEDF1F910F91FF90EF
:100AA000EF900895E5CF0895A5E0B0E0EAE5F5E020
:100AB0000C949115182F80E8898380EC8A8384E94F
:100AC0008B8384ED8C83FE01E60FF11D8181810F04
:100AD0006D8309DF1093A9026D816093A8022596AA
:100AE000E3E00C94AD15E0CF0895A0E0B0E0EBE7B3
:100AF000F5E00C948C15D82E8091A6029091A70257
:100B0000009709F4F2C02D2D2A3009F442C0283094
:100B1000C9F48091A90281508093A9028F3F51F4BA
:100B20008091A80281508093A80280910701815092
:100B30008093A9028091A8028F3F09F0D1C0109242
:100B4000A802CCC08D2DD2DE8091A8028823B9F0F6
:100B500090E001974091070150E0849F9001859FAC
:100B6000300D949F300D11248091A902E091A602CE
:100B7000F091A702E20FF31FE80FF11DD0828091E0
:100B8000A9028F5F8093A90290910701891709F04C
:100B9000ACC04091A802242F30E08091060190E083
:100BA00001972817390709F096C0C0E0D0E03FC090
:100BB00080E06C2F79DFCC248E010F5F1F4F32C095
:100BC000EC2CFF2430E0C29FC001C39F900DD29F48
:100BD000900D1124E091A602F091A702EE0DFF1DE9
:100BE000E80FF91F808182DE8091A6029091A70212
:100BF0002091070130E0C29FF001C39FF00DD29F0A
:100C0000F00D11248E0D9F1DE80FF91F029FD001DA
:100C1000039FB00D129FB00D1124A80FB91F8C9126
:100C20008083C39420910701C21650F2E8016091BD
:100C30000601862F90E00297C817D9070CF4B8CFA9
:100C40006230D0F1625080E02FDF00E010E230C06F
:100C5000C02FD0E08091060190E0029750E0849F81
:100C60009001859F300D949F300D1124E091A602D4
:100C7000F091A702EC0FFD1FE20FF31F808136DE1B
:100C80008091060190E002974091070150E0849F17
:100C90009001859F300D949F300D1124E091A602A4
:100CA000F091A702EC0FFD1FE20FF31F10830F5FFF
:100CB00040910701041760F260910601615080E0E5
:100CC000F3DE10E003C080E211DE1F5F80910701B8
:100CD0001817C8F303C04F5F4093A8021092A902EF
:100CE0008091A9026091A802DFDE2D2D332727FD18
:100CF0003095C901CDB7DEB7E8E00C94A815809116
:100D0000A6029091A702009711F00E946A16209106
:100D1000060130E0215030408091070190E0AC01A5
:100D2000249FC001259F900D349F900D11240E9497
:100D3000D2159093A7028093A602009721F1A0E01C
:100D4000B0E208C0E091A602F091A702E20FF31F03
:100D5000B083AF5F2A2F30E08091060190E00197C9
:100D60006091070170E0869FA001879F500D969FBC
:100D7000500D1124241735072CF385E795E063EE19
:100D800073E00C9402180895BACF0895282F30E02C
:100D9000F901EE0FFF1F43E0220F331F4A95E1F7E1
:100DA000E20FF31FE85FFE4F82810895282F30E0A5
:100DB000F901EE0FFF1F73E0220F331F7A95E1F761
:100DC000E20FF31FE85FFE4F4181282F30E0F90169
:100DD000EE0FFF1F53E0220F331F5A95E1F7E20F8A
:100DE000F31FE85FFE4F81E09381491380E008958F
:100DF000282F30E0F901EE0FFF1FB3E0220F331F61
:100E0000BA95E1F7E20FF31FE85FFE4F4085518589
:100E10004115510509F452C0282F30E0F901EE0FB9
:100E2000FF1F73E0220F331F7A95E1F7E20FF31FE4
:100E3000E85FFE4F7281282F30E0F901EE0FFF1FAF
:100E4000B3E0220F331FBA95E1F7E20FF31FE85F1B
:100E5000FE4F9481791790F5282F30E0F901EE0FBD
:100E6000FF1F73E0220F331F7A95E1F7E20FF31FA4
:100E7000E85FFE4F9281490F511DFA016083282FD0
:100E800030E0F901EE0FFF1F53E0220F331F5A9598
:100E9000E1F7E20FF31FE85FFE4F92819F5F282F7B
:100EA00030E0F901EE0FFF1FB3E0220F331FBA95B8
:100EB000E1F7E20FF31FE85FFE4F9283282F30E047
:100EC000F901EE0FFF1F73E0220F331F7A95E1F750
:100ED000E20FF31FE85FFE4F4281282F30E0F90157
:100EE000EE0FFF1F53E0220F331F5A95E1F7E20F79
:100EF000F31FE85FFE4F9481491701F5282F30E07A
:100F0000F901EE0FFF1F93E0220F331F9A95E1F7CF
:100F1000E20FF31FE85FFE4F9581992379F0282FA8
:100F200030E0F901EE0FFF1FB3E0220F331FBA9537
:100F3000E1F7E20FF31FE85FFE4F128208950F936F
:100F40001F93182F823009F474C0882319F4E1EC40
:100F5000F0E002C0E9ECF0E080818F778083812FA0
:100F600090E0FC01EE0FFF1F03E0880F991F0A9528
:100F7000E1F7E80FF91FE85FFE4F80859185009744
:100F8000A1F1212F30E0F901EE0FFF1FA3E0220FA6
:100F9000331FAA95E1F7E20FF31FE85FFE4F92813E
:100FA000212F30E0F901EE0FFF1F63E0220F331F06
:100FB0006A95E1F7E20FF31FE85FFE4F848198170F
:100FC000A0F4112319F4E0ECF0E002C0E8ECF0E04A
:100FD000808187FF0AC0112319F4E6ECF0E002C01B
:100FE000EEECF0E06081812F03DF212F30E0F9018A
:100FF000EE0FFF1F43E0220F331F4A95E1F7E20F88
:10100000F31FE85FFE4F8081882309F057C011234A
:1010100019F4E1ECF0E002C0E9ECF0E080818068D6
:1010200080834CC080912101882319F010921E0109
:1010300045C08091240190912501009709F43EC09C
:1010400090911E01809120019817C0F58091AF0208
:10105000882399F49BD38093AF0210E00AC06AD32F
:10106000E02FF0E03197E11BF109E055FD4F80835F
:101070001F5F0091AF02101790F3A091AF02AA2357
:10108000E9F080911E01E0912401F0912501E80F23
:10109000F11DA150A093AF02B0E0A055BD4F8C91BF
:1010A000808380911E018F5F80931E0190911E01AD
:1010B00080912001981709F0BCCFB4CF1F910F91F8
:1010C0000895823051F0882319F4E1ECF0E002C079
:1010D000E9ECF0E090819F779083A82FB0E0FD01CC
:1010E000EE0FFF1F53E0AA0FBB1F5A95E1F7EA0F5F
:1010F000FB1FE85FFE4F71876087682F70E0FB0180
:10110000EE0FFF1F93E0660F771F9A95E1F7E60F4A
:10111000F71FE85FFE4F1282682F70E0FB01EE0FB1
:10112000FF1FA3E0660F771FAA95E1F7E60FF71FF1
:10113000E85FFE4F4483482F50E0FA01EE0FFF1F97
:1011400063E0440F551F6A95E1F7E40FF51FE85F70
:10115000FE4F25838230D9F0282F30E0F901EE0FC1
:10116000FF1F43E0220F331F4A95E1F7E20FF31F01
:10117000E85FFE4F9081992351F4882319F4E1EC44
:10118000F0E002C0E9ECF0E080818068808308959F
:1011900021E097CFFDCF08951F920F920FB60F92C7
:1011A0000BB60F9211242F933F934F935F936F933E
:1011B0007F938F939F93AF93BF93EF93FF93609130
:1011C000C60080E015DEFF91EF91BF91AF919F9136
:1011D0008F917F916F915F914F913F912F910F90E0
:1011E0000BBE0F900FBE0F901F9018951F920F927D
:1011F0000FB60F920BB60F9211242F933F934F937C
:101200005F936F937F938F939F93AF93BF93EF936E
:10121000FF936091CE0081E0EBDDFF91EF91BF91F4
:10122000AF919F918F917F916F915F914F913F917E
:101230002F910F900BBE0F900FBE0F901F9018951F
:10124000882319F4E1ECF0E002C0E9ECF0E08081E1
:10125000806280830895882319F4E1ECF0E002C0F5
:10126000E9ECF0E080818F7D80830895282F30E0C5
:10127000F901EE0FFF1F93E0220F331F9A95E1F75C
:10128000E20FF31FE85FFE4F2681378121153105FC
:1012900091F1282F30E0F901EE0FFF1FA3E0220F9C
:1012A000331FAA95E1F7E20FF31FE85FFE4F41817C
:1012B000282F30E0F901EE0FFF1F63E0220F331FEC
:1012C0006A95E1F7E20FF31FE85FFE4F938149173C
:1012D00090F4282F30E0F901EE0FFF1F43E0220FBA
:1012E000331F4A95E1F7E20FF31FE85FFE4F90814D
:1012F000992309F4A5CFAFCF823029F1282F30E010
:10130000F901EE0FFF1F53E0220F331F5A95E1F74B
:10131000E20FF31FE85FFE4F9081992349F4882381
:1013200019F4E1ECF0E002C0E9ECF0E098E908C063
:10133000882319F4E1ECF0E002C0E9ECF0E098E178
:10134000908394DF78940895882319F0813029F4EC
:1013500002C080E0D1CF81E0CFCF0895A0E0B0E01F
:10136000E4EBF9E00C948D15D82E7A018B01ECDFBB
:101370008D2D823001F1DD2019F4C4ECD0E002C0E3
:10138000CCECD0E0C801B70128EF3FEF4FEF5FEFA3
:101390000E9451156050734D8E4C9E4FA8019701CD
:1013A000E4E0220F331F441F551FEA95D1F70E9436
:1013B000601539832883CDB7DEB7E7E00C94A91513
:1013C000CDCF0895282F30E0F901EE0FFF1F73E015
:1013D000220F331F7A95E1F7E20FF31FE85FFE4F0C
:1013E000468157814115510509F465C0282F30E029
:1013F000F901EE0FFF1F93E0220F331F9A95E1F7DB
:10140000E20FF31FE85FFE4F6181282F30E0F90102
:10141000EE0FFF1FA3E0220F331FAA95E1F7E20FA3
:10142000F31FE85FFE4F9381691708F044C08823DB
:1014300019F4E0ECF0E002C0E8ECF0E0908195FFF8
:101440003AC0882319F4A6ECB0E002C0AEECB0E0DC
:10145000282F30E0F901EE0FFF1F63E0220F331F4A
:101460006A95E1F7E20FF31FE85FFE4F9181490FA4
:10147000511DFA0190819C93282F30E0F901EE0F65
:10148000FF1F93E0220F331F9A95E1F7E20FF31F3E
:10149000E85FFE4F91819F5F282F30E0F901EE0F4A
:1014A000FF1FA3E0220F331FAA95E1F7E20FF31FFE
:1014B000E85FFE4F9183DACE1F93182F823021F020
:1014C000CADE812F7FDF1CC0809122019091230111
:1014D0000097B1F030911D0120911F01321780F467
:1014E00006C080911D018F5F80931D01EDCF20917B
:1014F0001D01820F911DFC0180814CD1882389F749
:101500001F91089580E0D8DF81E0D6DF82E0D4DF4C
:1015100080E015DD81E013DD82E011CDF3CF089589
:10152000282F30E0F901EE0FFF1F93E0220F331F49
:101530009A95E1F7E20FF31FE85FFE4F778366832A
:10154000282F30E0F901EE0FFF1FA3E0220F331F19
:10155000AA95E1F7E20FF31FE85FFE4F1182282FF3
:1015600030E0F901EE0FFF1F63E0220F331F6A9591
:10157000E1F7E20FF31FE85FFE4F4383823009F08B
:1015800075CE0895CDCF08951F920F920FB60F928A
:101590000BB60F9211242F933F934F935F936F934A
:1015A0007F938F939F93AF93BF93EF93FF9380E0CD
:1015B00009DFFF91EF91BF91AF919F918F917F9143
:1015C0006F915F914F913F912F910F900BBE0F90B4
:1015D0000FBE0F901F9018951F920F920FB60F928B
:1015E0000BB60F9211242F933F934F935F936F93FA
:1015F0007F938F939F93AF93BF93EF93FF9381E07C
:10160000E1DEFF91EF91BF91AF919F918F917F911B
:101610006F915F914F913F912F910F900BBE0F9063
:101620000FBE0F901F9018956F9364E06A95F1F7C5
:101630006F910197C9F708952F928F939F932FB6BB
:101640008091B9029091BA0201968093B902909369
:10165000BA0290E08091BB02891F8093BB029091F7
:10166000C1029C5F9093C1028091C0028051974259
:10167000C0F09093C1028093C0028091BC0290910F
:10168000BD0201968093BC029093BD0290E08091D0
:10169000BE02891F8093BE028091BF02891F809382
:1016A000BF022FBE9F918F912F901895CF93DF93FC
:1016B000EC0104C088EE93E0B7DF21972097D1F7C3
:1016C000DF91CF910895F2CF0895E0E7F0E08081B7
:1016D0008E7F8083A0EBB0E08C9183608C93A1EB34
:1016E000B0E08C91807F8C938C9182608C93B89ABF
:1016F000808181608083789408958091C2028823DC
:1017000021F481E08093C202E0CF0895F6DFE0E7A4
:10171000F0E080818E7F80832091BC023091BD02F9
:101720004091BE025091BF02808181608083B901E7
:10173000CA0108958FEF64E08AC0CF93DF93E6DF9C
:101740009B01AC0180912A0190912B01A0912C0169
:10175000B0912D01281739074A075B07A1F081E8EE
:1017600067E075D0CCECD2E0E5DF899382E0C93D3B
:10177000D807D1F7CBDF60932A0170932B018093B8
:101780002C0190932D01DF91CF91089583E867E0BC
:101790005ED0D0CF1F93182F982F9095991F99271F
:1017A000991F85E8891B65E052D0812F8F7765E00E
:1017B0004ED01F910895C1DF8091D5029091D6023D
:1017C0000895BBDF8091CD029091CE020895B5DFE0
:1017D0008091CF029091D0020895AFDF8091D10225
:1017E0009091D2020895A9DF8091D3029091D40202
:1017F00008956F9364E06A95F1F76F910197C9F7C7
:101800000895A1E0B0E0E7E0FCE00C949115182FFA
:10181000249908C02C9906C02C9A8EE190E0698327
:10182000E8DF698184B1806A84B92698812F83704A
:1018300080656C7A862B8CBD81E012FF80E08DBDC7
:1018400081E090E033DF2196E3E00C94AD150F9337
:101850001F93082F162F0CB406FC03C080E064E031
:10186000D0DF0CB404FC03C08CB580618CBD0EBD10
:1018700003C00CB404FE0AC00DB407FEFACF112356
:1018800019F0812F90E0B5DF8EB501C080E01F9187
:101890000F9108952F923F924F925F926F927F9295
:1018A0008F929F92AF92BF92CF92DF92EF92FF9270
:1018B0000F931F93CF93DF93CDB7DEB763970FB628
:1018C000F894DEBF0FBECDBF7C011B016A01FC0195
:1018D00017821682838181FF66C3BE016F5F7F4FCF
:1018E0004B01F7019381F10193FD859193FF819164
:1018F0001F01882309F453C3853239F493FD859180
:1019000093FF81911F01853239F4B70190E00E9465
:101910008A1856016501E5CF10E0512C20E02032F5
:10192000A0F48B3269F030F4803259F0833269F4DC
:1019300020612CC08D3239F0803339F4216026C00B
:101940002260246023C0286021C027FD27C030ED1D
:10195000380F3A3078F426FF06C0FAE01F9F300DAA
:101960001124132F13C06AE0569E300D1124532EFC
:1019700020620CC08E3221F426FD11C3206406C003
:101980008C3611F4206802C0883641F4F10193FDD1
:10199000859193FF81911F018111C1CF9BEB980F1E
:1019A000933018F42061805E06C09BE9980F933055
:1019B00008F0AAC12F7E26FF16E02F73722E8536FF
:1019C00021F4F22FF0647F2E08C0863621F4622FB6
:1019D0006068762E02C01111115077FE07C01C33CB
:1019E00048F444244394410E27E00BC0183030F4EF
:1019F000212F06C027E04CE3442E03C027E017E068
:101A0000412C560174E0A70EB11CF6016081718172
:101A100082819381042DA4010E94F9166C01098131
:101A200000FF02C003FF06C071FC07C072FC08C0C3
:101A3000612C08C03DE2632E05C02BE2622E02C07D
:101A400090E2692E802F8C7099F1662011F084E06D
:101A500001C083E0851510F0512C0BC0581A73FC9F
:101A600008C0B70180E290E00E948A185A94C9F732
:101A7000F3CF662029F0B701862D90E00E948A18E6
:101A800003FD03C000E910E002C00CE810E0F72DF0
:101A9000F0717F2EF8018491882309F476C27110C9
:101AA0008052B70190E00E948A180F5F1F4FF2CF5B
:101AB00077FE0FC04C0C04FF04C08A81813309F407
:101AC0004A94141474F5F8E0F41578F588E0482E7B
:101AD0002CC076FC2AC0812F90E08C159D059CF0CF
:101AE0006CEFC6166FEFD60674F0772D7068772E00
:101AF0000AC0E2E0F0E0EC0FFD1FE10FF11D808174
:101B0000803319F411501111F4CF77FE0EC0442424
:101B10004394410E812F90E0C816D9062CF41C196D
:101B200004C04424439401C010E077FE07C01C1495
:101B30001D043CF496012F5F3F4F05C025E030E0C7
:101B400002C021E030E0662011F02F5F3F4F1123EB
:101B500031F0412F50E04F5F5F4F240F351F452D6F
:101B600050E02417350714F4521A01C0512C872D68
:101B7000897049F4552039F0B70180E290E00E9465
:101B80008A185A94F7CF662029F0B701862D90E085
:101B90000E948A1873FC09C0552039F0B70180E310
:101BA00090E00E948A185A94F7CF77FE5FC09C2D70
:101BB0008D2DD7FE02C090E080E0692E782E40E0A7
:101BC00050E0C601841991099D878C8796012619DA
:101BD0003709280D391D812F90E0EE27FF27E81BDC
:101BE000F90BFF87EE87FFEF6F167F0669F4B701E9
:101BF0008EE290E02B8B3A8B488B598B0E948A188F
:101C0000598948893A892B89C614D70454F06C85C0
:101C10007D85661577052CF4F901E40FF51F8181A8
:101C200001C080E371E0671A71084F5F5F4FEE8576
:101C3000FF856E167F066CF0B70190E02B8B3A8B18
:101C4000488B598B0E948A182B893A89488959896F
:101C5000CACF6C147D0439F49A81963318F4953305
:101C600011F404FF81E3B70190E04BC08A81813316
:101C700009F00F7EB70190E00E948A18111105C08B
:101C800074FE18C085E490E017C0B7018EE290E0C2
:101C90000E948A1882E066246394680EF401E80FBB
:101CA000F11D8081B70190E00E948A18115041F324
:101CB000862DF1CF85E690E0B7010E948A18D7FC07
:101CC00005C0C114D10439F404FF05C0D194C194F6
:101CD000D1088DE201C08BE2B70190E00E948A1822
:101CE00080E36AE0C616D1042CF08F5FFAE0CF1AC9
:101CF000D108F7CFB70190E00E948A18B701C6015A
:101D0000C0960E948A1841C1833631F0833779F03A
:101D1000833509F058C021C0560172E0A70EB11CEE
:101D2000F6018081898301E010E0640114C056014E
:101D3000F2E0AF0EB11CF601C080D18026FF03C0D7
:101D4000612F70E002C06FEF7FEFC6012B8B0E9406
:101D5000F7178C012B892F7715C05601F2E0AF0ED3
:101D6000B11CF601C080D18026FF03C0612F70E056
:101D700002C06FEF7FEFC6012B8B0E94EC178C0126
:101D80002B892068722E23FD1AC0852D90E008173C
:101D90001907A8F4B70180E290E00E948A185A94CB
:101DA000F4CFF60177FC859177FE81916F01B70141
:101DB00090E00E948A1851105A940150110901159F
:101DC000110579F7E2C0843611F0893651F55601D4
:101DD00027FF09C0F4E0AF0EB11CF60160817181EC
:101DE000828193810AC0F2E0AF0EB11CF6016081DE
:101DF0007181882777FD8095982F022F0F7697FFA6
:101E000008C090958095709561957F4F8F4F9F4F3B
:101E100000682AE030E0A4010E947419C82EC81896
:101E20003EC0022F853721F40F7E2AE030E01DC02E
:101E3000097F8F3691F018F4883559F0B0C080379B
:101E400019F0883711F0ABC0006104FF09C00460CD
:101E500007C024FF08C0066006C028E030E005C0C7
:101E600020E130E002C020E132E0560107FF09C066
:101E7000F4E0AF0EB11CF601608171818281938123
:101E800008C0F2E0AF0EB11CF6016081718180E004
:101E900090E0A4010E947419C82EC8180F7706FF9D
:101EA0000BC0202F2E7FC11650F404FF0AC002FD84
:101EB00008C0202F2E7E05C0DC2C202F03C0DC2C78
:101EC00001C0D12E24FF0DC0FE01EC0DF11D80815B
:101ED000803311F4297E09C022FF06C0D394D39425
:101EE00004C0822F867809F0D39423FD13C020FF0D
:101EF00006C01C2DD51418F4150D1D19D52CD5149C
:101F000068F4B70180E290E02B8B0E948A18D3948A
:101F10002B89F5CFD51410F45D1801C0512C24FF86
:101F200012C0B70180E390E02B8B0E948A182B89A6
:101F300022FF17C021FF03C088E590E002C088E7B8
:101F400090E0B7010CC0822F867859F021FD02C0C5
:101F500080E201C08BE227FD8DE2B70190E00E9494
:101F60008A18C11638F4B70180E390E00E948A18FD
:101F70001150F7CFCA94F401EC0DF11D8081B70127
:101F800090E00E948A18C110F5CF552009F4C2CC08
:101F9000B70180E290E00E948A185A94F6CFF701C8
:101FA0008681978102C08FEF9FEF63960FB6F894FA
:101FB000DEBF0FBECDBFDF91CF911F910F91FF907C
:101FC000EF90DF90CF90BF90AF909F908F907F90D9
:101FD0006F905F904F903F902F900895E89409C0C4
:101FE00097FB3EF490958095709561957F4F8F4F4C
:101FF0009F4F9923A9F0F92F96E9BB279395F69562
:10200000879577956795B795F111F8CFFAF4BB0FDF
:1020100011F460FF1BC06F5F7F4F8F4F9F4F16C043
:10202000882311F096E911C0772321F09EE8872FCD
:10203000762F05C0662371F096E8862F70E060E089
:102040002AF09A95660F771F881FDAF7880F969502
:10205000879597F9089557FD9058440F551F59F0EB
:102060005F3F71F04795880F97FB991F61F09F3F85
:1020700079F087950895121613061406551FF2CFAE
:102080004695F1DF08C0161617061806991FF1CFFE
:1020900086957105610508940895E894BB27662725
:1020A0007727CB0197F908950BD078C069D028F035
:1020B0006ED018F0952309F05AC05FC01124EECFFE
:1020C000CADFA0F3959FD1F3950F50E0551F629F93
:1020D000F001729FBB27F00DB11D639FAA27F00D81
:1020E000B11DAA1F649F6627B00DA11D661F829FA8
:1020F0002227B00DA11D621F739FB00DA11D621F8D
:10210000839FA00D611D221F749F3327A00D611DA9
:10211000231F849F600D211D822F762F6A2F11248B
:102120009F5750408AF0E1F088234AF0EE0FFF1FDE
:10213000BB1F661F771F881F91505040A9F79E3F15
:10214000510570F014C0AACF5F3FECF3983EDCF36A
:10215000869577956795B795F795E7959F5FC1F752
:10216000FE2B880F911D9695879597F9089597F9FD
:102170009F6780E870E060E008959FEF80EC08952D
:1021800000240A9416161706180609060895002456
:102190000A9412161306140605060895092E0394D0
:1021A000000C11F4882352F0BB0F40F4BF2B11F444
:1021B00060FF04C06F5F7F4F8F4F9F4F089520FDDA
:1021C00009C0FC0123FD05C022FF02C073836283A6
:1021D00051834083089544FD10C046FD10C0DB01CB
:1021E000FC01AA0FBB1FEE1FFF1F1094D1F76A0F4F
:1021F0007B1F8E1F9F1F31E003C033E001C034E01E
:10220000660F771F881F991F3150D1F7620F711D1C
:10221000811D911D08950F931F93CF93DF938C0120
:10222000C8013AD7EC0197FD07C0BBD6892BC1F78F
:10223000B801CE010E945B19CE01DF91CF911F91B1
:102240000F9108956F927F929F92AF92BF92CF921B
:10225000DF92EF92FF920F931F93CF93DF931F9222
:10226000CDB7DEB78C013B015A01298315D7AC01EC
:10227000552729814B32510521F04D32510579F412
:10228000206831E0631A71086114710411F480E070
:1022900078C0C801298300D7298197FDF8CFE22FA4
:1022A000ED7F9E2E322F307369F5803359F573011F
:1022B000F1E0EF1AF108E114F10409F44FC0C8018C
:1022C0002983EAD6298197FD49C0382F3F7D3835CB
:1022D00079F4292D2264922E32E0631A7108611478
:1022E000710409F43BC0C801D7D697FF0BC036C0B4
:1022F00026FF04C0E92DE2609E2E03C0F92DF26195
:102300009F2E3701C12CD12C760120ED280F2830CB
:1023100078F094FE03C0B801CED71DC02A3040F03B
:1023200096FEF9CF2F7D3FEE320F3630A0F72750C3
:10233000492DC701B6014FDF6B017C01292D2260B9
:10234000922E31E0631A71086114710451F0C801D2
:10235000A3D697FFDACF91FC04C099CFC12CD12C22
:10236000760197FE08C0F094E094D094C094C11C0C
:10237000D11CE11CF11C292DB701A601C5011FDFED
:1023800081E00F90DF91CF911F910F91FF90EF901F
:10239000DF90CF90BF90AF909F907F906F90089507
:1023A0004F925F926F927F928F929F92AF92BF9265
:1023B000CF92DF92EF92FF920F931F93CF93DF9311
:1023C000CDB7DEB7A0970FB6F894DEBF0FBECDBF76
:1023D0005C014B017A018E010F5F1F4F680180E2A3
:1023E000F80111928A95E9F7F501638080E090E0A9
:1023F000712C412CB0E041E050E0F90163FC5590B4
:1024000063FE51908F01A52D9F01511003C080E004
:1024100090E07DC0FEE55F1202C0009761F16B2F76
:1024200070E0681779074CF46DE5561661F1EDE23E
:102430005E1203C0442009F103C0411001C0752C95
:102440006A2F669566956695F601E60FF11D6A2F6F
:1024500067708A0102C0000F111F6A95E2F7B80188
:102460007081762B7083A71559F0A71510F4AF5F14
:10247000E7CFA150E5CFB1E004C04424439401C0AC
:10248000412C0196BACF442019F08E8180628E8350
:10249000B11103C07724739419C0F601CE0181965F
:1024A000208120952193E817F907D1F7F3CFE114A4
:1024B000F10429F0F7018083C70101967C0191E0C6
:1024C000891A910881149104E1F0712CC501E4D5B9
:1024D00097FD15C0282F269526952695F601E20F23
:1024E000F11D208130E0AC014770552702C03595C1
:1024F00027954A95E2F720FDDACFB501DCD67110B9
:1025000086CFE114F10411F0F7011082C801A09602
:102510000FB6F894DEBF0FBECDBFDF91CF911F91F4
:102520000F91FF90EF90DF90CF90BF90AF909F9072
:102530008F907F906F905F904F9008952F923F9271
:102540004F925F926F927F929F92AF92BF92CF9283
:10255000DF92EF92FF920F931F93CF93DF9300D000
:1025600000D000D0CDB7DEB76C018B011A0194D535
:102570009E838D8399278B32910529F08D9791F455
:1025800080E8982E01C0912C015011090115110508
:1025900011F480E02AC1C6017FD59E838D8397FF09
:1025A00002C0F7CF912C8D819E8103D5893691058C
:1025B00041F08E369105C1F5B6EA6B2EB0E07B2E68
:1025C00004C0A9EA6A2EA0E07A2E8FEF681A780A72
:1025D000F3013197B490BB20D9F0015011090115D6
:1025E000110559F0C60158D57C0197FD06C0E1D40C
:1025F000B81659F3B601C7015ED62CEA621620E080
:10260000720609F0C6CF80E090E0A0E8BFE709C0FD
:1026100099EA691690E07906B1F780E090E0A0ECC5
:10262000BFE7BC01CD01D1C0412C512C3201E12CBE
:10263000F12C2D8120532A3020F5E92DE260BE2EA9
:10264000892D887092FE06C0811122C0FFEFEF1A1B
:10265000FF0A1EC0882319F081E0E81AF10840E261
:10266000C301B201B8DD2B013C0198E9491699E993
:102670005906690699E1790658F0E92DE660BE2E03
:1026800007C02E3F99F493FC11C0F92DF860BF2EBE
:10269000015011090115110541F0C601FDD49E83B9
:1026A0008D839B2C97FD02C0C4CF9B2C91FE71CFD4
:1026B0008D818F7D853409F052C0580121E0A21A26
:1026C000B108A114B10409F464CFC601E5D49E8316
:1026D0008D8397FD5ECF99278B32910529F08D97D9
:1026E00079F4892D8061982E580192E0A91AB108D9
:1026F000A114B10409F44DCFC601CED49E838D83BD
:102700008D819E81C0970A9708F043CF8501A12C47
:10271000B12CB501882777FD8095982F2D81205306
:1027200040E259DDAB01BC015A010150110901150C
:10273000110569F0C60149835A836B837C83ACD44D
:102740009E838D83C09749815A810A9710F394FE26
:1027500004C0AA24BB24A41AB50AEA0CFB1C012B52
:1027600039F0ED81FE81F7FD03C0B601CF01A3D59D
:10277000C301B20133DCF7FE08C0F194E194F10823
:10278000F5ECAF2EF0E0BF2E04C0EDEDAE2EE0E094
:10279000BE2E6501F8E1CF1AD10800E210E0F50184
:1027A0004590559065907490E016F10630F0A301C5
:1027B00092017ADCE01AF10AF7CF24E0A21AB108FC
:1027C00016950795AC14BD0451F797FE05C0DC01C2
:1027D000CB01B058BC01CD012114310429F0F10125
:1027E000608371838283938381E026960FB6F89489
:1027F000DEBF0FBECDBFDF91CF911F910F91FF9034
:10280000EF90DF90CF90BF90AF909F907F906F90B0
:102810005F904F903F902F9008954F925F926F92EC
:102820007F928F929F92AF92BF92CF92DF92EF9260
:10283000FF920F931F93CF93DF931F92CDB7DEB715
:102840008C012B017A01FC0117821682A12CF80160
:10285000D380F201D3FC8591D3FE8191382F2F01D3
:10286000882309F407C190E039839BD33981892BF0
:1028700019F0C801D0DCEBCF353241F4F201D3FCC2
:102880003591D3FE31912F01353259F4C801398386
:1028900003D4398197FDECC03817C9F2B8010BD5C4
:1028A000E9C03A3241F4D3FC3591D3FE31912F0186
:1028B000BB24B39401C0B12C812C912C20ED230FAB
:1028C0002A3080F4FB2DF260BF2EB40180E090E04E
:1028D00040E281DC4B01F201D3FC3591D3FE319112
:1028E0002F01ECCFB1FE04C08114910421F4C2C0C9
:1028F00088248A94982C383619F03C3661F014C03C
:10290000F201D3FC3591D3FE31912F01383661F4B9
:10291000FB2DF860BF2E8B2D8460B82EF201D3FC06
:102920003591D3FE31912F01332309F4A3C0632FD6
:1029300070E084E990E0398344D33981892B09F42C
:1029400099C0B0FC07C0F701C080D180C7010296D2
:102950007C0102C0C12CD12C3E3649F4F8014681DD
:10296000578160E070E02B2DC60129DC70CF333633
:10297000C1F4B1FC03C088248394912CC8018CD38A
:1029800097FD76C0C114D10429F0F6018083C601F9
:1029900001966C0191E0891A91088114910471F7F4
:1029A00063C03B3551F49201A601B401C801F8DCC3
:1029B0002C01009709F058C052C0C80139832BDCA4
:1029C000398197FD55C03F36D9F140F43436A1F135
:1029D0003936C9F1383509F03CC02AC03337B9F06F
:1029E00018F4303729F135C0353731F1383701F176
:1029F00030C0C114D10429F0F6016082C6010196ED
:102A00006C0191E0891A91088114910459F0C80170
:102A100043D33C0197FD06C0C4D2892B51F3B801C2
:102A2000C30149D4C114D104F9F0F60110821CC0CD
:102A3000FB2DF064BF2E07C08B2D8062B82E03C023
:102A40009B2D9061B92E2B2DA601B401C801FADB94
:102A500004C0A601B401C80171DD811105C0F801EF
:102A60008381807329F406C0B0FCF1CEA394EFCE2D
:102A7000AA2019F08A2D90E002C08FEF9FEF0F90EF
:102A8000DF91CF911F910F91FF90EF90DF90CF904A
:102A9000BF90AF909F908F907F906F905F904F907E
:102AA0000895DB018F939F9364D0BF91AF91A29F54
:102AB000800D911DA39F900DB29F900D112408953C
:102AC000A1E21A2EAA1BBB1BFD010DC0AA1FBB1F32
:102AD000EE1FFF1FA217B307E407F50720F0A21BA4
:102AE000B30BE40BF50B661F771F881F991F1A9411
:102AF00069F760957095809590959B01AC01BD013B
:102B0000CF0108952F923F924F925F926F927F92E2
:102B10008F929F92AF92BF92CF92DF92EF92FF92ED
:102B20000F931F93CF93DF93CDB7DEB7CA1BDB0B99
:102B30000FB6F894DEBF0FBECDBF09942A8839883E
:102B400048885F846E847D848C849B84AA84B98445
:102B5000C884DF80EE80FD800C811B81AA81B98151
:102B6000CE0FD11D0FB6F894DEBF0FBECDBFED0165
:102B7000089509D0A59F900DB49F900DA49F800D3E
:102B8000911D11240895A29FB001B39FC001A39F7E
:102B9000700D811D1124911DB29F700D811D112496
:102BA000911D0895CF93DF938230910510F482E058
:102BB00090E0E091E903F091EA0320E030E0A0E04A
:102BC000B0E0309739F14081518148175907B8F08A
:102BD0004817590771F482819381109729F0139651
:102BE0009C938E9312972CC09093EA038093E903F1
:102BF00027C02115310531F04217530718F0A901FC
:102C0000DB0101C0EF019A01BD01DF010280F38108
:102C1000E02DD7CF21153105F9F0281B390B2430D1
:102C2000310580F48A819B816115710521F0FB01DA
:102C30009383828304C09093EA038093E903FE01A7
:102C4000329644C0FE01E20FF31F8193919322500C
:102C50003109398328833AC02091E7033091E80392
:102C6000232B41F420913001309131013093E8035E
:102C70002093E70320912E0130912F01211531057A
:102C800041F42DB73EB74091320150913301241BDE
:102C9000350BE091E703F091E803E217F307A0F4A6
:102CA0002E1B3F0B2817390778F0AC014E5F5F4FA2
:102CB0002417350748F04E0F5F1F5093E8034093E9
:102CC000E7038193919302C0E0E0F0E0CF01DF9150
:102CD000CF910895CF93DF93009709F487C0FC014B
:102CE000329713821282C091E903D091EA032097B0
:102CF00081F420813181280F391F8091E703909161
:102D0000E8038217930779F5F093E803E093E7036C
:102D10006DC0DE0120E030E0AE17BF0750F4129620
:102D20004D915C9113979D014115510509F1DA010F
:102D3000F3CFB383A28340815181840F951F8A17FB
:102D40009B0771F48D919C911197840F951F0296AA
:102D50009183808312968D919C91139793838283A4
:102D60002115310529F4F093EA03E093E9033EC00D
:102D7000D9011396FC93EE9312974D915D91A40F98
:102D8000B51FEA17FB0779F480819181840F951FA5
:102D90000296D90111969C938E938281938113960A
:102DA0009C938E931297E0E0F0E08A819B810097DC
:102DB00019F0FE01EC01F9CFCE010296288139818C
:102DC000820F931F2091E7033091E80328173907FA
:102DD00069F4309729F41092EA031092E90302C0D3
:102DE00013821282D093E803C093E703DF91CF915F
:102DF0000895283008F027E03327DA01990F311DB4
:102E000087FD916000966105710539F432602E5F8F
:102E10003D9330E32A95E1F708959F3F30F08038E5
:102E20007105610509F03C5F3C5F3D93913008F00E
:102E30008068911DDF93CF931F930F93FF92EF92C2
:102E4000192F987F9695E92F96959695E90FFF276C
:102E5000E55CFE4F99273327EE24FF24A701E70105
:102E600005900894079428F4360FE71EF81E491FB2
:102E7000511D660F771F881F991F0694A1F70590B3
:102E8000079428F4E70EF81E491F561FC11D770F3F
:102E9000881F991F661F0694A1F70590079428F4D0
:102EA000F80E491F561FC71FD11D880F991F661F97
:102EB000771F0694A1F70590079420F4490F561F39
:102EC000C71FD81F990F661F771F881F0694A9F781
:102ED00084911095177041F0D695C79557954795F1
:102EE000F794E7941A95C1F7E1EEF0E06894159035
:102EF000159135916591959105907FE27395E11853
:102F0000F10A430B560BC90BD009C0F7E10CF11EB7
:102F1000431F561FC91FD01D7EF4703311F48A95CC
:102F2000E6CFE894015030F0080F0AF400270217AA
:102F300008F4202F2395022F7A3328F079E37D932C
:102F40002A95E9F710C07D932A9589F606949795FE
:102F50006795379517951794E118F10A430B560BAF
:102F6000C90BD00998F023957E9173957A3308F0B8
:102F700070E37C932013B8F77E9170617D9330F0FD
:102F8000839571E37D9370E32A95E1F71124EF9027
:102F9000FF900F911F91CF91DF91992787FD909519
:102FA0000895911119C2803219F089508550D0F7D7
:102FB00008959111089581548A5108F4805E855ACC
:102FC0000895FC010590061621F00020D9F7C001F4
:102FD00008953197CF010895FC010590615070402C
:102FE0000110D8F7809590958E0F9F1F0895FC01D2
:102FF0006150704001900110D8F7809590958E0F28
:103000009F1F08950F931F93CF93DF93EC018B01C4
:10301000009731F46115710519F480E090E037C034
:103020006EE070E081E090E0BDD1FC010097A9F373
:1030300080E883830115110571F01387028781E809
:1030400083838091EB039091EC03892B21F4F0931F
:10305000EC03E093EB032097C9F0D187C08783810D
:10306000826083838091ED039091EE03892B71F44C
:10307000F093EE03E093ED038091EF039091F00362
:10308000892B21F4F093F003E093EF03CF01DF915C
:10309000CF911F910F910895CF93DF93EC012B8176
:1030A00020FF33C026FF0AC02F7B2B838E819F8198
:1030B00001969F838E838A8190E029C022FF0FC0F2
:1030C000E881F9818081992787FD9095009719F40F
:1030D00020622B831AC03196F983E8830EC0EA85FB
:1030E000FB85099597FF09C02B81019611F480E1BA
:1030F00001C080E2822B8B8308C02E813F812F5F2D
:103100003F4F3F832E83992702C08FEF9FEFDF91C0
:10311000CF9108950F931F93CF93DF93182F092F0B
:10312000EB018B8181FD03C08FEF9FEF20C082FFF9
:1031300010C04E815F812C813D81421753077CF482
:10314000E881F9819F012F5F3F4F398328831083E6
:1031500006C0E885F985812F0995892B29F72E81ED
:103160003F812F5F3F4F3F832E83812F902FDF9131
:10317000CF911F910F910895CF93DF93CDB7DEB715
:10318000FE01359661917191AF018091ED039091AF
:10319000EE030E944A0CDF91CF9108950F931F9385
:1031A000CF93DF93CDB7DEB72E970FB6F894DEBF7F
:1031B0000FBECDBF0D891E898F89988D26E02C8387
:1031C0001A83098397FF02C080E090E801979E83ED
:1031D0008D83AE01455E5F4F698D7A8DCE0101967C
:1031E0000E944A0C4D815E8157FD0AC02F813885AF
:1031F000421753070CF49A01F801E20FF31F1082F3
:103200002E960FB6F894DEBF0FBECDBFDF91CF91E3
:103210001F910F9108950F931F93CF93DF93CDB715
:10322000DEB72E970FB6F894DEBF0FBECDBF0D8967
:103230001E8986E08C831A8309838FEF9FE79E8324
:103240008D83AE01475E5F4F6F89788DCE01019609
:103250000E944A0CEF81F885E00FF11F10822E9634
:103260000FB6F894DEBF0FBECDBFDF91CF911F9197
:103270000F910895CF93DF93CDB7DEB72E970FB69A
:10328000F894DEBF0FBECDBF85E08C838B899C890F
:103290009A838983AE01495E5F4F6D897E89CE0135
:1032A0000196BBDA2E960FB6F894DEBF0FBECDBFE7
:1032B000DF91CF910895FB01238120FF12C026FDED
:1032C00010C08F3F3FEF930761F082832F7D206412
:1032D000238326813781215031093783268399271B
:1032E00008958FEF9FEF0895FA01AA27283051F132
:1032F000203181F1E8946F936E7F6E5F7F4F8F4F27
:103300009F4FAF4FB1E03ED0B4E03CD0670F781F85
:10331000891F9A1FA11D680F791F8A1F911DA11D6A
:103320006A0F711D811D911DA11D20D009F46894A3
:103330003F912AE0269F11243019305D3193DEF64B
:10334000CF010895462F4770405D4193B3E00FD001
:10335000C9F7F6CF462F4F70405D4A3318F0495DEC
:1033600031FD4052419302D0A9F7EACFB4E0A695CF
:103370009795879577956795BA95C9F700976105F1
:10338000710508959B01AC010A2E06945795479547
:1033900037952795BA95C9F7620F731F841F951F3C
:1033A000A01D08950F931F93CF93DF93869F8001F5
:1033B000879F100D969F100D1124C801F3DBEC01BF
:1033C000009721F0A80160E070E009D0CE01DF9104
:1033D000CF911F910F910895992788270895DC01B7
:1033E00001C06D9341505040E0F70895F894FFCF2D
:1033F000010101018813021000000000000000001C
:1034000000000000000000000000000001000000BB
:10341000000000000000FFFFFFFFFFFFFFFF0000B4
:10342000F103200025640D0A25640D0A25640D0AA8
:1034300025640D0A25640D0A000D0A48454C503AD2
:103440000D0A4C2F6C3A2053746172742F53746FB1
:1034500070204C6F6767696E670D0A00562F763AC9
:103460002056696577204B642C204B702C20566DBC
:103470002C2050722C20506D2C20616E6420540D35
:103480000A00522F723A20506F736974696F6E2070
:1034900028636F756E7473290D0A00532F733A20D9
:1034A00053706565642028636F756E74732F736540
:1034B00063290D0A00503A20496E63726561736595
:1034C000204B700D0A00703A204465637265617389
:1034D00065204B700D0A00443A20496E63726561A5
:1034E0007365204B640D0A00643A2044656372657D
:1034F000617365204B640D0A00743A20457865635A
:10350000757465207472616A6563746F72790D0AEF
:10351000000D0A0D0A2A2A2A2055534220536572AB
:1035200069616C20496E697469616C697A656420AF
:103530002A2A2A000D4D656E753A203C4C2C562CDB
:10354000522C532C502C442C743E3A2000256320DE
:10355000256400476F742025632025640A004F709E
:103560003A25632056616C3A25640D0A00436F6D5D
:103570006D616E6420646F6573206E6F7420636F7D
:103580006D707574652E0D0A0052583A202800009F
:00000001FF
